:020000040000FA
:100000006CEF22F0C96E1200E4EF1EF00EEC04F06B
:10001000E6EC1AF0FDD71200A1EF20F0D9CFE5FFF2
:10002000E1CFD9FF00C0E5FF01C0E5FF02C0E5FF59
:1000300003C0E5FF04C0E5FF05C0E5FF06C0E5FF1E
:1000400007C0E5FF08C0E5FF09C0E5FF0AC0E5FFFE
:100050000BC0E5FF0CC0E5FF0DC0E5FF0EC0E5FFDE
:100060000FC0E5FF10C0E5FF11C0E5FF12C0E5FFBE
:1000700013C0E5FF14C0E5FF15C0E5FF16C0E5FF9E
:1000800017C0E5FF18C0E5FF19C0E5FF1AC0E5FF7E
:100090001BC0E5FF1CC0E5FF1DC0E5FF1EC0E5FF5E
:1000A000020EDBCF00F0030EDBCF01F0040EDBCF3E
:1000B00002F0050EDBCF03F0060EDBCF04F0070ED7
:1000C000DBCF05F0080EDBCF06F0090EDBCF07F023
:1000D0000A0EDBCF08F0096A0A6A02C00DF00D5063
:1000E000800A0DE102500301576F0150566F005016
:1000F000556F030E016E550E006E800E026E03C02A
:10010000E9FF04C0F3FF0550B6EC22F00B6E0B5074
:10011000D8B4C4EF03F00B50250A02E0ABEF03F0B4
:100120000C6A0D6A0E6A0F6A106A0A0E116E126A64
:10013000136A146A200E156E1668176A2B0E186E55
:10014000032A02E3044A052A03C0E9FF04C0F3FFBF
:100150000550B6EC22F0196E250A13E11950E56E30
:100160000250E56E0150E56E0050E56E0EEC14F0A5
:10017000040EE126094A0A2A032A02E3044A052A50
:10018000BED71950300A06E1300E156E032A02E37D
:10019000044A052A03C0E9FF04C0F3FF0550B6EC8A
:1001A00022F02D0A06E1010E146E032A02E3044A2E
:1001B000052A03C0E9FF04C0F3FF0550B6EC22F0A6
:1001C000200A08E1010E176E200E186E032A02E3C2
:1001D000044A052A03C0E9FF04C0F3FF0550B6EC4A
:1001E00022F02B0A06E1010E176E032A02E3044AED
:1001F000052A03C0E9FF04C0F3FF0550B6EC22F066
:10020000196E310E195C2BE33A0E195C28E203C01B
:1002100019F004C01AF005C01BF019C0E9FF1AC09C
:10022000F3FF1B50B6EC22F01C6E300E1C5C11E389
:100230003A0E1C5C0EE213500A0DF3CF1DF01C5059
:100240001D26D00E1D24136E192A02E31A4A1B2AFA
:10025000E4D719C003F01AC004F01BC005F003C0B6
:10026000E9FF04C0F3FF0550B6EC22F02E0A2DE1A1
:10027000032A02E3044A052A166A03C019F004C0DF
:100280001AF005C01BF019C0E9FF1AC0F3FF1B509C
:10029000B6EC22F01C6E300E1C5C11E33A0E1C5CB6
:1002A0000EE216500A0DF3CF1DF01C501D26D00E85
:1002B0001D24166E192A02E31A4A1B2AE4D719C014
:1002C00003F01AC004F01BC005F003C0E9FF04C02E
:1002D000F3FF0550B6EC22F0196E6C0A07E1010E2F
:1002E0000C6E032A02E3044A052A09D01950680A51
:1002F00006E1010E0E6E032A02E3044A052A03C03A
:10030000E9FF04C0F3FF0550B6EC22F0750A06E1E0
:10031000010E106E032A02E3044A052A03C0E9FF16
:1003200004C0F3FF0550B6EC22F0196E730A05E124
:10033000010E0D6E200E156E3FD01950780A03E1A4
:10034000100E116E39D01950580A05E1100E116EB9
:10035000010E126E31D01950630A02E1116A2CD0DD
:1003600019506F0A03E1080E116E26D01950660A63
:1003700003E1010E0F6E20D01950640A1DE01950E0
:10038000690A1AE0105005E0FF0E03260422052238
:1003900013D01950E56E0250E56E0150E56E005025
:1003A000E56E0EEC14F0040EE126094A0A2A032A2F
:1003B00002E3044A052AA3D60D5021E00650030F9C
:1003C0000D6E000E0720196E000E08201A6E0DC06B
:1003D00006F019C007F01AC008F0FD0E0D26FF0E3A
:1003E00019221A220DC0E9FF19C0F3FF1A5081EC3F
:1003F00021F00D6EF3CF19F0F4CF1AF0FDD00F50AD
:100400000DE0000E1A6E080E196E100E0D6E040E21
:100410000626000E072208221668EED016680C5039
:1004200023E00650040F0C6E000E07200F6E000E26
:1004300008201B6E0CC006F00FC007F01BC008F0B0
:10044000FC0E0C26FF0E0F221B220CC0E9FF0FC072
:10045000F3FF1B50EAEC20F00C6EF3CF0FF0F4CF5B
:100460001BF0E9CF1CF067D00E502FE00650020FB2
:100470000E6E000E07201D6E000E08201E6E0EC0B0
:1004800006F01DC007F01EC008F0FE0E0E26FF0E7F
:100490001D221E220EC0E9FF1DC0F3FF1E5040ECBE
:1004A00022F00E6E0EC00CF00F6A1B6A1C6A11500F
:1004B0000A0A03E11050D8B43ED00C500E6E0EC0A4
:1004C0000CF00F6A1B6A1C6A36D00650020F0E6EC3
:1004D000000E07201D6E000E08201E6E0EC006F0D6
:1004E0001DC007F01EC008F0FE0E0E26FF0E1D22D6
:1004F0001E220EC0E9FF1DC0F3FF1E5040EC22F08B
:100500000E6EF3CF1DF00EC00CF01DC00FF0E86AA8
:100510001DBEFF0E1B6E1C6E11500A0A02E1105028
:100520000AE00C500E6E0F501D6E0EC00CF01DC078
:100530000FF01B6A1C6A040E196EF40E0D6E800E0D
:100540001A6E1150D8B440D0105013E01150E56E1F
:10055000040EE56EF40EE56E1C50E56E1B50E56E64
:100560000F50E56E0C50E56E3BEC10F0070EE126E7
:1005700012D01150E56E040EE56EF40EE56E1C50BF
:10058000E56E1B50E56E0F50E56E0C50E56ED4EC39
:1005900019F0070EE12617502FE00DC0E9FF19C032
:1005A000F3FF1A50B6EC22F02D0A26E0FF0E0D26BE
:1005B00019221A2218C0E5FF0DC0E9FF19C0F3FF88
:1005C0001A503DEC23F018D00CC0E5FF0DC0E9FF38
:1005D00019C0F3FF1A503DEC23F00D50010F0C6EC3
:1005E000000E19200E6E000E1A20E56A0CC0E9FFFD
:1005F0000EC0F3FF3DEC23F00DC00CF019C00EF05F
:100600001AC00FF013C010F0105010E00CC0E9FF3A
:100610000EC0F3FF0F50B6EC22F0176E175006E035
:100620000C2A02E30E4A0F2A1006EED710C013F070
:1006300014501EE109C00CF00AC00EF010C00FF0FB
:100640000F5010E01550E56E0250E56E0150E56E5A
:100650000050E56E0EEC14F0040EE1260C4A0E2A52
:100660000F06EED70CC009F00EC00AF00FC013F051
:1006700016C00CF00DC00DF019C00EF01AC00FF02E
:1006800009C010F00AC015F00DC0E9FF0EC0F3FF5D
:100690000F50B6EC22F0166E1650D8B43ED00CC0F7
:1006A00016F0176A161E171E1650171005E00CC01C
:1006B00016F00C06165031E00DC0E9FF0EC0F3FF36
:1006C0000F50B6EC22F0116E125010E01150E56E92
:1006D000FDEC21F0166EE652165004E0DF0E111408
:1006E000166E02D011C016F016C011F01150E56E52
:1006F0000250E56E0150E56E0050E56E0EEC14F010
:10070000040EE1260D2A02E30E4A0F2A104A152A8A
:100710001350D8B4B9D71306B7D710C009F015C015
:100720000AF014502BE010C00CF015C00DF013C0EF
:100730000EF00E501FE0200EE56E0250E56E0150E7
:10074000E56E0050E56E0EEC14F0040EE1260C4A46
:100750000D2A0E06EED70B50E56E0250E56E0150E5
:10076000E56E0050E56E0EEC14F0040EE126094A29
:100770000A2A04D00CC009F00DC00AF0032A02E3D3
:10078000044A052A7FEF00F00AC0F3FF0950E4CFC6
:100790001EF0E4CF1DF0E4CF1CF0E4CF1BF0E4CF5B
:1007A0001AF0E4CF19F0E4CF18F0E4CF17F0E4CF5B
:1007B00016F0E4CF15F0E4CF14F0E4CF13F0E4CF5B
:1007C00012F0E4CF11F0E4CF10F0E4CF0FF0E4CF5B
:1007D0000EF0E4CF0DF0E4CF0CF0E4CF0BF0E4CF5B
:1007E0000AF0E4CF09F0E4CF08F0E4CF07F0E4CF5B
:1007F00006F0E4CF05F0E4CF04F0E4CF03F0E4CF5B
:1008000002F0E4CF01F0E4CF00F0E4CFD9FF120012
:100810003C4E4F20464C4F41543E000000C0E5FF87
:1008200001C0E5FF02C0E5FF03C0E5FF04C0E5FF2E
:1008300071EC23F09492B2EC1FF0F3CF01F0F4CFFF
:1008400002F0E9CF03F0880F0401336F130E01208B
:10085000346F000E0220356F000E0320366F949A1D
:100860008B8A929C898C92988988929E898EBBEC07
:1008700016F09280800E006E0F0E016E0F0E036E4A
:10088000380E002603500122800E026E0F0E036EFA
:10089000800E005E0350015A0F0E046E380E0226C1
:1008A000045003220F0E046E800E025E0450035AA1
:1008B00002C0E9FF03C0EAFFEFCF02F0028000C0F0
:1008C000E9FF01C0EAFF02C0EFFF000EE56AE56A3A
:1008D00071EC19F0E652E6529282800E006E0F0E15
:1008E000016E0F0E036E380E002603500122800E9B
:1008F000026E0F0E036E800E005E0350015A0F0E43
:10090000046E380E0226045003220F0E046E800E71
:10091000025E0450035A02C0E9FF03C0EAFFEFCFB2
:1009200002F0028200C0E9FF01C0EAFF02C0EFFF4F
:10093000010EE56EE56E71EC19F0E652E652928416
:10094000800E006E0F0E016E0F0E036E380E002625
:1009500003500122800E026E0F0E036E800E005EA9
:100960000350015A0F0E046E380E02260450032263
:100970000F0E046E800E025E0450035A02C0E9FF9F
:1009800003C0EAFFEFCF02F0028400C0E9FF01C01C
:10099000EAFF02C0EFFF020EE56EE56E71EC19F0A2
:1009A000E652E6529286800E006E0F0E016E0F0E1A
:1009B000036E380E002603500122800E026E0F0EC9
:1009C000036E800E005E0350015A0F0E046E380E47
:1009D0000226045003220F0E046E800E025E0450A5
:1009E000035A02C0E9FF03C0EAFFEFCF02F002861C
:1009F00000C0E9FF01C0EAFF02C0EFFF030EE56E91
:100A0000E56E71EC19F0E652E6529486820E006EA5
:100A10000F0E016E0F0E036E380E002603500122DA
:100A20000F0E036E800E005E0350015A820E026E9E
:100A30000F0E036E0F0E046E380E022604500322B2
:100A40000F0E046E800E025E0450035A02C0E9FFCE
:100A500003C0EAFFEFCF02F0028600C0E9FF01C049
:100A6000EAFF02C0EFFF0F0EE56E040EE56E71ECBB
:100A700019F0E652E6529484820E006E0F0E016E5B
:100A80000F0E036E380E0026035001220F0E036E68
:100A9000800E005E0350015A820E026E0F0E036E2E
:100AA0000F0E046E380E0226045003220F0E046E41
:100AB000800E025E0450035A02C0E9FF03C0EAFF41
:100AC000EFCF02F0028400C0E9FF01C0EAFF02C0DC
:100AD000EFFF0E0EE56E050EE56E71EC19F0E652B5
:100AE000E6529488820E006E0F0E016E0F0E036E9A
:100AF000380E0026035001220F0E036E800E005E9A
:100B00000350015A820E026E0F0E036E0F0E046E1A
:100B1000380E0226045003220F0E046E800E025E71
:100B20000450035A02C0E9FF03C0EAFFEFCF02F00E
:100B3000028800C0E9FF01C0EAFF02C0EFFF100E0B
:100B4000E56E060EE56E71EC19F0E652E6526AECBF
:100B50001CF0F19E938C810E006E0F0E016E0F0E35
:100B6000036E380E0026035001220F0E036E800E16
:100B7000005E0350015A810E026E0F0E036E0F0EBF
:100B8000046E380E0226045003220F0E046E800EEF
:100B9000025E0450035A02C0E9FF03C0EAFFEFCF30
:100BA00002F0029C00C0E9FF01C0EAFF02C0EFFFB3
:100BB000060EE56E800EE56E0F0EE56E810EE56E9B
:100BC000000EE56AB1EC1CF0050EE1269382810E61
:100BD000006E0F0E016E0F0E036E380E00260350CE
:100BE00001220F0E036E800E005E0350015A810E2B
:100BF000026E0F0E036E0F0E046E380E02260450A6
:100C000003220F0E046E800E025E0450035A02C0CF
:100C1000E9FF03C0EAFFEFCF02F0029200C0E9FF54
:100C200001C0EAFF02C0EFFF010EE56E800EE56E27
:100C30000F0EE56E810EE56E010EE56EB1EC1CF057
:100C4000050EE1269384810E006E0F0E016E0F0ECD
:100C5000036E380E0026035001220F0E036E800E25
:100C6000005E0350015A810E026E0F0E036E0F0ECE
:100C7000046E380E0226045003220F0E046E800EFE
:100C8000025E0450035A02C0E9FF03C0EAFFEFCF3F
:100C900002F0029400C0E9FF01C0EAFF02C0EFFFCA
:100CA000020EE56E800EE56E0F0EE56E810EE56EAE
:100CB000020EE56EB1EC1CF0050EE1269386810E66
:100CC000006E0F0E016E0F0E036E380E00260350DD
:100CD00001220F0E036E800E005E0350015A810E3A
:100CE000026E0F0E036E0F0E046E380E02260450B5
:100CF00003220F0E046E800E025E0450035A02C0DF
:100D0000E9FF03C0EAFFEFCF02F0029600C0E9FF5F
:100D100001C0EAFF02C0EFFF030EE56E800EE56E34
:100D20000F0EE56E810EE56E030EE56EB1EC1CF064
:100D3000050EE1269388810E006E0F0E016E0F0ED8
:100D4000036E380E0026035001220F0E036E800E34
:100D5000005E0350015A810E026E0F0E036E0F0EDD
:100D6000046E380E0226045003220F0E046E800E0D
:100D7000025E0450035A02C0E9FF03C0EAFFEFCF4E
:100D800002F0029800C0E9FF01C0EAFF02C0EFFFD5
:100D9000040EE56E800EE56E0F0EE56E810EE56EBB
:100DA000040EE56EB1EC1CF0050EE126938A810E6F
:100DB000006E0F0E016E0F0E036E380E00260350EC
:100DC00001220F0E036E800E005E0350015A810E49
:100DD000026E0F0E036E0F0E046E380E02260450C4
:100DE00003220F0E046E800E025E0450035A02C0EE
:100DF000E9FF03C0EAFFEFCF02F0029A00C0E9FF6B
:100E000001C0EAFF02C0EFFF050EE56E800EE56E41
:100E10000F0EE56E810EE56E050EE56EB1EC1CF071
:100E2000050EE1269380810E006E0F0E016E0F0EEF
:100E3000036E380E0026035001220F0E036E800E43
:100E4000005E0350015A810E026E0F0E036E0F0EEC
:100E5000046E380E0226045003220F0E046E800E1C
:100E6000025E0450035A02C0E9FF03C0EAFFEFCF5D
:100E700002F0029000C0E9FF01C0EAFF02C0EFFFEC
:100E8000E56A800EE56E0F0EE56E810EE56E060ECC
:100E9000E56EB1EC1CF0050EE126938E810E006E1E
:100EA0000F0E016E0F0E036E380E00260350012246
:100EB0000F0E036E800E005E0350015A810E026E0B
:100EC0000F0E036E0F0E046E380E0226045003221E
:100ED0000F0E046E800E025E0450035A02C0E9FF3A
:100EE00003C0EAFFEFCF02F0029E00C0E9FF01C09D
:100EF000EAFF02C0EFFF070EE56E800EE56E0F0EF3
:100F0000E56E810EE56E070EE56EB1EC1CF0050E88
:100F1000E126E4CF04F0E4CF03F0E4CF02F0E4CF25
:100F200001F0E4CF00F0120043002563000000C090
:100F3000E5FF01C0E5FF02C0E5FF03C0E5FF04C017
:100F4000E5FF05C0E5FF06C0E5FF07C0E5FF08C0F7
:100F5000E5FF09C0E5FF0AC0E5FF0BC0E5FF0CC0D7
:100F6000E5FF006A016A026A040E025CD8B0E8D1AB
:100F700001C003F0012A100E035CD8B0E1D10301D7
:100F80002E2B100E2E5D01E32E6B03012E39E8444B
:100F90001F0B036E046A5A0E0326030E042203C0BD
:100FA000E9FF04C0EAFFEFCF03F0070E2E15046E31
:100FB000010E056E000E066E045006E0E86CD89037
:100FC00005360636010FFCE3076A03500516075085
:100FD000061605500610D880E866D890056A0536D2
:100FE0000550D8A4C1D703012E51020DF450046E50
:100FF000F3CF03F0E00E0324056E000E0420066E0E
:1010000005C0E9FF06C0EAFFEECF05F0EFCF06F01E
:1010100003012BA19DD0930E0324076E040E042020
:10102000086E07C0E9FF08C0EAFFEECF07F0EFCF78
:1010300008F00650800FF36E0850800FF35C02E159
:101040000750055C03E2056A066A60D0B30E03260A
:10105000040E042203C0E9FF04C0EAFFEECF03F050
:10106000EFCF04F00450800FF36E0650800FF35C56
:1010700002E10550035C04E205683F0E066E46D0AF
:101080000750055C096E085006580A6EE86A0ABEE9
:10109000FF0E0B6EE56E0B50E56E0A50E56E0950C3
:1010A000E56EE56AE56A400EE56E000EE56A48EC1D
:1010B0000DF0096EF3CF0AF0F4CF0BF0E9CF0CF08E
:1010C000080EE1260750035C076E08500458086EAE
:1010D000E86A08BEFF0E036EE56E0350E56E085029
:1010E000E56E0750E56E0C50E56E0B50E56E0A504C
:1010F000E56E0950E56EF1EC12F0036EF3CF04F0EB
:10110000080EE1260350056E0450066E03012A51B5
:10111000800FF36E0650800FF35C02E10550295DED
:1011200003E3056A066A14D003012951FF08036E20
:101130003F0E2A55046E0650800FF36E0450800F48
:10114000F35C02E10350055C03E305683F0E066EA5
:1011500003012E51020DF450046EF3CF03F0590E2B
:101160000326040E042203C0E9FF04C0EAFFEECF09
:1011700003F0EFCF04F00350055C036E04500658F3
:10118000046ED88004AED89004E3041E036CD8B477
:10119000042A022A03012A51800FF36E0450800FA3
:1011A000F35C02E10350295DD8B0DED603012E5175
:1011B000020DF450086EF3CF07F0590E0726040E07
:1011C000082207C0E9FF08C0EAFF05C0EEFF06C01D
:1011D000EFFF03012BA55AD003012E51020DF4504D
:1011E000086EF3CF07F0D30E0724096E040E082013
:1011F0000A6E09C0E9FF0AC0EAFFEECF0BF0EFCF9D
:101200000CF00B500C10D8B441D0390E0726040E48
:10121000082207C0E9FF08C0EAFFEECF07F0EFCFD2
:1012200008F00750055C036E08500658046E031062
:101230001CE00450800F800F02E1010E035C076A7E
:1012400007360C50800F800F02E1010E0B5C0B6A19
:101250000B3607500B1809E109C0E9FF0AC0EAFF85
:1012600003C0EEFF04C0EFFF7FD603012E51020D35
:10127000F450046EF3CF03F0D30E0326040E0422C1
:1012800003C0E9FF04C0EAFFEE6AEF6A03012BA383
:1012900043D000500EE100C003F0002A046A2F0E74
:1012A0000326030E042203C0E9FF04C0EAFF420E36
:1012B000EF6E00C003F0002A046A2F0E0326030E0F
:1012C0000422640E03012E25076E03C0E9FF04C04B
:1012D000EAFF07C0EFFF00C003F0002A046A2F0EE8
:1012E0000326030E04220650076E03C0E9FF04C064
:1012F000EAFF07C0EFFF00C003F0002A046A2F0EC8
:101300000326030E04220550076E03C0E9FF04C044
:10131000EAFF07C0EFFF28D62EC303F00650E56EA4
:101320000550E56EE56A0350E56E000EE56E2E0E83
:10133000E56E700EE56E77EC1DF0070EE12614D613
:1013400002C001F000501DE003012BA31AD000C021
:1013500002F0002A036A2F0E0226030E032202C0A7
:10136000E9FF03C0EAFF0A0EEF6E0050E56E800E43
:10137000E56E030EE56E2F0EE56E3EEC17F0040EE3
:10138000E1260150E4CF0CF0E4CF0BF0E4CF0AF0FB
:10139000E4CF09F0E4CF08F0E4CF07F0E4CF06F0A3
:1013A000E4CF05F0E4CF04F0E4CF03F0E4CF02F0A3
:1013B000E4CF01F0E4CF00F0120000C0E5FF01C06F
:1013C000E5FF02C0E5FF03C0E5FF04C0E5FF05C07F
:1013D000E5FF06C0E5FF07C0E5FF08C0E5FF09C05F
:1013E000E5FF0AC0E5FFC2A204D003012C51F0EFD3
:1013F0000BF003012D51D8B41BD103012C51020D68
:10140000F450016EF3CF00F0E00E0026000E012232
:1014100000C0E9FF01C0EAFFEECF00F0EFCF01F01E
:10142000230E2C25026E036A040E032202C0E9FF7C
:1014300003C0EAFFEFCF02F00250FF0A01E152D0F1
:1014400002380F0B036E920E0324046E056A0F0E12
:101450000522066A920E03260F0E062203C0E9FF3C
:1014600006C0EAFFEFCF03F0070E0214066E010E6E
:10147000076E065005E0E86CD8900736010FFDE3D3
:10148000071C066E031604C0E9FF05C0EAFF03C08F
:10149000EFFF02380F0B036E890E0324046E056AFA
:1014A0000F0E0522066A890E03260F0E062203C0C0
:1014B000E9FF06C0EAFFEFCF03F0070E0214066E45
:1014C000010E076E065005E0E86CD8900736010F54
:1014D000FDE3071C066E031604C0E9FF05C0EAFF22
:1014E00003C0EFFF03012C51020DF450046EF3CF43
:1014F00003F0E00E0326000E042200380F0B056EE9
:101500000138066EF00B061A0526F00E06B6062602
:101510000550005C056E06500158066EC3CF07F0FB
:10152000086A0750052608500622C4CF07F0086A4B
:1015300007500A6E096A095005260A50062203C0A0
:10154000E9FF04C0EAFF05C0EEFF06C0EFFF03019C
:101550002851010A01E06AD003012C51020DF45018
:10156000046EF3CF03F0E00E0324056E000E04209A
:10157000066E05C0E9FF06C0EAFFEECF00F0EFCF30
:1015800001F0930E0326040E042203C0E9FF04C0F9
:10159000EAFFEECF05F0EFCF06F09C0E0526D8A0AF
:1015A00006060150800FF36E0650800FF35C02E1D7
:1015B0000550005C0EE20050640F056E000E012025
:1015C000066E03C0E9FF04C0EAFF05C0EEFF06C0D7
:1015D000EFFF03012C51020DF450046EF3CF03F022
:1015E000B30E0326040E042203C0E9FF04C0EAFF81
:1015F000EECF05F0EFCF06F0640E0526D8B0062A30
:101600000650800FF36E0150800FF35C02E1005032
:10161000055C0CE29C0E0026D8A0010603C0E9FF81
:1016200004C0EAFF00C0EEFF01C0EFFF03012D6B15
:1016300003012C2B100E2C5D01E32C6B03012C39C4
:10164000E8441F0B006E016A5A0E0026030E0122A9
:1016500000C0E9FF01C0EAFFEFCF00F0070E2C1534
:10166000016E010E036E000E046E015006E0E86C80
:10167000D89003360436010FFCE3056A00500316C8
:101680000550041603500410D880E866D890036A09
:1016900003360350D8A4A2D0230E03012C25006EDC
:1016A000016A0F0E012200C0E9FF01C0EAFFEFCF7F
:1016B00000F00044E844FC0B016E0128C26E230ECA
:1016C0002C25006E016A040E012200C0E9FF01C052
:1016D000EAFFEFCF02F00250FF0A01E17BD00238AF
:1016E0000F0B006E920E0024016E036A0F0E032290
:1016F000046A920E00260F0E042200C0E9FF04C007
:10170000EAFFEFCF00F0070E0214046E010E056E23
:10171000045005E0E86CD8900536010FFDE3055054
:10172000001201C0E9FF03C0EAFF00C0EFFF380E5E
:10173000006E0F0E016E02380F0B036E046A035029
:10174000002604500122380E056E0F0E066E05505D
:1017500003260650042203C0E9FF04C0EAFFEFCFCE
:1017600003F0070E0216010E046E025005E0E86C4D
:10177000D8900436010FFDE30450031200C0E9FFC6
:1017800001C0EAFF03C0EFFF0F0145830000000026
:1017900045930F0144930BC0E5FFF2CF0BF0F29E8F
:1017A0004481000000000000000000000000000074
:1017B0000000000000000000000000000000000029
:1017C0000000000000000000000044910BBEF28EFB
:1017D000E4CF0BF0C282010E03012D6F03012C51E7
:1017E000E4CF0AF0E4CF09F0E4CF08F0E4CF07F04B
:1017F000E4CF06F0E4CF05F0E4CF04F0E4CF03F04B
:10180000E4CF02F0E4CF01F0E4CF00F01200800E4C
:10181000E56E040EE56EB30EE56E37EC1BF0030EBD
:10182000E126800EE56E040EE56E930EE56E37EC54
:101830001BF0030EE126800EE56E040EE56EB50E7C
:10184000E56E37EC1BF0030EE126800EE56E040E0C
:10185000E56E950EE56E37EC1BF0030EE126800E6B
:10186000E56E040EE56EB70EE56E37EC1BF0030E69
:10187000E126800EE56E040EE56E970EE56E37EC00
:101880001BF0030EE126800EE56E040EE56EB90E28
:10189000E56E37EC1BF0030EE126800EE56E040EBC
:1018A000E56E990EE56E37EC1BF0030EE126800E17
:1018B000E56E040EE56EBB0EE56E37EC1BF0030E15
:1018C000E126800EE56E040EE56E9B0EE56E37ECAC
:1018D0001BF0030EE126800EE56E040EE56EBD0ED4
:1018E000E56E37EC1BF0030EE126800EE56E040E6C
:1018F000E56E9D0EE56E37EC1BF0030EE126800EC3
:10190000E56E040EE56EBF0EE56E37EC1BF0030EC0
:10191000E126800EE56E040EE56E9F0EE56E37EC57
:101920001BF0030EE126800EE56E040EE56EC10E7F
:10193000E56E37EC1BF0030EE126800EE56E040E1B
:10194000E56EA10EE56E37EC1BF0030EE126800E6E
:10195000E56E040EE56EC30EE56E37EC1BF0030E6C
:10196000E126800EE56E040EE56EA30EE56E37EC03
:101970001BF0030EE126800EE56E040EE56EC50E2B
:10198000E56E37EC1BF0030EE126800EE56E040ECB
:10199000E56EA50EE56E37EC1BF0030EE126800E1A
:1019A000E56E040EE56EC70EE56E37EC1BF0030E18
:1019B000E126800EE56E040EE56EA70EE56E37ECAF
:1019C0001BF0030EE126800EE56E040EE56EC90ED7
:1019D000E56E37EC1BF0030EE126800EE56E040E7B
:1019E000E56EA90EE56E37EC1BF0030EE126800EC6
:1019F000E56E040EE56ECB0EE56E37EC1BF0030EC4
:101A0000E126800EE56E040EE56EAB0EE56E37EC5A
:101A10001BF0030EE126800EE56E040EE56ECD0E82
:101A2000E56E37EC1BF0030EE126800EE56E040E2A
:101A3000E56EAD0EE56E37EC1BF0030EE126800E71
:101A4000E56E040EE56ECF0EE56E37EC1BF0030E6F
:101A5000E126800EE56E040EE56EAF0EE56E37EC06
:101A60001BF0030EE126800EE56E040EE56ED10E2E
:101A7000E56E37EC1BF0030EE126800EE56E040EDA
:101A8000E56EB10EE56E37EC1BF0030EE126120099
:101A9000D9CFE5FFE1CFD9FF00C0E5FF01C0E5FFE9
:101AA00002C0E5FF03C0E5FF04C0E5FF05C0E5FF98
:101AB00006C0E5FF07C0E5FF020EDBCF00F0030E16
:101AC000DBCF01F0040EDBCF02F0050EDBCF03F01D
:101AD000060EDBCF04F0070EDBCF05F0080EDBCFE0
:101AE00006F0090EDBCF07F000500401816F0150B2
:101AF000826F0250836F0350846F04500401856F1E
:101B00000550866F0650876F0750886F040181511A
:101B100004018703F4CF01F0F3CF00F0005004017B
:101B20008C6F01508D6F0401815104018503F4CF46
:101B300001F0F3CF00F0005004018A6F01508B6F69
:101B40000401845104018503F3CF00F004018D5199
:101B5000002600508D6F0401835104018603F3CFEA
:101B600001F001500026005004018D6F04018351E3
:101B700004018503F4CF01F0F3CF00F004018C5190
:101B800000268D51012200508C6F01508D6F040191
:101B9000825104018603F4CF03F0F3CF02F0025028
:101BA000002603500122005004018C6F01508D6FFC
:101BB0000401825104018703F3CF00F000500401B7
:101BC000916F0401825104018503F4CF01F0F3CF3A
:101BD00000F0005004018F6F0150906F040181519B
:101BE00004018803F3CF00F000500301516F04019A
:101BF000815104018603F4CF01F0F3CF00F00050CF
:101C000003014F6F0150506F04018E6B03014E6B47
:101C100004018E5104018A25006E04018F510401D4
:101C20008B21016E0401905104018C21026E04018C
:101C3000915104018D21036E00508A6F01508B6F0A
:101C400002508C6F03508D6F03014E5104018A25A1
:101C5000006E03014F5104018B21016E03015051AD
:101C600004018C21026E0301515104018D21036E88
:101C700003C0E9FF02C0F4FF01C0F3FF0050E4CF4E
:101C800007F0E4CF06F0E4CF05F0E4CF04F0E4CFB2
:101C900003F0E4CF02F0E4CF01F0E4CF00F0E4CFB2
:101CA000D9FF120000C0E5FF01C0E5FF0301255187
:101CB000D8B4F5D09DA81DD09EA81BD003016951B2
:101CC0000301661905E1F3EC22F00301666BE7D02E
:101CD000000E03016925006E016A040E012200C096
:101CE000E9FF01C0EAFFEFCF62F3692B62C3ADFFEA
:101CF000D6D09EAAD4D0ABA205D003016781F3EC65
:101D000022F0CDD0ABA405D003016783F3EC22F021
:101D1000C6D0ABA03ED0AECF62F3800E0301261139
:101D20000301621904E103016789AB96B8D003018E
:101D3000625104E062510301261927E1030167990A
:101D4000AB960301625103E00301679702D00301E0
:101D5000678762C36BF364C36CF30301640503011B
:101D60006D6F600E03016C25006E016A000E01228A
:101D700000C0E9FF01C0EAFF62C3EFFF6C2B6C51AA
:101D8000800A02E103016C6B8AD003016799AB867C
:101D900086D0AECF62F3030167A919D0800E03018C
:101DA00026110301621911E194909D9AAB980301E9
:101DB000665104E1AD6AF3EC22F007D000C4ADFF38
:101DC000010E0301696F9D886AD0AB8668D003015C
:101DD000625103016B2703016C5103016D191BE173
:101DE00003016B510CE16CC364F3030167B712D0BC
:101DF00094909D9AAB98AD6AF3EC22F00BD003015E
:101E0000678567B707D094909D9AAB98010EAD6E29
:101E1000F3EC22F044D003016C510301651908E191
:101E2000030165510301641903E0F3EC22F037D09C
:101E300064C300F0016A004A012AE56A800EE56E7B
:101E40000150E56E0050E56E30EC18F0006E040EA7
:101E5000E12600500301636F03016C190CE11F0EB2
:101E60000301621503016D6F6D2B6D2B030164512E
:101E700003016D276D9F6CC300F003016C2B016A99
:101E8000600E0026000E012200C0E9FF01C0EAFF3B
:101E900062C3EFFF6C51800A02E103016C6BE4CF77
:101EA00001F0E4CF00F0120000C0E5FF01C0E5FF43
:101EB00002C0E5FF03C0E5FF04C0E5FF05C0E5FF84
:101EC00006C0E5FF07C0E5FF08C0E5FF09C0E5FF64
:101ED0000AC0E5FF006A016A040E015CD8B0B3D005
:101EE0003E0E03013C25026E036A030E032202C06C
:101EF000E9FF03C0EAFFEFCF02F00250FF0A01E161
:101F00009BD003013C39E8441F0B026E5E0E022495
:101F1000036E046A030E042203C0E9FF04C0EAFF53
:101F2000EFCF03F0070E3C15046E010E056E000E98
:101F3000066E045006E0E86CD89005360636010FB0
:101F4000FCE3076A055003160650071603500710F6
:101F5000D880E866D890036A03360350D880E866D4
:101F6000D890036A0336076A5C0E0226030E072226
:101F700002C0E9FF07C0EAFFEFCF08F008C009F090
:101F80000A6A095005160A50061605500610D88030
:101F9000E866D890056A05360550D880E866D8907E
:101FA000056A05360350051801E146D0035012E0DA
:101FB000010E056E045005E0E86CD8900536010F5F
:101FC000FDE30550081202C0E9FF07C0EAFF08C0A0
:101FD000EFFF17D002C0E9FF07C0EAFFEFCF05F01F
:101FE000010E066E045005E0E86CD8900636010F2D
:101FF000FDE3061C051602C0E9FF07C0EAFF05C0A5
:10200000EFFF035003E1036A032A01D0036A3CC3D4
:1020100004F0E56A0350E56EE56A0450E56E000ED3
:10202000E56E390EE56E560EE56E77EC1DF0070E87
:10203000E126012A01C000F003013C2B100E3C5D9B
:10204000D8A04AD73C6B0050E4CF0AF0E4CF09F0A7
:10205000E4CF08F0E4CF07F0E4CF06F0E4CF05F0DA
:10206000E4CF04F0E4CF03F0E4CF02F0E4CF01F0DA
:10207000E4CF00F01200D9CFE5FFE1CFD9FF00C0D7
:10208000E5FF01C0E5FF02C0E5FF03C0E5FF04C0B6
:10209000E5FF05C0E5FF06C0E5FF07C0E5FF08C096
:1020A000E5FF09C0E5FF0AC0E5FF0BC0E5FF0CC076
:1020B000E5FF0DC0E5FF0EC0E5FF0FC0E5FF020E16
:1020C000DBCF00F0030EDBCF01F0040EDBCF02F01C
:1020D000050EDBCF03F0060EDBCF04F0070EDBCFDF
:1020E00005F0080EDBCF06F0200E076E086A06C06A
:1020F00009F00A6A0B6A0C6AE56AE56AE56A095042
:10210000E56E0350E56E0250E56E0150E56E00503D
:10211000E56E54EC12F00D6E080EE126300E0D2621
:102120003A0E0D5C05E30D500E6E270E0E240D6E5B
:10213000FF0E07260822000E07240E6E030E08204D
:102140000F6E0EC0E9FF0FC0EAFF0DC0EFFF0C508D
:10215000E56E0B50E56E0A50E56E0950E56E0350D2
:10216000E56E0250E56E0150E56E0050E56EF1EC53
:1021700012F0006EF3CF01F0F4CF02F0E9CF03F0DC
:10218000080EE1260050011002100310D8A4AFD7AA
:1021900007C000F008C001F004C002F005C003F061
:1021A00000C004F001C005F0004A012A000E042618
:1021B000030E052204C0E9FF05C0EAFFEFCF04F0DB
:1021C00002C0E9FF03C0EAFF04C0EFFF024A032A8E
:1021D000000E015C02E1200E005CE2E302C0E9FFB8
:1021E00003C0EAFF000EEF6AE4CF0FF0E4CF0EF079
:1021F000E4CF0DF0E4CF0CF0E4CF0BF0E4CF0AF025
:10220000E4CF09F0E4CF08F0E4CF07F0E4CF06F024
:10221000E4CF05F0E4CF04F0E4CF03F0E4CF02F024
:10222000E4CF01F0E4CF00F0E4CFD9FF120000C00A
:10223000E5FF01C0E5FF02C0E5FF03C0E5FF04C004
:10224000E5FF05C0E5FF006A3E0E0024016E026A4C
:10225000030E022201C0E9FF02C0EAFFEFCF01F046
:102260000150FF0A01E171D001380F0B026E036AC1
:10227000800E02260F0E032202C0E9FF03C0EAFF10
:10228000EFCF02F0070E0116010E036E000E046E72
:10229000015006E0E86CD89003360436010FFCE3E9
:1022A000056A025003160550041603500410D88026
:1022B000E866D890036A0336035024E10038E84406
:1022C0001F0B016E026A5E0E0126030E022201C080
:1022D000E9FF02C0EAFFEFCF03F0070E0014046E1F
:1022E000010E056E045005E0E86CD8900536010F2C
:1022F000FDE30550031201C0E9FF02C0EAFF03C07D
:10230000EFFF23D00038E8441F0B016E026A5E0E17
:102310000126030E022201C0E9FF02C0EAFFEFCF4F
:1023200003F0070E0014046E010E056E045005E064
:10233000E86CD8900536010FFDE3051C031601C0BB
:10234000E9FF02C0EAFF03C0EFFF002A100E005CA5
:10235000D8A07AD7E4CF05F0E4CF04F0E4CF03F0BF
:10236000E4CF02F0E4CF01F0E4CF00F0120000C0AF
:10237000E5FF01C0E5FF02C0E5FFDCEC1FF0006EE9
:102380004C0A08E1DCEC1FF0300A02E08B8285D0B9
:102390008B9283D000506C0A01E058D0DCEC1FF027
:1023A000006EDCEC1FF0016E0050300A11E1026A91
:1023B0000150300A01E1022A0250D880E866D89024
:1023C000026A0236025002E18B8A67D08B9A65D08E
:1023D0000050310A11E1026A0150300A01E1022A7B
:1023E0000250D880E866D890026A0236025002E1B4
:1023F000898C53D0899C51D00050320A11E1026A75
:102400000150300A01E1022A0250D880E866D890D3
:10241000026A0236025002E189883FD089983DD095
:102420000050330A3AE10150300A03E1016A012AFF
:1024300001D0016A0150D880E866D890016A01365F
:10244000015002E1898E29D0899E27D00050450A8B
:1024500024E1000EE56E0F0EE56E280EE56E77ECBA
:102460001DF0030EE12680EC23F0006E00C001F0A9
:10247000000601500FE0DCEC1FF0E56AE56E000E8F
:10248000E56E0F0EE56E2A0EE56E77EC1DF0050E7B
:10249000E126ECD70A0E50EC1FF0E4CF02F0E4CFB7
:1024A00001F0E4CF00F01200D9CFE5FFE1CFD9FF72
:1024B00000C0E5FF01C0E5FF02C0E5FF03C0E5FF86
:1024C00004C0E5FF05C0E5FF06C0E5FF07C0E5FF66
:1024D00008C0E5FF09C0E5FF0AC0E5FF020EDBCF3B
:1024E00000F0030EDBCF01F0040EDBCF02F0050E8F
:1024F000DBCF03F0060EDBCF04F0070EDBCF05F0D9
:10250000080EDBCF06F0090EDBCF07F0086A045097
:1025100005100610071005E1E968F468F368E8683B
:1025200047D0096A0750800BE8440A6E0A501BE145
:10253000045004260536063607360750035C08E1CA
:102540000650025C05E10550015C02E10450005CAC
:1025500006E2D890073206320532043204D0092A46
:1025600009C008F0DFD70750035C08E10650025CA1
:1025700005E10550015C02E10450005C08E30450F1
:10258000005E0550015A0650025A0750035AD8906F
:10259000073206320532043208C009F00806095035
:1025A000E2E103C0E9FF02C0F4FF01C0F3FF005005
:1025B000E4CF0AF0E4CF09F0E4CF08F0E4CF07F06D
:1025C000E4CF06F0E4CF05F0E4CF04F0E4CF03F06D
:1025D000E4CF02F0E4CF01F0E4CF00F0E4CFD9FF84
:1025E0001200D9CFE5FFE1CFD9FF00C0E5FF01C060
:1025F000E5FF02C0E5FF03C0E5FF04C0E5FF05C03D
:10260000E5FF06C0E5FF07C0E5FF08C0E5FF09C01C
:10261000E5FF0AC0E5FF0BC0E5FF0CC0E5FF0DC0FC
:10262000E5FF020EDBCF00F0030EDBCF01F0040E5E
:10263000DBCF02F0050EDBCF03F0060EDBCF04F09C
:10264000070EDBCF05F0080EDBCF06F0090EDBCF5F
:1026500007F0086A096A0A6A0B6A200E0C6E0350BA
:10266000800BE8440D6E005000260136023603361A
:102670000850082609360A360B360D50D8A40880B3
:1026800007500B5C08E106500A5C05E10550095C47
:1026900002E10450085C09E30450085E0550095A41
:1026A00006500A5A07500B5A00800C040D6E0DC0DC
:1026B0000CF00D50D4E103C0E9FF02C0F4FF01C0EB
:1026C000F3FF0050E4CF0DF0E4CF0CF0E4CF0BF0BB
:1026D000E4CF0AF0E4CF09F0E4CF08F0E4CF07F04C
:1026E000E4CF06F0E4CF05F0E4CF04F0E4CF03F04C
:1026F000E4CF02F0E4CF01F0E4CF00F0E4CFD9FF63
:10270000120000C0E5FF01C0E5FF03C0E5FF04C003
:10271000E5FF05C0E5FF06C0E5FF07C0E5FF08C00F
:10272000E5FF09C0E5FF0AC0E5FF0BC0E5FF58C3A0
:1027300000F059C301F00301583F01D0592B00505C
:10274000E56EE5EC22F0E652076E046A056A066A59
:1027500058C300F059C301F00301583F01D0592B71
:102760000050E56EE5EC22F0E6520B6A0A6E086A4C
:102770000850041205120A5006120B50071258C3D3
:1027800000F059C301F00301583F01D0592B00500C
:10279000E56EE5EC22F0E652036E006A03C001F03C
:1027A000E86A03BEFF0E086E096E00500412015065
:1027B0000512085006120950071258C300F059C3F9
:1027C00001F00301583F01D0592B0050E56EE5ECB4
:1027D00022F0E652016A0412015005120612071295
:1027E00007C0E9FF06C0F4FF05C0F3FF0450E4CFC3
:1027F0000BF0E4CF0AF0E4CF09F0E4CF08F0E4CF27
:1028000007F0E4CF06F0E4CF05F0E4CF04F0E4CF26
:1028100003F0E4CF01F0E4CF00F01200D9CFE5FFE0
:10282000E1CFD9FF00C0E5FF01C0E5FF02C0E5FF31
:1028300003C0E5FF04C0E5FF05C0E5FF06C0E5FFF6
:1028400007C0E5FF020EDBCF00F0030EDBCF01F087
:10285000040EDBCF02F0050EDBCF03F002C006F062
:102860000650046E800A33E100C0E9FF01C0F3FFA7
:10287000025081EC21F0056EF3CF06F0F4CF07F0A3
:1028800003C0E5FF05C0E9FF06C0F3FF07503DECBC
:1028900023F000C0E9FF01C0F3FF025081EC21F0FA
:1028A000056EF3CF06F0F4CF07F0052A02E3064ADF
:1028B000072A05C0E5FF06C0F4FF07C0F6FF00C009
:1028C000E9FF01C0F3FF0250D6EC22F020D004C093
:1028D00000F000AA1CD0007A0050046E04E10350FE
:1028E00076EC23F014D00450010A04E1035002EC0A
:1028F00000F00DD004500F0A04E1035050EC1FF01B
:1029000006D004500E0A03E1035086EC23F0E4CF16
:1029100007F0E4CF06F0E4CF05F0E4CF04F0E4CF15
:1029200003F0E4CF02F0E4CF01F0E4CF00F0E4CF15
:10293000D9FF120000C0E5FF01C0E5FF02C0E5FFBE
:1029400003C0E5FF04C0E5FF0301655103016419FD
:1029500001E15CD065C300F0002A009E600E0024F7
:10296000016E026A000E022201C0E9FF02C0EAFF06
:10297000EFCF6FF31F0E03016F1765C36EF36F5137
:1029800003016E276E2B6E2B6E9FDCEC1FF0016E29
:10299000015003E1016A012A01D0016ADCEC1FF059
:1029A00003016F6F800E6F15026E1F0E6F15036EA1
:1029B00003C004F003C06FF3045003E164C365F384
:1029C00038D001501BE002501FE0DCEC1FF0006E1D
:1029D00003016F070050420A17E000504E0A03E15E
:1029E000F5EC1CF011D00050460A03E127EC23F06F
:1029F0000BD00050490A08E1FF0006D065C370F310
:102A00000250D8A4B7EC11F06EC365F30301225154
:102A10000301231906E00301665103E1AEEC15F052
:102A200008D094B006D00301665103E1ACB2F3ECD8
:102A300022F0E4CF04F0E4CF03F0E4CF02F0E4CFDF
:102A400001F0E4CF00F01200D9CFE5FFE1CFD9FFCC
:102A500000C0E5FF01C0E5FF02C0E5FF03C0E5FFE0
:102A600004C0E5FF05C0E5FF06C0E5FF07C0E5FFC0
:102A700008C0E5FF09C0E5FF0AC0E5FF020EDBCF95
:102A800000F0030EDBCF01F0040EDBCF02F0050EE9
:102A9000DBCF03F0060EDBCF04F0070EDBCF05F033
:102AA0000038E8441F0B066E076A5A0E0626030E0E
:102AB000072206C0E9FF07C0EAFFEFCF08F0070EC4
:102AC0000014096E010E0A6E095005E0E86CD890FA
:102AD0000A36010FFDE30A50081206C0E9FF07C0DD
:102AE000EAFF08C0EFFF230E0024066E076A0F0EF0
:102AF000072206C0E9FF07C0EAFF01C0EFFF016A35
:102B0000230E0026040E0122800E025E070E02161E
:102B10000238F00B036E070E05160550032600C0A1
:102B2000E9FF01C0EAFF03C0EFFFE4CF0AF0E4CF02
:102B300009F0E4CF08F0E4CF07F0E4CF06F0E4CFEB
:102B400005F0E4CF04F0E4CF03F0E4CF02F0E4CFEB
:102B500001F0E4CF00F0E4CFD9FF120000C0E5FFA0
:102B600001C0E5FF02C0E5FF03C0E5FFACA276D0DF
:102B70000AEC21F0006E005005E10301236B030114
:102B8000226B6CD023C301F0005001260AEC21F027
:102B9000026E00060250230A1FE1010E005CD8A05D
:102BA0005BD00AEC21F0026E690A03E181EC1FF0B0
:102BB00053D00250720A03E1F3EC22F04DD00250E0
:102BC000730A01E049D09480AB869D8A9D98AE50EF
:102BD000AE50AB98AB8840D00250430A05E002509B
:102BE000420A01E039D001D0008E00C068F30050E5
:102BF0000401006F010E0301696F030123510118E5
:102C000014E00AEC21F0026E03016827000E0301B4
:102C10006925006E036A040E032200C0E9FF03C0A9
:102C2000EAFF02C0EFFF692BE8D7000E0301692518
:102C3000006E026A040E02220301681D036E032A5D
:102C400000C0E9FF02C0EAFF03C0EFFF0301692BE8
:102C500069C366F30301606B01C023F3E4CF03F0A3
:102C6000E4CF02F0E4CF01F0E4CF00F01200D9CFBE
:102C7000E5FFE1CFD9FF00C0E5FF01C0E5FF02C0DD
:102C8000E5FF03C0E5FF04C0E5FF05C0E5FF06C0A2
:102C9000E5FF020EDBCF00F0030EDBCF01F0040EE8
:102CA000DBCF02F0050EDBCF03F003C004F0056AB2
:102CB0000350D8B44FD000C0E9FF01C0F3FF025069
:102CC000B6EC22F0066E430A03E1010E056E038E98
:102CD0000406002A02E3014A022A94909D9AAB98C6
:102CE0009D989EA8FED7AC80AD6A00009EA8FED736
:102CF000AC9003C0ADFF00009EA8FED7055004E0D5
:102D0000420EAD6E032604D0620EAD6E620E032637
:102D1000045015E000009EA8FED700C0E9FF01C0E6
:102D2000F3FF0250B6EC22F0056E05C0ADFF055072
:102D300003260406002A02E3014A022AE9D700001A
:102D40009EA8FED7031CAD6EAD2A00009EA8FED73C
:102D5000F3EC22F0E4CF06F0E4CF05F0E4CF04F08A
:102D6000E4CF03F0E4CF02F0E4CF01F0E4CF00F0D1
:102D7000E4CFD9FF120000C0E5FF01C0E5FF02C0AB
:102D8000E5FF03C0E5FF04C0E5FF006A5A0E00241A
:102D9000016E026A030E022201C0E9FF02C0EAFFCF
:102DA000EF6A002A020E005CF1E3006A0050020D97
:102DB000F450026EF3CF01F0E00E0124036E000E1A
:102DC0000220046E03C0E9FF04C0EAFFEE6AEF6A66
:102DD000390E0124036E040E0220046E03C0E9FFC5
:102DE00004C0EAFFEE6AEF6A590E0124036E040E76
:102DF0000220046E03C0E9FF04C0EAFFEE6AEF6A36
:102E0000930E0124036E040E0220046E03C0E9FF3A
:102E100004C0EAFFEE6AEF6AB30E0126040E022236
:102E200001C0E9FF02C0EAFFEE687F0EEF6E230EDD
:102E30000024016E026A040E022201C0E9FF02C0F2
:102E4000EAFFEF68002A100E005CD8A0AFD7AF0EE3
:102E5000C06EC16A010EC26EC282E4CF04F0E4CF3C
:102E600003F0E4CF02F0E4CF01F0E4CF00F0120071
:102E70004320412025642025640A0000D9CFE5FFC6
:102E8000E1CFD9FF00C0E5FF01C0E5FF02C0E5FFCB
:102E900003C0E5FF04C0E5FF05C0E5FF06C0E5FF90
:102EA00007C0E5FF020EDBCF00F0030EDBCF01F021
:102EB000040EDBCF02F0050EDBCF03F023C324F3B7
:102EC000030122510301245F240703C004F0056AB3
:102ED000030E0426D8B0052A24C306F0076A07505B
:102EE000800FF36E0550800FF35C02E10450065C26
:102EF00002E2E8682BD0020E035C02E2E86A26D008
:102F000003060350E56E33EC1EF0E652046A0350EC
:102F1000045C14E204500024056EE86A0120066E89
:102F2000E86A022005C0E9FF06C0F3FFB6EC22F014
:102F3000042AE56E33EC1EF0E652E9D723C324F3EE
:102F4000030122510301245F2407E86AE4CF07F05C
:102F5000E4CF06F0E4CF05F0E4CF04F0E4CF03F0D3
:102F6000E4CF02F0E4CF01F0E4CF00F0E4CFD9FFEA
:102F70001200D9CFE5FFE1CFD9FF00C0E5FF01C0C6
:102F8000E5FF02C0E5FF03C0E5FF04C0E5FF05C0A3
:102F9000E5FF020EDBCF00F0030EDBCF01F0040EE5
:102FA000DBCF02F00050020DF450036EF3CF00F0BF
:102FB000390E0024046E040E0320056E04C0E9FFE0
:102FC00005C0EAFF01C0EEFF02C0EFFF590E00246A
:102FD000046E040E0320056E04C0E9FF05C0EAFF7D
:102FE000EECF04F0EFCF05F00150045C016E02500B
:102FF0000558026ED30E0026040E032200C0E9FF1E
:1030000003C0EAFF01C0EEFF02C0EFFFD88002AEAE
:10301000D89004E3021E016CD8B4022A0250800F3B
:10302000800F02E1030E015C02E2016A026A0150B4
:10303000021007E100C0E9FF03C0EAFF000EEE6ADC
:10304000EF6AE4CF05F0E4CF04F0E4CF03F0E4CF7F
:1030500002F0E4CF01F0E4CF00F0E4CFD9FF12009A
:10306000D9CFE5FFE1CFD9FF00C0E5FF01C0E5FF03
:1030700002C0E5FF03C0E5FF04C0E5FF05C0E5FFB2
:1030800006C0E5FF020EDBCF00F0030EDBCF01F040
:10309000040EDBCF02F0050EDBCF03F0D88001AECB
:1030A000D890046A0436045007E0011C066E001C28
:1030B000056E054A062A04D000C005F001C006F0DE
:1030C000D88003AED89007E3031C016E021C006E8B
:1030D000004A012A04D002C000F003C001F00150F0
:1030E000E56E0050E56E0650E56E0550E56E37EC76
:1030F0001AF0006EF3CF01F0040EE12604500AE04E
:10310000011C036E001C026E024A032A03C0F3FF77
:10311000025003D001C0F3FF0050E4CF06F0E4CF2B
:1031200005F0E4CF04F0E4CF03F0E4CF02F0E4CF05
:1031300001F0E4CF00F0E4CFD9FF1200D9CFE5FFD2
:10314000E1CFD9FF00C0E5FF01C0E5FF02C0E5FF08
:1031500003C0E5FF04C0E5FF05C0E5FF020EDBCFBD
:1031600000F0030EDBCF01F0040EDBCF02F0050E02
:10317000DBCF03F058C304F059C305F00301583FF7
:1031800001D0592B0350E56E0450E56EC6EC20F0DB
:10319000E652E65258C304F059C305F00301583F04
:1031A00001D0592B0250056EE56E0450E56EC6EC59
:1031B00020F0E652E65258C304F059C305F003016B
:1031C000583F01D0592B0150056EE56E0450E56E55
:1031D000C6EC20F0E652E65258C304F059C305F09D
:1031E0000301583F01D0592B0050E56E0450E56EA5
:1031F000C6EC20F0E652E652E4CF05F0E4CF04F04E
:10320000E4CF03F0E4CF02F0E4CF01F0E4CF00F02C
:10321000E4CFD9FF1200D9CFE5FFE1CFD9FF00C03D
:10322000E5FF01C0E5FF02C0E5FF03C0E5FF04C004
:10323000E5FF05C0E5FF06C0E5FF020EDBCF00F0AD
:10324000030EDBCF01F0040EDBCF02F00401375197
:1032500019E181EC13F0036EF3CF04F0F4CF05F025
:10326000E9CF06F003C0E5FF04C0F4FF05C0F6FF98
:1032700006C0F7FF00C0E9FF01C0F3FF0250A5EC54
:1032800022F01ED004013751010A1AE100C0E9FF03
:1032900001C0F3FF0250EAEC20F0006EF3CF01F022
:1032A000F4CF02F0E9CF03F00350E56E0250E56E73
:1032B0000150E56E0050E56E9EEC18F0040EE1261C
:1032C000E4CF06F0E4CF05F0E4CF04F0E4CF03F060
:1032D000E4CF02F0E4CF01F0E4CF00F0E4CFD9FF77
:1032E0001200D9CFE5FFE1CFD9FF00C0E5FF01C053
:1032F000E5FF02C0E5FF03C0E5FF04C0E5FF05C030
:10330000E5FF06C0E5FF020EDBCF00F0030EDBCFCA
:1033100001F00038E8441F0B026E036A5A0E0226C1
:10332000030E032202C0E9FF03C0EAFFEFCF04F05F
:10333000070E0014056E010E066E055005E0E86CE0
:10334000D8900636010FFDE30650041202C0E9FFD3
:1033500003C0EAFF04C0EFFF230E0024026E036ADD
:103360000F0E032202C0E9FF03C0EAFF01C0EFFF16
:10337000016A230E0026040E012200C0E9FF01C0ED
:10338000EAFFFF0EEF68E4CF06F0E4CF05F0E4CFEC
:1033900004F0E4CF03F0E4CF02F0E4CF01F0E4CF97
:1033A00000F0E4CFD9FF1200D9CFE5FFE1CFD9FF7C
:1033B00000C0E5FF01C0E5FF02C0E5FF03C0E5FF77
:1033C00004C0E5FF05C0E5FF06C0E5FF020EDBCF48
:1033D00000F0030EDBCF01F0040EDBCF02F0050E90
:1033E000DBCF03F0060EDBCF04F0070EDBCF05F0DA
:1033F000080EDBCF06F0D88003AED89015E3065058
:103400000A0A12E104C0E9FF05C0EAFF2D0EEF6EC3
:10341000044A052A031E021E011E006C05E1012A52
:1034200003E1022AD8B4032A0650E56E0550E56E82
:103430000450E56E0350E56E0250E56E0150E56EF6
:103440000050E56E3BEC10F0070EE126E4CF06F0ED
:10345000E4CF05F0E4CF04F0E4CF03F0E4CF02F0D2
:10346000E4CF01F0E4CF00F0E4CFD9FF1200D9CFD0
:10347000E5FFE1CFD9FF00C0E5FF01C0E5FF02C0D5
:10348000E5FF03C0E5FF04C0E5FF05C0E5FF06C09A
:10349000E5FF020EDBCF00F0030EDBCF01F0040EE0
:1034A000DBCF02F0050EDBCF03F0046A056A0350A0
:1034B000800BE844066E065011E1025002260336E6
:1034C0000350015C02E10250005C04E2D890033238
:1034D000023204D0052A05C004F0E9D70350015C8C
:1034E00002E10250005C04E30250005E0350015A06
:1034F000D8900332023204C005F004060550EEE114
:1035000001C0F3FF0050E4CF06F0E4CF05F0E4CFB4
:1035100004F0E4CF03F0E4CF02F0E4CF01F0E4CF15
:1035200000F0E4CFD9FF120000C0E5FF01C0E5FFC5
:1035300002C0E5FF03C0E5FF65C300F0016A70C388
:1035400002F0036A0250005E0350015AE56A800EE1
:10355000E56E0150E56E0050E56E30EC18F0006E3F
:10356000040EE126000670C301F0430E50EC1FF07C
:10357000200E50EC1FF0005020E0600E0124026E7F
:10358000036A000E032202C0E9FF03C0EAFFEFCF87
:1035900002F0E56A0250E56E000EE56E450EE56E3E
:1035A000FE0EE56E77EC1DF0050EE126012A0150B6
:1035B000800A01E1016A0006DED7E4CF03F0E4CF20
:1035C00002F0E4CF01F0E4CF00F0120000C0E5FF0C
:1035D00001C0E5FF02C0E5FF03C0E5FF9AEC14F06F
:1035E000DDEC09F017EC11F0B2EC1FF0006EF3CF38
:1035F00001F0F4CF02F0E9CF03F004013351005E93
:103600003451015A3551025A3651035A039E3F0E26
:10361000035C08E1FF0E025C05E1FF0E015C02E1C4
:10362000FF0E005C1BE2B2EC1FF0F3CF01F0F4CF11
:1036300002F0E9CF03F0880F0401336F130E01206D
:10364000346F000E0220356F000E0320366F54ECED
:103650000FF0006E0050D8B497EC07F0E4CF03F001
:10366000E4CF02F0E4CF01F0E4CF00F01200D9CFB4
:10367000E5FFE1CFD9FF00C0E5FF01C0E5FF02C0D3
:10368000E5FF03C0E5FF04C0E5FF020EDBCF00F05D
:10369000030EDBCF01F0040EDBCF02F00401375143
:1036A00011E11CEC1FF0036EF3CF04F003C0E5FF43
:1036B00004C0F4FF00C0E9FF01C0F3FF02500FECAB
:1036C00023F016D004013751010A12E100C0E9FFCE
:1036D00001C0F3FF025040EC22F0006EF3CF01F086
:1036E0000150E56E0050E56EF6EC1DF0E652E65234
:1036F000E4CF04F0E4CF03F0E4CF02F0E4CF01F034
:10370000E4CF00F0E4CFD9FF1200D9CFE5FFE1CF3D
:10371000D9FF00C0E5FF01C0E5FF02C0E5FF03C01F
:10372000E5FF04C0E5FF020EDBCF00F00038E844FF
:103730001F0B016E026A5E0E0126030E022201C0FB
:10374000E9FF02C0EAFFEFCF01F0070E0016010EFD
:10375000026E000E036E005006E0E86CD890023650
:103760000336010FFCE3046A0150021604500316ED
:1037700002500310D880E866D890026A02360250E0
:10378000D880E866D890026A02360250E4CF04F08E
:10379000E4CF03F0E4CF02F0E4CF01F0E4CF00F097
:1037A000E4CFD9FF1200D40EF66E460EF76E000E6F
:1037B000F86E0900F550056E0900F550066E04E13B
:1037C000056702D020EF1CF00900F550006E0900DB
:1037D000F550016E0900F550026E09000900F55020
:1037E000E96E0900F550EA6E090009000900F5507C
:1037F000036E0900F550046E09000900F6CF07F0CA
:10380000F7CF08F0F8CF09F000C0F6FF01C0F7FFCE
:1038100002C0F8FF035002E1045007E00900F55030
:10382000EE6E0306F8E20406F9D707C0F6FF08C0FB
:10383000F7FF09C0F8FF050601E20606DFEF1BF0FF
:103840001200D9CFE5FFE1CFD9FF00C0E5FF01C0ED
:10385000E5FF02C0E5FF03C0E5FF04C0E5FF05C0CA
:10386000E5FF020EDBCF00F00050010A22E1016A01
:103870000150020DF450036EF3CF02F0930E0224B8
:10388000046E040E0320056E04C0E9FF05C0EAFFC4
:10389000EE687F0EEF6EB30E0226040E032202C006
:1038A000E9FF03C0EAFFEE6AEF6A012A100E015C2D
:1038B000DFE300C028F3E4CF05F0E4CF04F0E4CF69
:1038C00003F0E4CF02F0E4CF01F0E4CF00F0E4CF66
:1038D000D9FF120000C0E5FF01C0E5FF02C0E5FF0F
:1038E00003C0E5FF04C0E5FF006A5C0E0024016E22
:1038F000026A030E02225E0E0024036E046A030EA7
:10390000042203C0E9FF04C0EAFF010EEF6E01C00C
:10391000E9FF02C0EAFFEF6E002A020E005CE5E359
:10392000006A3E0E0024016E026A030E022201C0EC
:10393000E9FF02C0EAFFEF68002A100E005CF1E325
:10394000E4CF04F0E4CF03F0E4CF02F0E4CF01F0E1
:10395000E4CF00F012004320732025642025640A80
:103960000000D9CFE5FFE1CFD9FF00C0E5FF01C0DE
:10397000E5FF02C0E5FF03C0E5FF04C0E5FF05C0A9
:10398000E5FF020EDBCF00F0030EDBCF01F0040EEB
:10399000DBCF02F0050EDBCF03F0060EDBCF04F029
:1039A000056A3E0E0026030E0522800E015E070EFC
:1039B00001160138F00B026E070E041604500226A1
:1039C00000C0E9FF05C0EAFF02C0EFFFE4CF05F049
:1039D000E4CF04F0E4CF03F0E4CF02F0E4CF01F051
:1039E000E4CF00F0E4CFD9FF120000C0E5FF01C032
:1039F000E5FF02C0E5FFDCEC1FF0006EDCEC1FF021
:103A0000016E0050026ED00E0224006E0A0E005CA1
:103A100005E30050026EF90E0224006E0150026EA2
:103A2000D00E0224016E0A0E015C05E30150026E05
:103A3000F90E0224016E080E005C12E2100E015C09
:103A4000D8B00ED00038F00B0124006EAAEC1EF0A6
:103A5000016E015005E10050E56EB6EC21F0E65232
:103A6000E4CF02F0E4CF01F0E4CF00F01200D9CFB0
:103A7000E5FFE1CFD9FF00C0E5FF01C0E5FF02C0CF
:103A8000E5FF03C0E5FF04C0E5FF020EDBCF00F059
:103A90000038E8441F0B016E026A5A0E0126030E1D
:103AA000022201C0E9FF02C0EAFFEFCF03F0070ED8
:103AB0000016010E046E005005E0E86CD890043644
:103AC000010FFDE3041C031601C0E9FF02C0EAFF79
:103AD00003C0EFFFE4CF04F0E4CF03F0E4CF02F043
:103AE000E4CF01F0E4CF00F0E4CFD9FF1200D9CF4A
:103AF000E5FFE1CFD9FF00C0E5FF01C0E5FF02C04F
:103B0000E5FF020ED924006E000EDA20016E800E51
:103B1000026E030E0026000E012202220250E56E04
:103B20000150E56E0050E56E040EDBCFE5FF030E9D
:103B3000DBCFE5FF020EDBCFE5FF04017F51E56E31
:103B40007E51E56E7D51E56E0EEC00F0006EF3CF18
:103B500001F0090EE12601C0F3FF0050E4CF02F0AE
:103B6000E4CF01F0E4CF00F0E4CFD9FF1200D9CFC9
:103B7000E5FFE1CFD9FF00C0E5FF01C0E5FF02C0CE
:103B8000E5FF03C0E5FF020EDBCF00F0030EDBCF45
:103B900001F0040EDBCF02F0040137510DE114EC0B
:103BA00022F0036E03C0E5FF00C0E9FF01C0F3FF90
:103BB00002503DEC23F00FD004013751010A0BE114
:103BC00000C0E9FF01C0F3FF0250B6EC22F0E56E41
:103BD0007BEC20F0E652E4CF03F0E4CF02F0E4CF38
:103BE00001F0E4CF00F0E4CFD9FF1200D9CFE5FF18
:103BF000E1CFD9FF00C0E5FF01C0E5FF02C0E5FF4E
:103C000003C0E5FF020EDBCF00F0030EDBCF01F0B7
:103C100058C302F059C303F00301583F01D0592B98
:103C20000150E56E0250E56EC6EC20F0E652E65219
:103C300058C302F059C303F00301583F01D0592B78
:103C40000050E56E0250E56EC6EC20F0E652E652FA
:103C5000E4CF03F0E4CF02F0E4CF01F0E4CF00F0D2
:103C6000E4CFD9FF1200D9CFE5FFE1CFD9FF00C0E3
:103C7000E5FF01C0E5FF02C0E5FF03C0E5FF04C0AA
:103C8000E5FF020EDBCF00F022C301F0026A014A19
:103C9000022A23C303F0046A0150031803E102500F
:103CA000041801E001D00ED0000E03012225016EA0
:103CB000026A010E022201C0E9FF02C0EAFF00C051
:103CC000EFFF222BE4CF04F0E4CF03F0E4CF02F0C7
:103CD000E4CF01F0E4CF00F0E4CFD9FF1200D9CF58
:103CE000E5FFE1CFD9FF00C0E5FF01C0E5FF02C05D
:103CF000E5FF03C0E5FF020EDBCF00F0016A70C3F1
:103D000002F0036A0250002603500122E56A800E89
:103D1000E56E0150E56E0050E56E30EC18F0006E77
:103D2000F3CF01F0040EE126600E0026000E012202
:103D300000C0E9FF01C0EAFFEFCF00F00050E4CF80
:103D400003F0E4CF02F0E4CF01F0E4CF00F0E4CFE1
:103D5000D9FF120000C0E5FF01C0E5FF02C0E5FF8A
:103D6000010E006EDCEC1FF0016E01C002F001508C
:103D700023E00050E56EE5EC22F0016EE6520150C2
:103D800010E10A0E005C0BE20A0E006EE56EE5EC37
:103D900022F0016EE652015004E1E8680ED0E868B6
:103DA0000CD00150021802E0E86807D0002A1B0E70
:103DB000005CD8E3E86801D0E86AE4CF02F0E4CF21
:103DC00001F0E4CF00F01200F3CFE5FFF4CFE5FF00
:103DD000E9CFE5FFEACFE5FFFACFE5FFFBCFE5FF4F
:103DE000030120510F01356F030121510F01366F7F
:103DF000D650336FD750346FF2A411D00301203F57
:103E000001D0212BF294030120510F01356F0301E2
:103E100021510F01366FD650336FD750346FE4CF36
:103E2000FBFFE4CFFAFFE4CFEAFFE4CFE9FFE4CF02
:103E3000F4FFE4CFF3FF110000C0E5FF01C0E5FF90
:103E400002C0E5FF03C0E5FF58C300F059C301F00D
:103E50000301583F01D0592B0050E56EE5EC22F0EC
:103E6000E652036E026A58C300F059C301F0030121
:103E7000583F01D0592B0050E56EE5EC22F0E65298
:103E8000016A02120150031203C0F3FF0250E4CF93
:103E900003F0E4CF02F0E4CF01F0E4CF00F0120031
:103EA00000C0E5FF01C0E5FF02C0E5FF006E000EA7
:103EB00003012725016E026A0F0E022201C0E9FFED
:103EC00002C0EAFF00C0EFFF220E275D01E2272BB0
:103ED00000500A0A0FE103012751E56E800EE56EDE
:103EE0000F0EE56E000EE56E3EEC17F0040EE126B7
:103EF0000301276BE4CF02F0E4CF01F0E4CF00F040
:103F000012000301226B0301236B030124699480D7
:103F10008B909480B06A3F0EAF6EB886AC8AAC844A
:103F2000AC8CAC90AB8CAB8E0301676B0301616B07
:103F30000301646B0301656B0301666B000EE56AA8
:103F4000E5EC22F00301266FE6529F989F9A010E3E
:103F50000301256F04017D6B7E6B2F0E7F6FF3ECE9
:103F600022F012000301205104017B6F0301215153
:103F700004017C6FD650796FD7507A6F7B51030163
:103F8000201905E104017C51030121190CE0030112
:103F9000205104017B6F0301215104017C6FD65035
:103FA000796FD7507A6F7CC4E9FF7BC4F4FF7AC481
:103FB000F3FF04017951120000C0E5FF01C0E5FFE5
:103FC0000301655103016E1905E003016551030109
:103FD000641902E1E86A15D065C300F00301652B9E
:103FE000016A600E0026000E012200C0E9FF01C038
:103FF000EAFFEFCF00F06551800A02E10301656B33
:104000000050E4CF01F0E4CF00F0120000C0E5FF63
:104010007AEC23F00401896B806B8983006A89B391
:10402000002A0050010BE844F46E8051FD0BF4109F
:10403000806FD58ED59CD59AD588D596D594D582C6
:10404000D580F28AF184D08EF28EF28CBA80FF0E87
:10405000BB68BA84E4CF00F01200D9CFE5FFE1CF0E
:10406000D9FF00C0E5FF01C0E5FF020EDBCF00F085
:104070000050020DF450016EF3CF00F0D30E002675
:10408000040E012200C0E9FF01C0EAFFEECF00F0FC
:10409000EFCF01F001C0F3FF0050E4CF01F0E4CF17
:1040A00000F0E4CFD9FF1200D9CFE5FFE1CFD9FF6F
:1040B00000C0E5FF01C0E5FF020EDBCF00F00050BD
:1040C000020DF450016EF3CF00F0E00E0026000E5A
:1040D000012200C0E9FF01C0EAFFEECF00F0EFCF00
:1040E00001F001C0F3FF0050E4CF01F0E4CF00F095
:1040F000E4CFD9FF1200D9CFE5FFE1CFD9FF00C04F
:10410000E5FF01C0E5FF02C0E5FF020EDBCF00F0D6
:1041100058C301F059C302F00301583F01D0592B95
:104120000050E56E0150E56EC6EC20F0E652E65216
:10413000E4CF02F0E4CF01F0E4CF00F0E4CFD9FF08
:104140001200D8CFE5FFE0CFE5FFE56EF3CFE5FF46
:10415000F4CFE5FFE9CFE5FFEACFE5FFFACFE5FFD2
:10416000FBCFE5FF52EC0EF0E4CFFBFFE4CFFAFF0C
:10417000E4CFEAFFE4CFE9FFE4CFF4FFE4CFF3FFBD
:10418000E450E4CFE0FFE4CFD8FF1000D9CFE5FF43
:10419000E1CFD9FF00C0E5FF020EDBCF00F0030E38
:1041A000DBCFA8FF00C0A9FFA69EA69CA684F29E16
:1041B000F29C550EA76EAA0EA76EA682A6A202D0EA
:1041C0000000FCD7A694F28EF28CE4CF00F0E4CF8E
:1041D000D9FF1200E8AE0AD0F3CFEAFFEE50EECFDF
:1041E000F3FFEECFF4FFEECFE9FF1200E8BC8DEF56
:1041F00023F0E9CFF6FFF3CFF7FFF86E0900F55093
:104200000900F5CFF3FF0900F5CFF4FF0900F5CF62
:10421000E9FF120000C0E5FF01C0E5FF03012251E4
:104220000301231902E1E86A0FD0000E03012325E0
:10423000006E016A010E012200C0E9FF01C0EAFF21
:10424000EFCF00F0232B0050E4CF01F0E4CF00F0DB
:104250001200F2CFEAFFF29EA69EA69CA684E9CFAA
:10426000A9FFF3CFAAFFE4CFA8FF52EC23F0F4CFCD
:10427000A8FF52EC23F0F6CFA8FF52EC23F0F7CFC3
:10428000A8FF52EC23F0A694EABEF28E1200D9CF1A
:10429000E5FFE1CFD9FF00C0E5FF01C0E5FF020E59
:1042A000DBCF00F0016A3E0E0026030E012200C0A3
:1042B000E9FF01C0EAFFFF0EEF68E4CF01F0E4CFB1
:1042C00000F0E4CFD9FF1200F2CFF6FFF29EA69ED7
:1042D000A69CE9CFA9FFF3CFAAFFA680A850A94AC0
:1042E000AA2AA680A8CFF3FFA94AAA2AA680A8CF07
:1042F000F4FFA94AAA2AA680A8CFEAFFF6BEF28E4A
:104300001200E8AE08D0F3CFEAFFEE50EECFF3FF95
:10431000EECFF4FF1200E8BC95EF23F0E9CFF6FFF3
:10432000F3CFF7FFF86E0900F5500900F5CFF3FF62
:104330000900F5CFF4FF1200F2CFEAFFF29EA69E2D
:10434000A69CA684E9CFA9FFF3CFAAFFE4CFA8FFDC
:1043500052EC23F0F4CFA8FF52EC23F0F6CFA8FFE5
:1043600052EC23F0A694EABEF28E1200D9CFE5FFFC
:10437000E1CFD9FF00C0E5FF020EDBCF00F000C0A7
:1043800026F30050E56E000EE56AC6EC20F0E6521A
:10439000E652E4CF00F0E4CFD9FF1200F2CFF6FFEF
:1043A000F29EA69EA69CE9CFA9FFF3CFAAFFA68006
:1043B000A850A94AAA2AA680A8CFF3FFA94AAA2AE8
:1043C000A680A8CFF4FFF6BEF28E120000C0E5FF73
:1043D00001C0E5FF600E03016525006E016A000E55
:1043E000012200C0E9FF01C0EAFFEFCF00F000505A
:1043F000E4CF01F0E4CF00F01200D9CFE5FFE1CF28
:10440000D9FF00C0E5FF020EDBCF00F0610E005CBB
:1044100005E37B0E005C02E2010E01D0E86AE4CF06
:1044200000F0E4CFD9FF120000C0E5FF01C0E5FFB6
:1044300058C300F059C301F00301583F01D0592B74
:104440000050E56EE5EC22F0E652E4CF01F0E4CF57
:1044500000F01200D9CFE5FFE1CFD9FF00C0E5FFA2
:10446000020EDBCF00F000C025F3005004E1F3ECB6
:1044700022F09D9A9D98E4CF00F0E4CFD9FF12007E
:10448000E8AE06D0F3CFEAFFEE50EECFF3FF120016
:10449000E8BC8BEF23F0E9CFF6FFF3CFF7FFF86E20
:1044A0000900F5500900F5CFF3FF1200F2CFEAFF43
:1044B000F29EA69EA69CA684E9CFA9FFF3CFAAFFF1
:1044C000E4CFA8FF52EC23F0F4CFA8FF52EC23F086
:1044D000A694EABEF28E120012EEFFF022EEFFF07A
:1044E000F86AA68EA69CE9680E0EEA6E0068000EB9
:1044F000ED6A0050FDE1D3EC1BF006EC00F0FFD7B5
:10450000F2CFF6FFF29EA69EA69CE9CFA9FFF3CFBD
:10451000AAFFA680A850A94AAA2AA680A8CFF3FF7E
:10452000F6BEF28E1200F2CFEAFFF29EA69EA69C85
:10453000A684E9CFA9FFF3CFAAFFE4CFA8FF52ECEE
:1045400023F0A694EABEF28E1200E8AE0BD0F3CFB1
:10455000EAFFE4CFEEFFF4CFEEFFF6CFEEFFF7CFAA
:10456000EEFF1200E8BC8FEF23F01200E8AE04D09B
:10457000F3CFEAFFEE501200E8BC89EF23F0E9CF59
:10458000F6FFF3CFF7FFF86E0900F55012000000B8
:104590000000FF000000000A0002000000420000CE
:1045A000000000000000000000000000E8AE09D09C
:1045B000F3CFEAFFE4CFEEFFF4CFEEFFF6CFEEFF4E
:1045C0001200E8BC97EF23F01200D9CFE5FFE1CF4E
:1045D000D9FF020EDBCFA9FFA69CA69EA680A850FD
:1045E000E4CFD9FF1200ACA2FED79480AE500000F9
:1045F000AE50AB98AB88AB869D8A9D98120025641F
:104600002000F2CFF6FFF29EA69EA69CE9CFA9FF5E
:10461000F3CFAAFFA680A850F6BEF28E1200E8AE35
:1046200007D0F3CFEAFFE4CFEEFFF4CFEEFF1200A6
:10463000E8BC93EF23F01200700ED36E9B8CFF0E3C
:104640009268936894689668626AF19E120000C04E
:10465000E5FFAAEC1EF0006E005001E1FF00E4CF80
:1046600000F012000F01456B900E0F01446F030E16
:104670000F01436F0F01458F1200E8AE05D0F3CF55
:10468000EAFFE4CFEEFF1200E8BC91EF23F0120046
:10469000D9CFE5FFE1CFD9FF020EDBCF2BF3E4CF7B
:1046A000D9FF1200550EA76EAA0EA76EA682A6B25B
:1046B000FED7A94AAA2A010E0401376F1C0E030176
:1046C000586F596B12000401376B1C0E0301586FB1
:1046D000596B120001008E450000200300001E00EF
:1046E000000006EC20F081EC1FF01200ACA2FED717
:1046F000AD6E12001CEC23F0120003016551120094
:1047000003016F511200030125511200E8CF7FFF12
:10471000120001EF23F080EF22F064EF21F029EF87
:1047200021F093EF22F056EF22F0CEEF21F09CEF34
:0247300021F076
:020000040030CA
:010006008574
:00000001FF
