:020000040000FA
:100000001EEF2FF0C69A12003AEF28F00EEC04F023
:1000100094EC13F0FDD712006FEF2CF0D9CFE5FF71
:10002000E1CFD9FF00C0E5FF01C0E5FF02C0E5FF59
:1000300003C0E5FF04C0E5FF05C0E5FF06C0E5FF1E
:1000400007C0E5FF08C0E5FF09C0E5FF0AC0E5FFFE
:100050000BC0E5FF0CC0E5FF0DC0E5FF0EC0E5FFDE
:100060000FC0E5FF10C0E5FF11C0E5FF12C0E5FFBE
:1000700013C0E5FF14C0E5FF15C0E5FF16C0E5FF9E
:1000800017C0E5FF18C0E5FF19C0E5FF1AC0E5FF7E
:100090001BC0E5FF1CC0E5FF1DC0E5FF1EC0E5FF5E
:1000A000020EDBCF00F0030EDBCF01F0040EDBCF3E
:1000B00002F0050EDBCF03F0060EDBCF04F0070ED7
:1000C000DBCF05F0080EDBCF06F0090EDBCF07F023
:1000D0000A0EDBCF08F0096A0A6A02C00DF00D5063
:1000E000800A0DE1025005017D6F01507C6F0050C8
:1000F0007B6F050E016E7B0E006E800E026E03C0DC
:10010000E9FF04C0F3FF055068EC2FF00B6E0B50B5
:10011000D8B4C4EF03F00B50250A02E0ABEF03F0B4
:100120000C6A0D6A0E6A0F6A106A0A0E116E126A64
:10013000136A146A200E156E1668176A2B0E186E55
:10014000032A02E3044A052A03C0E9FF04C0F3FFBF
:10015000055068EC2FF0196E250A13E11950E56E71
:100160000250E56E0150E56E0050E56EF9EC19F0B5
:10017000040EE126094A0A2A032A02E3044A052A50
:10018000BED71950300A06E1300E156E032A02E37D
:10019000044A052A03C0E9FF04C0F3FF055068ECD8
:1001A0002FF02D0A06E1010E146E032A02E3044A21
:1001B000052A03C0E9FF04C0F3FF055068EC2FF0E7
:1001C000200A08E1010E176E200E186E032A02E3C2
:1001D000044A052A03C0E9FF04C0F3FF055068EC98
:1001E0002FF02B0A06E1010E176E032A02E3044AE0
:1001F000052A03C0E9FF04C0F3FF055068EC2FF0A7
:10020000196E310E195C2BE33A0E195C28E203C01B
:1002100019F004C01AF005C01BF019C0E9FF1AC09C
:10022000F3FF1B5068EC2FF01C6E300E1C5C11E3CA
:100230003A0E1C5C0EE213500A0DF3CF1DF01C5059
:100240001D26D00E1D24136E192A02E31A4A1B2AFA
:10025000E4D719C003F01AC004F01BC005F003C0B6
:10026000E9FF04C0F3FF055068EC2FF02E0A2DE1E2
:10027000032A02E3044A052A166A03C019F004C0DF
:100280001AF005C01BF019C0E9FF1AC0F3FF1B509C
:1002900068EC2FF01C6E300E1C5C11E33A0E1C5CF7
:1002A0000EE216500A0DF3CF1DF01C501D26D00E85
:1002B0001D24166E192A02E31A4A1B2AE4D719C014
:1002C00003F01AC004F01BC005F003C0E9FF04C02E
:1002D000F3FF055068EC2FF0196E6C0A07E1010E70
:1002E0000C6E032A02E3044A052A09D01950680A51
:1002F00006E1010E0E6E032A02E3044A052A03C03A
:10030000E9FF04C0F3FF055068EC2FF0750A06E121
:10031000010E106E032A02E3044A052A03C0E9FF16
:1003200004C0F3FF055068EC2FF0196E730A05E165
:10033000010E0D6E200E156E3FD01950780A03E1A4
:10034000100E116E39D01950580A05E1100E116EB9
:10035000010E126E31D01950630A02E1116A2CD0DD
:1003600019506F0A03E1080E116E26D01950660A63
:1003700003E1010E0F6E20D01950640A1DE01950E0
:10038000690A1AE0105005E0FF0E03260422052238
:1003900013D01950E56E0250E56E0150E56E005025
:1003A000E56EF9EC19F0040EE126094A0A2A032A3F
:1003B00002E3044A052AA3D60D5021E00650030F9C
:1003C0000D6E000E0720196E000E08201A6E0DC06B
:1003D00006F019C007F01AC008F0FD0E0D26FF0E3A
:1003E00019221A220DC0E9FF19C0F3FF1A5005ECBB
:1003F0002EF00D6EF3CF19F0F4CF1AF0FDD00F50A0
:100400000DE0000E1A6E080E196E100E0D6E040E21
:100410000626000E072208221668EED016680C5039
:1004200023E00650040F0C6E000E07200F6E000E26
:1004300008201B6E0CC006F00FC007F01BC008F0B0
:10044000FC0E0C26FF0E0F221B220CC0E9FF0FC072
:10045000F3FF1B50B8EC2CF00C6EF3CF0FF0F4CF81
:100460001BF0E9CF1CF067D00E502FE00650020FB2
:100470000E6E000E07201D6E000E08201E6E0EC0B0
:1004800006F01DC007F01EC008F0FE0E0E26FF0E7F
:100490001D221E220EC0E9FF1DC0F3FF1E50F2EC0C
:1004A0002EF00E6E0EC00CF00F6A1B6A1C6A115003
:1004B0000A0A03E11050D8B43ED00C500E6E0EC0A4
:1004C0000CF00F6A1B6A1C6A36D00650020F0E6EC3
:1004D000000E07201D6E000E08201E6E0EC006F0D6
:1004E0001DC007F01EC008F0FE0E0E26FF0E1D22D6
:1004F0001E220EC0E9FF1DC0F3FF1E50F2EC2EF0CD
:100500000E6EF3CF1DF00EC00CF01DC00FF0E86AA8
:100510001DBEFF0E1B6E1C6E11500A0A02E1105028
:100520000AE00C500E6E0F501D6E0EC00CF01DC078
:100530000FF01B6A1C6A040E196EF40E0D6E800E0D
:100540001A6E1150D8B440D0105013E01150E56E1F
:10055000040EE56EF40EE56E1C50E56E1B50E56E64
:100560000F50E56E0C50E56EAEEC0FF0070EE12675
:1005700012D01150E56E040EE56EF40EE56E1C50BF
:10058000E56E1B50E56E0F50E56E0C50E56E92EC7B
:100590001FF0070EE12617502FE00DC0E9FF19C02C
:1005A000F3FF1A5068EC2FF02D0A26E0FF0E0D26FF
:1005B00019221A2218C0E5FF0DC0E9FF19C0F3FF88
:1005C0001A501BEC30F018D00CC0E5FF0DC0E9FF4D
:1005D00019C0F3FF1A501BEC30F00D50010F0C6ED8
:1005E000000E19200E6E000E1A20E56A0CC0E9FFFD
:1005F0000EC0F3FF1BEC30F00DC00CF019C00EF074
:100600001AC00FF013C010F0105010E00CC0E9FF3A
:100610000EC0F3FF0F5068EC2FF0176E175006E076
:100620000C2A02E30E4A0F2A1006EED710C013F070
:1006300014501EE109C00CF00AC00EF010C00FF0FB
:100640000F5010E01550E56E0250E56E0150E56E5A
:100650000050E56EF9EC19F0040EE1260C4A0E2A62
:100660000F06EED70CC009F00EC00AF00FC013F051
:1006700016C00CF00DC00DF019C00EF01AC00FF02E
:1006800009C010F00AC015F00DC0E9FF0EC0F3FF5D
:100690000F5068EC2FF0166E1650D8B43ED00CC038
:1006A00016F0176A161E171E1650171005E00CC01C
:1006B00016F00C06165031E00DC0E9FF0EC0F3FF36
:1006C0000F5068EC2FF0116E125010E01150E56ED3
:1006D00099EC2EF0166EE652165004E0DF0E11145F
:1006E000166E02D011C016F016C011F01150E56E52
:1006F0000250E56E0150E56E0050E56EF9EC19F020
:10070000040EE1260D2A02E30E4A0F2A104A152A8A
:100710001350D8B4B9D71306B7D710C009F015C015
:100720000AF014502BE010C00CF015C00DF013C0EF
:100730000EF00E501FE0200EE56E0250E56E0150E7
:10074000E56E0050E56EF9EC19F0040EE1260C4A56
:100750000D2A0E06EED70B50E56E0250E56E0150E5
:10076000E56E0050E56EF9EC19F0040EE126094A39
:100770000A2A04D00CC009F00DC00AF0032A02E3D3
:10078000044A052A7FEF00F00AC0F3FF0950E4CFC6
:100790001EF0E4CF1DF0E4CF1CF0E4CF1BF0E4CF5B
:1007A0001AF0E4CF19F0E4CF18F0E4CF17F0E4CF5B
:1007B00016F0E4CF15F0E4CF14F0E4CF13F0E4CF5B
:1007C00012F0E4CF11F0E4CF10F0E4CF0FF0E4CF5B
:1007D0000EF0E4CF0DF0E4CF0CF0E4CF0BF0E4CF5B
:1007E0000AF0E4CF09F0E4CF08F0E4CF07F0E4CF5B
:1007F00006F0E4CF05F0E4CF04F0E4CF03F0E4CF5B
:1008000002F0E4CF01F0E4CF00F0E4CFD9FF120012
:100810003C4E4F20464C4F41543E000000C0E5FF87
:1008200001C0E5FF02C0E5FF03C0E5FF05C0E5FF2D
:1008300069EC30F09492939E8CEC2AF0F3CF01F0A7
:10084000F4CF02F0E9CF03F0880F0401336F130EE9
:100850000120346F000E0220356F000E0320366F2A
:1008600090EC1BF09280800E006E0F0E016E0F0E4A
:10087000036E380E002603500122800E026E0F0E0A
:10088000036E800E005E0350015A0F0E056E380E87
:100890000226055003220F0E056E800E025E0550E3
:1008A000035A02C0E9FF03C0EAFFEFCF02F0028063
:1008B00000C0E9FF01C0EAFF02C0EFFFE56A030ED6
:1008C000E56E5DEC1EF0E652E6529282800E006EFE
:1008D0000F0E016E0F0E036E380E0026035001221C
:1008E000800E026E0F0E036E800E005E0350015AE2
:1008F0000F0E056E380E0226055003220F0E056EF0
:10090000800E025E0550035A02C0E9FF03C0EAFFF1
:10091000EFCF02F0028200C0E9FF01C0EAFF02C08F
:10092000EFFF010EE56E040EE56E5DEC1EF0E65283
:10093000E652928A800E006E0F0E016E0F0E036E4D
:10094000380E002603500122800E026E0F0E036E39
:10095000800E005E0350015A0F0E056E380E0226FF
:10096000055003220F0E056E800E025E0550035ADD
:1009700002C0E9FF03C0EAFFEFCF02F0028A00C025
:10098000E9FF01C0EAFF02C0EFFF040EE56E000EB2
:10099000E56A5DEC1EF0E652E6529284800E006E2F
:1009A0000F0E016E0F0E036E380E0026035001224B
:1009B000800E026E0F0E036E800E005E0350015A11
:1009C0000F0E056E380E0226055003220F0E056E1F
:1009D000800E025E0550035A02C0E9FF03C0EAFF21
:1009E000EFCF02F0028400C0E9FF01C0EAFF02C0BD
:1009F000EFFF020EE56E010EE56E5DEC1EF0E652B5
:100A0000E6529284800E006E0F0E016E0F0E036E82
:100A1000380E002603500122800E026E0F0E036E68
:100A2000800E005E0350015A0F0E056E380E02262E
:100A3000055003220F0E056E800E025E0550035A0C
:100A400002C0E9FF03C0EAFFEFCF02F0028400C05A
:100A5000E9FF01C0EAFF02C0EFFF020EE56EE56E9E
:100A60005DEC1EF0E652E652929C898C10EC25F06B
:100A7000F19E938C810E006E0F0E016E0F0E036EB1
:100A8000380E0026035001220F0E036E800E005E0A
:100A90000350015A810E026E0F0E036E0F0E056E8B
:100AA000380E0226055003220F0E056E800E025EE0
:100AB0000550035A02C0E9FF03C0EAFFEFCF02F07E
:100AC000029C00C0E9FF01C0EAFF02C0EFFF060E72
:100AD000E56E800EE56E0F0EE56E810EE56E000E82
:100AE000E56A57EC25F0050EE1269380810E006E35
:100AF0000F0E016E0F0E036E380E002603500122FA
:100B00000F0E036E800E005E0350015A810E026EBE
:100B10000F0E036E0F0E056E380E022605500322CF
:100B20000F0E056E800E025E0550035A02C0E9FFEB
:100B300003C0EAFFEFCF02F0029000C0E9FF01C05E
:100B4000EAFF02C0EFFFE56A800EE56E0F0EE56E6C
:100B5000810EE56E010EE56E57EC25F0050EE126DF
:100B60009382810E006E0F0E016E0F0E036E380E13
:100B70000026035001220F0E036E800E005E03500C
:100B8000015A810E026E0F0E036E0F0E056E380EA7
:100B90000226055003220F0E056E800E025E0550E0
:100BA000035A02C0E9FF03C0EAFFEFCF02F002924E
:100BB00000C0E9FF01C0EAFF02C0EFFF010EE56ED1
:100BC000800EE56E0F0EE56E810EE56E020EE56E8F
:100BD00057EC25F0050EE1269384810E006E0F0E72
:100BE000016E0F0E036E380E0026035001220F0E09
:100BF000036E800E005E0350015A810E026E0F0ECE
:100C0000036E0F0E056E380E0226055003220F0EDE
:100C1000056E800E025E0550035A02C0E9FF03C054
:100C2000EAFFEFCF02F0029400C0E9FF01C0EAFF43
:100C300002C0EFFF020EE56E800EE56E0F0EE56E50
:100C4000810EE56E030EE56E57EC25F0050EE126EC
:100C50009386810E006E0F0E016E0F0E036E380E1E
:100C60000026035001220F0E036E800E005E03501B
:100C7000015A810E026E0F0E036E0F0E056E380EB6
:100C80000226055003220F0E056E800E025E0550EF
:100C9000035A02C0E9FF03C0EAFFEFCF02F0029659
:100CA00000C0E9FF01C0EAFF02C0EFFF030EE56EDE
:100CB000800EE56E0F0EE56E810EE56E040EE56E9C
:100CC00057EC25F0050EE126270EE56EE56A080EC5
:100CD000E56E96EC16F0030EE126E56A800EE56EF1
:100CE000040EE56E790EE56EB0EC20F0040EE12600
:100CF000010EE56E800EE56E040EE56E810EE56E6A
:100D0000B0EC20F0040EE1260BEC2AF0E4CF05F065
:100D1000E4CF03F0E4CF02F0E4CF01F0E4CF00F041
:100D2000120000C0E5FF01C0E5FF02C0E5FF03C0FF
:100D3000E5FF04C0E5FF05C0E5FF06C0E5FF07C00D
:100D4000E5FF08C0E5FF09C0E5FF0AC0E5FFC2A254
:100D500004D00001EE51D0EF08F00001EF51D8B4FB
:100D60002FD10001EE51020DF450016EF3CF00F0CF
:100D7000390E0026040E012200C0E9FF01C0EAFF7F
:100D8000EECF00F0EFCF01F0230EEE25026E036AE6
:100D9000040E032202C0E9FF03C0EAFFEFCF02F016
:100DA0000250FF0A01E166D002380F0B036E920E6B
:100DB0000324046E056A0F0E0522066A920E0326AE
:100DC0000F0E062203C0E9FF06C0EAFFEFCF03F0D3
:100DD0000250066E070E0616010E076E06500DE055
:100DE00006E6E86CD8900736010FFDE306D0D890F0
:100DF00007BED8800732010FFBE3071C066E0350C5
:100E0000061604C0E9FF05C0EAFF06C0EFFF02387E
:100E10000F0B036E890E0324046E056A0F0E052264
:100E2000066A890E03260F0E062203C0E9FF06C0DC
:100E3000EAFFEFCF03F00250066E070E0616010E12
:100E4000076E06500DE006E6E86CD8900736010FF5
:100E5000FDE306D0D89007BED8800732010FFBE330
:100E6000071C066E0350061604C0E9FF05C0EAFF22
:100E700006C0EFFF0001EE51020DF450046EF3CFF7
:100E800003F0390E0326040E042201340130066EED
:100E90000030056E0634063205320634063205325D
:100EA0000550005C056E06500158066EC3CF07F072
:100EB000086A0750052608500622C4CF07F0086AC2
:100EC00007500A6E096A095005260A50062203C017
:100ED000E9FF04C0EAFF05C0EEFF06C0EFFF000116
:100EE000EA51010A01E06AD00001EE51020DF4500E
:100EF000046EF3CF03F0390E0324056E040E0420B4
:100F0000066E05C0E9FF06C0EAFFEECF00F0EFCFA6
:100F100001F0B30E0326040E042203C0E9FF04C04F
:100F2000EAFFEECF05F0EFCF06F09C0E0526D8A025
:100F300006060150800FF36E0650800FF35C02E14D
:100F40000550005C0EE20050640F056E000E01209B
:100F5000066E03C0E9FF04C0EAFF05C0EEFF06C04D
:100F6000EFFF0001EE51020DF450046EF3CF03F0D9
:100F7000D30E0326040E042203C0E9FF04C0EAFFD7
:100F8000EECF05F0EFCF06F0640E0526D8B0062AA6
:100F90000650800FF36E0150800FF35C02E10050A9
:100FA000055C0CE29C0E0026D8A0010603C0E9FFF8
:100FB00004C0EAFF00C0EEFF01C0EFFF0001EF6BCD
:100FC0000001EE2B100EEE5D01E3EE6B0001EE3939
:100FD000E8441F0B006E016A880E0026050E0122F0
:100FE00000C0E9FF01C0EAFFEFCF00F0EEC001F062
:100FF000070E0116010E036E000E046E015006E08E
:10100000E86CD89003360436010FFCE3056A005003
:1010100003160550041603500410D880E866D890D3
:10102000036A03360350D8A4B9D0230E0001EE257D
:10103000006E016A0F0E012200C0E9FF01C0EAFF45
:10104000EFCF00F00044E844FC0B016E0128C26EB3
:10105000EE51E56E85EC1AF0E652230E0001EE2506
:10106000006E016A040E012200C0E9FF01C0EAFF20
:10107000EFCF02F00250FF0A01E18CD002380F0BD3
:10108000006E920E0024016E036A0F0E0322046AA2
:10109000920E00260F0E042200C0E9FF04C0EAFFF2
:1010A000EFCF00F00250046E070E0416010E056E1D
:1010B00004500DE006E6E86CD8900536010FFDE31C
:1010C00006D0D89005BED8800532010FFBE3005052
:1010D000051201C0E9FF03C0EAFF05C0EFFF380EAB
:1010E000006E0F0E016E02380F0B036E046A035080
:1010F000002604500122380E056E0F0E066E0550B4
:1011000003260650042203C0E9FF04C0EAFFEFCF24
:1011100003F0070E0216010E046E02500DE006E603
:10112000E86CD8900436010FFDE306D0D89004BED9
:10113000D8800432010FFBE30350041200C0E9FF22
:1011400001C0EAFF04C0EFFF0F014583000000006B
:1011500045930F0144930BC0E5FFF2CF0BF0F29ED5
:1011600044810000000000000000000000000000BA
:10117000000000000000000000000000000000006F
:101180000000000000000000000044910BBEF28E41
:10119000E4CF0BF0C282010E0001EF6F0001EE51AF
:1011A000E4CF0AF0E4CF09F0E4CF08F0E4CF07F091
:1011B000E4CF06F0E4CF05F0E4CF04F0E4CF03F091
:1011C000E4CF02F0E4CF01F0E4CF00F0120000C061
:1011D000E5FF01C0E5FF02C0E5FF03C0E5FF04C075
:1011E000E5FF05C0E5FF06C0E5FF07C0E5FF08C055
:1011F000E5FF09C0E5FF0AC0E5FF0BC0E5FF0CC035
:10120000E5FF006A016A026A040E025CD8B0ECD104
:1012100001C003F0012A100E035CD8B0E5D1000133
:10122000F02B100EF05D01E3F06B0001F039E844A3
:101230001F0B036E046A880E0326050E042203C0EA
:10124000E9FF04C0EAFFEFCF03F0F0C004F0070E9F
:101250000416010E056E000E066E045006E0E86CE2
:10126000D89005360636010FFCE3076A03500516D1
:101270000750061605500610D880E866D890056A13
:1012800005360550D8A4C0D70001F051020DF45026
:10129000046EF3CF03F0390E0324056E040E042010
:1012A000066E05C0E9FF06C0EAFFEECF05F0EFCFFE
:1012B00006F0EDC007F007A09DD0B30E0324076E23
:1012C000040E0420086E07C0E9FF08C0EAFFEECF55
:1012D00007F0EFCF08F00650800FF36E0850800F34
:1012E000F35C02E10750055C03E2056A066A60D020
:1012F000D30E0326040E042203C0E9FF04C0EAFF54
:10130000EECF03F0EFCF04F00450800FF36E0650E1
:10131000800FF35C02E10550035C04E205683F0EB8
:10132000066E46D00750055C096E085006580A6ED6
:10133000E86A0ABEFF0E0B6EE56E0B50E56E0A50B2
:10134000E56E0950E56EE56AE56A400EE56E000E51
:10135000E56AA4EC0EF0096EF3CF0AF0F4CF0BF0BF
:10136000E9CF0CF0080EE1260750035C076E085029
:101370000458086EE86A08BEFF0E036EE56E03505F
:10138000E56E0850E56E0750E56E0C50E56E0B50AB
:10139000E56E0A50E56E0950E56E4FEC18F0036EED
:1013A000F3CF04F0080EE1260350056E0450066EDC
:1013B0000001EC51800FF36E0650800FF35C02E1E8
:1013C0000550EB5D03E3056A066A14D00001EB519A
:1013D000FF08036E3F0EEC55046E0650800FF36E4F
:1013E0000450800FF35C02E10350055C03E30568E1
:1013F0003F0E066E0001F051020DF450046EF3CF63
:1014000003F0930E0326040E042203C0E9FF04C078
:10141000EAFFEECF03F0EFCF04F00350055C036E5C
:1014200004500658046ED88004AED89004E3041E1D
:10143000036CD8B4042A022A0001EC51800FF36E29
:101440000450800FF35C02E10350EB5DD8B0DCD6B2
:101450000001F051020DF450086EF3CF07F0930E27
:101460000726040E082207C0E9FF08C0EAFF05C0EE
:10147000EEFF06C0EFFFEDC007F007A459D0F05112
:10148000020DF450086EF3CF07F0000E0724096E2A
:10149000050E08200A6E09C0E9FF0AC0EAFFEECF78
:1014A0000BF0EFCF0CF00B500C10D8B441D0590E0C
:1014B0000726040E082207C0E9FF08C0EAFFEECFA6
:1014C00007F0EFCF08F00750055C036E0850065890
:1014D000046E03101CE00450800F800F02E1010E27
:1014E000035C076A07360C50800F800F02E1010E83
:1014F0000B5C0B6A0B3607500B1809E109C0E9FFBA
:101500000AC0EAFF03C0EEFF04C0EFFF7DD6000172
:10151000F051020DF450046EF3CF03F0000E0326D9
:10152000050E042203C0E9FF04C0EAFFEE6AEF6A79
:10153000EDC003F003A244D000500EE100C003F060
:10154000002A046AF10E0326000E042203C0E9FFFC
:1015500004C0EAFF420EEF6E00C003F0002A046AE6
:10156000F10E0326000E04220001F051076E640EF6
:10157000072603C0E9FF04C0EAFF07C0EFFF00C071
:1015800003F0002A046AF10E0326000E042206501E
:10159000076E03C0E9FF04C0EAFF07C0EFFF00C009
:1015A00003F0002A046AF10E0326000E04220550FF
:1015B000076E03C0E9FF04C0EAFF07C0EFFF24D6AF
:1015C000F0C003F00650E56E0550E56EE56A035085
:1015D000E56E000EE56E380EE56E1A0EE56E20EC37
:1015E00026F0070EE12610D602C001F000501EE0E2
:1015F000EDC002F002A21AD000C002F0002A036A75
:10160000F10E0226000E032202C0E9FF03C0EAFF2A
:101610000A0EEF6E0050E56E800EE56E000EE56E70
:10162000F10EE56E0DEC1BF0040EE1260150E4CF47
:101630000CF0E4CF0BF0E4CF0AF0E4CF09F0E4CFF4
:1016400008F0E4CF07F0E4CF06F0E4CF05F0E4CFF4
:1016500004F0E4CF03F0E4CF02F0E4CF01F0E4CFF4
:1016600000F01200800EE56E040EE56ED30EE56EFE
:10167000FBEC22F0030EE126800EE56E040EE56E13
:10168000B30EE56EFBEC22F0030EE126800EE56E54
:10169000040EE56ED50EE56EFBEC22F0030EE1269E
:1016A000800EE56E040EE56EB50EE56EFBEC22F0E5
:1016B000030EE126800EE56E040EE56ED70EE56E94
:1016C000FBEC22F0030EE126800EE56E040EE56EC3
:1016D000B70EE56EFBEC22F0030EE126800EE56E00
:1016E000040EE56ED90EE56EFBEC22F0030EE1264A
:1016F000800EE56E040EE56EB90EE56EFBEC22F091
:10170000030EE126800EE56E040EE56EDB0EE56E3F
:10171000FBEC22F0030EE126800EE56E040EE56E72
:10172000BB0EE56EFBEC22F0030EE126800EE56EAB
:10173000040EE56EDD0EE56EFBEC22F0030EE126F5
:10174000800EE56E040EE56EBD0EE56EFBEC22F03C
:10175000030EE126800EE56E040EE56EDF0EE56EEB
:10176000FBEC22F0030EE126800EE56E040EE56E22
:10177000BF0EE56EFBEC22F0030EE126800EE56E57
:10178000040EE56EE10EE56EFBEC22F0030EE126A1
:10179000800EE56E040EE56EC10EE56EFBEC22F0E8
:1017A000030EE126800EE56E040EE56EE30EE56E97
:1017B000FBEC22F0030EE126800EE56E040EE56ED2
:1017C000C30EE56EFBEC22F0030EE126800EE56E03
:1017D000040EE56EE50EE56EFBEC22F0030EE1264D
:1017E000800EE56E040EE56EC50EE56EFBEC22F094
:1017F000030EE126800EE56E040EE56EE70EE56E43
:10180000FBEC22F0030EE126800EE56E040EE56E81
:10181000C70EE56EFBEC22F0030EE126800EE56EAE
:10182000040EE56EE90EE56EFBEC22F0030EE126F8
:10183000800EE56E040EE56EC90EE56EFBEC22F03F
:10184000030EE126800EE56E040EE56EEB0EE56EEE
:10185000FBEC22F0030EE126800EE56E040EE56E31
:10186000CB0EE56EFBEC22F0030EE126800EE56E5A
:10187000040EE56EED0EE56EFBEC22F0030EE126A4
:10188000800EE56E040EE56ECD0EE56EFBEC22F0EB
:10189000030EE126800EE56E040EE56EEF0EE56E9A
:1018A000FBEC22F0030EE126800EE56E040EE56EE1
:1018B000CF0EE56EFBEC22F0030EE126800EE56E06
:1018C000040EE56EF10EE56EFBEC22F0030EE12650
:1018D000800EE56E040EE56ED10EE56EFBEC22F097
:1018E000030EE126120000C0E5FF01C0E5FF02C0C3
:1018F000E5FF03C0E5FF0001E751D8B40AD19DA878
:101900001DD09EA81BD00501A05105019D1905E120
:10191000C6EC2FF005019D6BFCD0000E0501A02543
:10192000006E016A040E012200C0E9FF01C0EAFF57
:10193000EFCF99F5A02B99C5ADFFEBD09EAAE9D0CA
:10194000ABA205D005019E81C6EC2FF0E2D0ABA47E
:1019500005D005019E83C6EC2FF0DBD0ABA048D0AC
:10196000AECF99F5E8C000F0016A008E99C502F08B
:10197000036A0250001803E10350011801E004D08B
:1019800005019E89AB96C5D00501995104E0995196
:101990000001E81929E105019E99AB9605019951CD
:1019A00003E005019E9702D005019E8799C5A2F527
:1019B0009BC5A3F505019B51006E00040501A46FB2
:1019C000600E0501A325006E016A000E012200C011
:1019D000E9FF01C0EAFF99C5EFFFA32BA351800ADD
:1019E00002E10501A36B95D005019E99AB8691D0CC
:1019F000AECF99F505019EA921D0E8C000F0016A9B
:101A0000008E99C502F0036A0250001803E10350EA
:101A1000011801E011D094909D9AAB9805019D5159
:101A200004E1AD6AC6EC2FF007D000C4ADFF010E93
:101A30000501A06F9D886DD0AB866BD005019951D3
:101A40000501A2270501A3510501A4191BE1050108
:101A5000A2510CE1A3C59BF505019EB712D094904D
:101A60009D9AAB98AD6AC6EC2FF00BD005019E8510
:101A70009EB707D094909D9AAB98010EAD6EC6ECC0
:101A80002FF047D00501A35105019C1908E105017C
:101A90009C5105019B1903E0C6EC2FF03AD09BC581
:101AA00000F0016A004A012AE56A800EE56E0150E5
:101AB000E56E0050E56E83EC1DF0006E040EE1262D
:101AC000005005019A6F0501A3190FE199C500F0B7
:101AD0001F0E00140501A46F006E020E0024A46FF7
:101AE00005019B510501A427A49FA3C500F0050192
:101AF000A32B016A600E0026000E012200C0E9FF40
:101B000001C0EAFF99C5EFFFA351800A02E1050178
:101B1000A36BE4CF03F0E4CF02F0E4CF01F0E4CF15
:101B200000F0120000C0E5FF01C0E5FF02C0E5FFC4
:101B300003C0E5FF04C0E5FF05C0E5FF06C0E5FF03
:101B400007C0E5FF08C0E5FF09C0E5FF006A016ABC
:101B5000040E015CD8B0E2D0400E0001FE25026EFA
:101B6000036A050E032202C0E9FF03C0EAFFEFCFBC
:101B700002F00250FF0A01E1CAD00001FE39E84438
:101B80001F0B026E8C0E0224036E046A050E0422E3
:101B900003C0E9FF04C0EAFFEFCF03F0FEC004F08A
:101BA000070E0416010E056E000E066E045006E0C8
:101BB000E86CD89005360636010FFCE3076A03503F
:101BC00005160750061605500610D880E866D8900E
:101BD000056A05360550D880E866D890056A05364E
:101BE0000550036E046A8A0E0226050E042202C006
:101BF000E9FF04C0EAFFEFCF05F0FEC006F0070ED4
:101C00000616010E076E000E086E065006E0E86C20
:101C1000D89007360836010FFCE305C006F0096AC4
:101C2000065007160950081607500810D880E866B5
:101C3000D890076A07360750D880E866D890076AB8
:101C400007360350071801E162D003501FE000017E
:101C5000FE51066E070E0616010E076E06500DE0C9
:101C600006E6E86CD8900736010FFDE306D0D89061
:101C700007BED8800732010FFBE30550071202C0F0
:101C8000E9FF04C0EAFF07C0EFFF26D002C0E9FF6A
:101C900004C0EAFFEFCF05F00001FE51066E070E0B
:101CA0000616010E076E06500DE006E6E86CD890A9
:101CB0000736010FFDE306D0D89007BED880073263
:101CC000010FFBE3071C066E0550061602C0E9FF74
:101CD00004C0EAFF06C0EFFF035003E1036A032AD2
:101CE00001D0036AFEC004F0E56A0350E56EE56AC0
:101CF0000450E56E000EE56E4A0EE56EA20EE56E2E
:101D000020EC26F0070EE126012A01C000F00001B8
:101D1000FE2B100EFE5DD8A01BD7FE6B0050E4CF4B
:101D200009F0E4CF08F0E4CF07F0E4CF06F0E4CF09
:101D300005F0E4CF04F0E4CF03F0E4CF02F0E4CF09
:101D400001F0E4CF00F01200D9CFE5FFE1CFD9FFD9
:101D500000C0E5FF01C0E5FF02C0E5FF03C0E5FFED
:101D600004C0E5FF05C0E5FF06C0E5FF07C0E5FFCD
:101D7000020EDBCF00F0030EDBCF01F0040EDBCF51
:101D800002F0050EDBCF03F0060EDBCF04F0070EEA
:101D9000DBCF05F0080EDBCF06F0090EDBCF07F036
:101DA000005004018E6F01508F6F0250906F0350EE
:101DB000916F04500501656F0550666F0650676F9F
:101DC0000750686F04018E5105016703F4CF01F0DD
:101DD000F3CF00F0005005016B6F01506C6F0401F0
:101DE0008E5105016503F4CF01F0F3CF00F00050F0
:101DF0000501696F01506A6F040191510501650386
:101E0000F3CF00F005016C51002600506C6F040107
:101E1000905105016603F3CF01F0015000260050F8
:101E200005016C6F0401905105016503F4CF01F0C9
:101E3000F3CF00F005016B5100266C5101220050D8
:101E40006B6F01506C6F04018F5105016603F4CF75
:101E500003F0F3CF02F0025000260350012200509D
:101E600005016B6F01506C6F04018F510501670311
:101E7000F3CF00F000500501706F04018F51050190
:101E80006503F4CF01F0F3CF00F0005005016E6F51
:101E900001506F6F04018E5105016803F3CF00F00C
:101EA00000500501746F04018E5105016603F4CFE3
:101EB00001F0F3CF00F000500501726F0150736F15
:101EC00005016D6B0501716B05016D5105016925FA
:101ED000006E05016E5105016A21016E05016F5109
:101EE00005016B21026E0501705105016C21036E25
:101EF0000050696F01506A6F02506B6F03506C6F36
:101F00000501715105016925006E05017251050138
:101F10006A21016E0501735105016B21026E0501F5
:101F2000745105016C21036E03C0E9FF02C0F4FF88
:101F300001C0F3FF0050E4CF07F0E4CF06F0E4CF98
:101F400005F0E4CF04F0E4CF03F0E4CF02F0E4CFF7
:101F500001F0E4CF00F0E4CFD9FF1200D9CFE5FFC4
:101F6000E1CFD9FF00C0E5FF01C0E5FF02C0E5FFFA
:101F700003C0E5FF04C0E5FF05C0E5FF06C0E5FFBF
:101F800007C0E5FF08C0E5FF09C0E5FF0AC0E5FF9F
:101F90000BC0E5FF0CC0E5FF0DC0E5FF0EC0E5FF7F
:101FA0000FC0E5FF020EDBCF00F0030EDBCF01F028
:101FB000040EDBCF02F0050EDBCF03F0060EDBCF05
:101FC00004F0070EDBCF05F0080EDBCF06F0200E85
:101FD000076E086A06C009F00A6A0B6A0C6AE56AAD
:101FE000E56AE56A0950E56E0350E56E0250E56E5C
:101FF0000150E56E0050E56E37EC14F00D6E080EE2
:10200000E126300E0D263A0E0D5C05E30D500E6EE6
:10201000270E0E240D6EFF0E07260822200E072421
:102020000E6E050E08200F6E0EC0E9FF0FC0EAFF0E
:102030000DC0EFFF0C50E56E0B50E56E0A50E56EDB
:102040000950E56E0350E56E0250E56E0150E56EF5
:102050000050E56E4FEC18F0006EF3CF01F0F4CFB6
:1020600002F0E9CF03F0080EE12600500110021043
:102070000310D8A4AFD707C000F008C001F004C017
:1020800002F005C003F000C004F001C005F0004AF2
:10209000012A200E0426050E052204C0E9FF05C012
:1020A000EAFFEFCF04F002C0E9FF03C0EAFF04C07B
:1020B000EFFF024A032A000E015C02E1200E005CE1
:1020C000E2E302C0E9FF03C0EAFF000EEF6AE4CFDB
:1020D0000FF0E4CF0EF0E4CF0DF0E4CF0CF0E4CF3E
:1020E0000BF0E4CF0AF0E4CF09F0E4CF08F0E4CF3E
:1020F00007F0E4CF06F0E4CF05F0E4CF04F0E4CF3E
:1021000003F0E4CF02F0E4CF01F0E4CF00F0E4CF3D
:10211000D9FF120000C0E5FF01C0E5FF02C0E5FFE6
:1021200003C0E5FF04C0E5FF05C0E5FF06C0E5FF0D
:1021300007C0E5FF08C0E5FF006A016A026A036A9A
:10214000046A99EC2FF0056E055002E1E86AA7D009
:10215000AE0EE56EE0EC2AF0E652E56E800EE56E1E
:10216000020EE56E000EE56EFC0EE56E2FEC1FF024
:10217000050EE12600C205F0066A01C207F0086AF2
:102180000750055E0850065AD88006AED89007E37F
:10219000061C086E051C076E074A082A04D005C0F5
:1021A00007F006C008F00850800F800F02E10E0E05
:1021B000075C04E305C000F006C001F002C205F0B0
:1021C000066A03C207F0086A0750055E0850065AFF
:1021D000D88006AED89007E3061C086E051C076E73
:1021E000074A082A04D005C007F006C008F00850C6
:1021F000800F800F02E10E0E075C04E305C002F0C1
:1022000006C003F0005001101CE0D88001AED89049
:1022100009E30501B65103E0010E046E12D0050179
:10222000B52B0FD00150800F800F02E1010E005C32
:1022300008E30501B55103E0020E046E02D005016A
:10224000B62B025003101CE0D88003AED89009E3EF
:102250000501B85103E0030E046E12D00501B72B3F
:102260000FD00350800F800F02E1010E025C08E3E3
:102270000501B75103E0040E046E02D00501B82B2E
:102280000050011003E102500310D8A4C7EC27F05E
:10229000045004E010EC30F0045001D0E86AE4CFC0
:1022A00008F0E4CF07F0E4CF06F0E4CF05F0E4CF88
:1022B00004F0E4CF03F0E4CF02F0E4CF01F0E4CF88
:1022C00000F01200D9CFE5FFE1CFD9FF00C0E5FF54
:1022D00001C0E5FF02C0E5FF03C0E5FF04C0E5FF64
:1022E00005C0E5FF06C0E5FF020EDBCF00F0030EE0
:1022F000DBCF01F0040EDBCF02F000C0E9FF01C02C
:10230000F3FF025068EC2FF0036EE56AE56EABEC6C
:1023100029F0E652E652320EE56E52EC2EF0E6520D
:10232000FBEC2BF0010EE56E0350E56EABEC29F0F3
:10233000E652E6520050010F036E000E0120046EBB
:10234000000E0220056E36EC2AF0066E06C0E5FF90
:1023500003C0E9FF04C0F3FF05501BEC30F034EC80
:102360002BF00050020F036E000E0120046E000ED1
:102370000220056E36EC2AF0066E06C0E5FF03C0AB
:10238000E9FF04C0F3FF05501BEC30F034EC2BF0F8
:102390000050030F036E000E0120046E000E022099
:1023A000056E36EC2AF0066E06C0E5FF03C0E9FFB5
:1023B00004C0F3FF05501BEC30F034EC2BF0005060
:1023C000040F036E000E0120046E000E0220056E45
:1023D00036EC2AF0066E06C0E5FF03C0E9FF04C034
:1023E000F3FF05501BEC30F034EC2BF00050050FE0
:1023F000036E000E0120046E000E0220056E36EC06
:102400002AF0066E06C0E5FF03C0E9FF04C0F3FF33
:1024100005501BEC30F034EC2BF0060E0026000EBD
:102420000122022236EC2AF0036E03C0E5FF00C051
:10243000E9FF01C0F3FF02501BEC30F0FBEC2BF086
:10244000E4CF06F0E4CF05F0E4CF04F0E4CF03F0EE
:10245000E4CF02F0E4CF01F0E4CF00F0E4CFD9FF05
:10246000120000C0E5FF01C0E5FF02C0E5FF03C0A8
:10247000E5FF04C0E5FF05C0E5FF006A400E00244B
:10248000016E026A050E022201C0E9FF02C0EAFFE6
:10249000EFCF01F00150FF0A01E185D001380F0BA9
:1024A000026E036A800E02260F0E032202C0E9FFAD
:1024B00003C0EAFFEFCF02F0070E0116010E036E14
:1024C000000E046E015006E0E86CD8900336043626
:1024D000010FFCE3056A0250031605500416035071
:1024E0000410D880E866D890036A033603502DE1C3
:1024F0000038E8441F0B016E026A8C0E0126050E9F
:10250000022201C0E9FF02C0EAFFEFCF03F0005052
:10251000046E070E0416010E056E04500DE006E66B
:10252000E86CD8900536010FFDE306D0D89005BEC3
:10253000D8800532010FFBE30350051201C0E9FF0B
:1025400002C0EAFF05C0EFFF2ED00038E8441F0BA1
:10255000016E026A8C0E0126050E022201C0E9FFFF
:1025600002C0EAFFEFCF03F00050046E070E04161E
:10257000010E056E04500DE006E6E86CD8900536B5
:10258000010FFDE306D0D89005BED8800532010FBB
:10259000FBE3051C046E0350041601C0E9FF02C0F2
:1025A000EAFF04C0EFFF002A100E005CD8A066D737
:1025B000E4CF05F0E4CF04F0E4CF03F0E4CF02F081
:1025C000E4CF01F0E4CF00F01200D9CFE5FFE1CF76
:1025D000D9FF00C0E5FF01C0E5FF02C0E5FF03C071
:1025E000E5FF04C0E5FF05C0E5FF06C0E5FF07C045
:1025F000E5FF08C0E5FF09C0E5FF0AC0E5FF0BC025
:10260000E5FF0CC0E5FF0DC0E5FF020EDBCF00F0DB
:10261000030EDBCF01F0040EDBCF02F0050EDBCFA3
:1026200003F0060EDBCF04F0070EDBCF05F0080E3B
:10263000DBCF06F0090EDBCF07F00A0EDBCF08F088
:102640000B0EDBCF09F00C0EDBCF0AF00D0EDBCF4B
:102650000BF0940EE56E32EC24F00C6EF3CF0DF01F
:10266000E6520CC0E5FF0DC0F4FF09C0E9FF0AC047
:10267000F3FF0B50E2EC2FF0960EE56E32EC24F0F7
:10268000096EF3CF0AF0E65209C0E5FF0AC0F4FF75
:1026900000C0E9FF01C0F3FF0250E2EC2FF0980EFA
:1026A000E56E32EC24F0006EF3CF01F0E65200C08C
:1026B000E5FF01C0F4FF03C0E9FF04C0F3FF0550CC
:1026C000E2EC2FF09A0EE56E32EC24F0006EF3CFC0
:1026D00001F0E65200C0E5FF01C0F4FF06C0E9FFCB
:1026E00007C0F3FF0850E2EC2FF0E4CF0DF0E4CF89
:1026F0000CF0E4CF0BF0E4CF0AF0E4CF09F0E4CF24
:1027000008F0E4CF07F0E4CF06F0E4CF05F0E4CF23
:1027100004F0E4CF03F0E4CF02F0E4CF01F0E4CF23
:1027200000F0E4CFD9FF120000C0E5FF01C0E5FFD3
:1027300002C0E5FF03C0E5FF6CEC15F091EC06F07C
:1027400031EC12F06CEC15F0F5EC1FF06CEC15F0C0
:102750008CEC2AF0006EF3CF01F0F4CF02F0E9CF59
:1027600003F004013351005E3451015A3551025ACD
:102770003651035A039E3F0E035C08E1FF0E025CD4
:1027800005E1FF0E015C02E1FF0E005CD8B066D0EF
:102790008CEC2AF0F3CF01F0F4CF02F0E9CF03F094
:1027A000100F0401336F270E0120346F000E02203A
:1027B000356F000E0320366FE1C000F000B00DD081
:1027C000010EE56E800EE56E040EE56E790EE56E87
:1027D000D4EC14F0040EE1260CD0020EE56E800E4F
:1027E000E56E040EE56E810EE56ED4EC14F0040E79
:1027F000E12692EC0DF0006E0050D8B4E7EC08F042
:102800000001E12B6CEC15F0800EE56E040EE56E18
:10281000790EE56E62EC11F0030EE1266CEC15F01A
:10282000800EE56E040EE56E810EE56E62EC11F031
:10283000030EE1266CEC15F00001E1510FE1E0C060
:1028400000F0E56A0050E56E000EE56E540EE56E90
:102850005A0EE56E20EC26F0050EE126E4CF03F0DB
:10286000E4CF02F0E4CF01F0E4CF00F01200D9CFC2
:10287000E5FFE1CFD9FF00C0E5FF01C0E5FF02C0E1
:10288000E5FF03C0E5FF04C0E5FF05C0E5FF06C0A6
:10289000E5FF07C0E5FF08C0E5FF09C0E5FF0AC086
:1028A000E5FF020EDBCF00F0030EDBCF01F0040EDC
:1028B000DBCF02F0050EDBCF03F0060EDBCF04F01A
:1028C000070EDBCF05F0080EDBCF06F0090EDBCFDD
:1028D00007F0086A045005100610071005E1E968C2
:1028E000F468F368E86847D0096A0750800BE84449
:1028F0000A6E0A501BE104500426053606360736D8
:102900000750035C08E10650025C05E10550015CDC
:1029100002E10450005C06E2D8900732063205322C
:10292000043204D0092A09C008F0DFD70750035C3D
:1029300008E10650025C05E10550015C02E104502B
:10294000005C08E30450005E0550015A0650025A2C
:102950000750035AD890073206320532043208C0B5
:1029600009F008060950E2E103C0E9FF02C0F4FFE4
:1029700001C0F3FF0050E4CF0AF0E4CF09F0E4CF48
:1029800008F0E4CF07F0E4CF06F0E4CF05F0E4CFA1
:1029900004F0E4CF03F0E4CF02F0E4CF01F0E4CFA1
:1029A00000F0E4CFD9FF1200D9CFE5FFE1CFD9FF86
:1029B00000C0E5FF01C0E5FF02C0E5FF03C0E5FF81
:1029C00004C0E5FF020EDBCF00F0030EDBCF01F009
:1029D000040EDBCF02F0050EDBCF03F0420E050143
:1029E0005C6F03505D6F0050010F036E000E0120FD
:1029F000046E000E022003C0E9FF04C0F3FF68EC80
:102A00002FF005015E6F0050020F036E000E0120D3
:102A1000046E000E022003C0E9FF04C0F3FF68EC5F
:102A20002FF005015F6F0050030F036E000E0120B1
:102A3000046E000E022003C0E9FF04C0F3FF68EC3F
:102A40002FF00501606F0050040F036E000E01208F
:102A5000046E000E022003C0E9FF04C0F3FF68EC1F
:102A60002FF00501616F0050050F036E000E01206D
:102A7000046E000E022003C0E9FF04C0F3FF68ECFF
:102A80002FF00501626F060E0026000E01220222C1
:102A900000C0E9FF01C0F3FF025068EC2FF0050110
:102AA000636F0A0E646F090EE56E800EE56E050E0B
:102AB000E56E5C0EE56E0DEC1BF0040EE126E4CF36
:102AC00004F0E4CF03F0E4CF02F0E4CF01F0E4CF70
:102AD00000F0E4CFD9FF120000C0E5FF01C0E5FF20
:102AE00002C0E5FF03C0E5FF04C0E5FF05019C51FE
:102AF00005019B1901E167D09CC500F00050016EF3
:102B00000128006E009E600E0024016E026A000E15
:102B1000022201C0E9FF02C0EAFFEFCFA6F51F0EB7
:102B20000501A6179CC5A5F5A6510501A527A55128
:102B3000016E020E0124A56FA59FB6EC2AF0016E6E
:102B4000015003E1016A012A01D0016AB6EC2AF0C2
:102B50000501A66FA6C502F0800E0216A6C503F0F9
:102B60001F0E031603C004F003C0A6F5045003E1D2
:102B70009BC59CF53BD001501EE0025022E0B6EC14
:102B80002AF0006E0501A651016E0104A66F0050E7
:102B9000420A17E000504E0A03E1DEEC25F011D0A6
:102BA0000050460A03E1FAEC2FF00BD00050490A1E
:102BB00008E1FF0006D09CC5A7F50250D8A413EC8D
:102BC0001CF0A5C59CF50001E4510001E51906E0E3
:102BD00005019D5103E101EC16F008D094B006D038
:102BE00005019D5103E1ACB2C6EC2FF0E4CF04F037
:102BF000E4CF03F0E4CF02F0E4CF01F0E4CF00F043
:102C0000120000C0E5FF01C0E5FF02C0E5FF03C000
:102C1000E5FF04C0E5FFACA27ED0D8EC2CF0006E3E
:102C2000005005E10001E56B0001E46B74D0E5C0E4
:102C300001F000500126D8EC2CF0026E0050036E1B
:102C40000304006E0250230A1FE1010E005CD8A0AD
:102C500060D0D8EC2CF0026E690A03E17AEC29F01E
:102C600058D00250720A03E1C6EC2FF052D0025045
:102C7000730A01E04ED09480AB869D8A9D98AE5039
:102C8000AE50AB98AB8845D00250430A05E00250E5
:102C9000420A01E03ED006D000C003F0046A038E71
:102CA0000350006E00C09FF500500401006F010E3C
:102CB0000501A06F0001E551011814E0D8EC2CF0DB
:102CC000026E05019F27000E0501A025006E036A14
:102CD000040E032200C0E9FF03C0EAFF02C0EFFFB9
:102CE000A02BE8D7000E0501A025006E026A040E95
:102CF000022205019F1D036E032A00C0E9FF02C0E6
:102D0000EAFF03C0EFFF0501A02BA0C59DF504015C
:102D1000886B01C0E5F0E4CF04F0E4CF03F0E4CF2A
:102D200002F0E4CF01F0E4CF00F01200D9CFE5FFCC
:102D3000E1CFD9FF00C0E5FF01C0E5FF02C0E5FF1C
:102D400003C0E5FF04C0E5FF06C0E5FF020EDBCFD0
:102D500000F0030EDBCF01F0040EDBCF02F03F0EDC
:102D6000C716C66AC56A0050C6120150C7129488B9
:102D7000820E006E0F0E016E0F0E046E380E0026CE
:102D8000045001220F0E046E800E005E0450015AA2
:102D9000820E036E0F0E046E0F0E066E380E0326A3
:102DA000065004220F0E066E800E035E0650045A73
:102DB00003C0E9FF04C0EAFFEFCF03F0039800C0AF
:102DC000E9FF01C0EAFF03C0EFFF9486820E006EA8
:102DD0000F0E016E0F0E046E380E002604500122F5
:102DE0000F0E046E800E005E0450015A820E036EB8
:102DF0000F0E046E0F0E066E380E032606500422C8
:102E00000F0E066E800E035E0650045A03C0E9FFE3
:102E100004C0EAFFEFCF03F0039600C0E9FF01C052
:102E2000EAFF03C0EFFF02C0C8FFC6CF00F0008A70
:102E30000050C66E9E96A196E4CF06F0E4CF04F053
:102E4000E4CF03F0E4CF02F0E4CF01F0E4CF00F0F0
:102E5000E4CFD9FF1200D9CFE5FFE1CFD9FF00C001
:102E6000E5FF01C0E5FF02C0E5FF03C0E5FF04C0C8
:102E7000E5FF05C0E5FF06C0E5FF07C0E5FF08C0A8
:102E8000E5FF09C0E5FF0AC0E5FF020EDBCF00F059
:102E9000030EDBCF01F0040EDBCF02F0050EDBCF1B
:102EA00003F0060EDBCF04F0070EDBCF05F0003891
:102EB000E8441F0B066E076A880E0626050E0722D9
:102EC00006C0E9FF07C0EAFFEFCF08F00050096E27
:102ED000070E0916010E0A6E09500DE006E6E86CB1
:102EE000D8900A36010FFDE306D0D8900ABED880EC
:102EF0000A32010FFBE308500A1206C0E9FF07C0BF
:102F0000EAFF0AC0EFFF230E0024066E076A0F0EC9
:102F1000072206C0E9FF07C0EAFF01C0EFFF016A10
:102F2000230E0026040E0122800E025E070E0216FA
:102F30000238F00B036E070E05160550032600C07D
:102F4000E9FF01C0EAFF03C0EFFFE4CF0AF0E4CFDE
:102F500009F0E4CF08F0E4CF07F0E4CF06F0E4CFC7
:102F600005F0E4CF04F0E4CF03F0E4CF02F0E4CFC7
:102F700001F0E4CF00F0E4CFD9FF1200D9CFE5FF94
:102F8000E1CFD9FF00C0E5FF01C0E5FF02C0E5FFCA
:102F900003C0E5FF04C0E5FF05C0E5FF06C0E5FF8F
:102FA00007C0E5FF020EDBCF00F0030EDBCF01F020
:102FB0008CEC2AF0026EF3CF03F0F4CF04F0E9CFEB
:102FC00005F0E56AE56A0150E56E0050E56EE56AD8
:102FD0000F0EE56E420EE56E400EE56EA4EC0EF0AF
:102FE000006EF3CF01F0F4CF06F0E9CF07F0080E42
:102FF000E126E56AE56A030EE56EE80EE56E075028
:10300000E56E0650E56E0150E56E0050E56E4FEC42
:1030100018F0006EF3CF01F0F4CF06F0E9CF07F01F
:10302000080EE12600500224006E01500320016EBC
:1030300006500420026E07500520036E8CEC2AF027
:10304000046EF3CF05F0F4CF06F0E9CF07F000509F
:10305000045E0150055A0250065A0350075A079E53
:103060003F0E075C08E1FF0E065C05E1FF0E055C04
:1030700002E1FF0E045CE2E2E4CF07F0E4CF06F0E9
:10308000E4CF05F0E4CF04F0E4CF03F0E4CF02F0A6
:10309000E4CF01F0E4CF00F0E4CFD9FF1200D9CFA4
:1030A000E5FFE1CFD9FF00C0E5FF01C0E5FF02C0A9
:1030B000E5FF03C0E5FF04C0E5FF05C0E5FF06C06E
:1030C000E5FF07C0E5FF08C0E5FF09C0E5FF0AC04E
:1030D000E5FF0BC0E5FF0CC0E5FF0DC0E5FF020EEC
:1030E000DBCF00F0030EDBCF01F0040EDBCF02F0EC
:1030F000050EDBCF03F0060EDBCF04F0070EDBCFAF
:1031000005F0080EDBCF06F0090EDBCF07F0086AEA
:10311000096A0A6A0B6A200E0C6E0350800BE844A1
:103120000D6E005000260136023603360850082680
:1031300009360A360B360D50D8A4088007500B5CB0
:1031400008E106500A5C05E10550095C02E1045003
:10315000085C09E30450085E0550095A06500A5AF3
:1031600007500B5A00800C040D6E0DC00CF00D5072
:10317000D4E103C0E9FF02C0F4FF01C0F3FF005037
:10318000E4CF0DF0E4CF0CF0E4CF0BF0E4CF0AF085
:10319000E4CF09F0E4CF08F0E4CF07F0E4CF06F085
:1031A000E4CF05F0E4CF04F0E4CF03F0E4CF02F085
:1031B000E4CF01F0E4CF00F0E4CFD9FF120000C06B
:1031C000E5FF01C0E5FF03C0E5FF04C0E5FF05C062
:1031D000E5FF06C0E5FF07C0E5FF08C0E5FF09C041
:1031E000E5FF0AC0E5FF0BC0E5FF86C500F087C517
:1031F00001F00501863F01D0872B0050E56EB8EC49
:103200002FF0E652076E046A056A066A86C500F06A
:1032100087C501F00501863F01D0872B0050E56E80
:10322000B8EC2FF0E6520B6A0A6E086A08500412D6
:1032300005120A5006120B50071286C500F087C50A
:1032400001F00501863F01D0872B0050E56EB8ECF8
:103250002FF0E652036E006A03C001F0E86A03BE75
:10326000FF0E086E096E005004120150051208503E
:1032700006120950071286C500F087C501F0050146
:10328000863F01D0872B0050E56EB8EC2FF0E65258
:10329000016A0412015005120612071207C0E9FF65
:1032A00006C0F4FF05C0F3FF0450E4CF0BF0E4CFF9
:1032B0000AF0E4CF09F0E4CF08F0E4CF07F0E4CF60
:1032C00006F0E4CF05F0E4CF04F0E4CF03F0E4CF60
:1032D00001F0E4CF00F01200D9CFE5FFE1CFD9FF34
:1032E00000C0E5FF01C0E5FF02C0E5FF03C0E5FF48
:1032F00004C0E5FF05C0E5FF06C0E5FF07C0E5FF28
:10330000020EDBCF00F0030EDBCF01F0040EDBCFAB
:1033100002F0050EDBCF03F003C004F0056A035092
:10332000D8B454D000C0E9FF01C0F3FF025068ECEC
:103330002FF0066E430A08E1010E056E03C006F089
:10334000076A068E0650036E0406002A02E3014A4D
:10335000022A94909D9AAB989D989EA8FED7AC8027
:10336000AD6A00009EA8FED7AC9003C0ADFF000080
:103370009EA8FED7055004E0420EAD6E032604D091
:10338000620EAD6E620E0326045015E000009EA88A
:10339000FED700C0E9FF01C0F3FF025068EC2FF038
:1033A000056E05C0ADFF055003260406002A02E3A2
:1033B000014A022AE9D700009EA8FED7031CAD6E81
:1033C000AD2A00009EA8FED7C6EC2FF0E4CF07F090
:1033D000E4CF06F0E4CF05F0E4CF04F0E4CF03F04F
:1033E000E4CF02F0E4CF01F0E4CF00F0E4CFD9FF66
:1033F0001200D9CFE5FFE1CFD9FF00C0E5FF01C042
:10340000E5FF02C0E5FF03C0E5FF04C0E5FF05C01E
:10341000E5FF06C0E5FF07C0E5FF020EDBCF00F0C9
:10342000030EDBCF01F0040EDBCF02F0050EDBCF85
:1034300003F002C006F00650046E800A33E100C0BB
:10344000E9FF01C0F3FF025005EC2EF0056EF3CF4B
:1034500006F0F4CF07F003C0E5FF05C0E9FF06C0A2
:10346000F3FF07501BEC30F000C0E9FF01C0F3FF91
:10347000025005EC2EF0056EF3CF06F0F4CF07F006
:10348000052A02E3064A072A05C0E5FF06C0F4FF45
:1034900007C0F6FF00C0E9FF01C0F3FF0250A9EC2E
:1034A0002FF020D004C000F000AA1CD0007A0050F9
:1034B000046E04E103506EEC30F014D00450010AA5
:1034C00004E1035081EC30F00DD004500F0A04E108
:1034D000035049EC29F006D004500E0A03E10350D2
:1034E0007EEC30F0E4CF07F0E4CF06F0E4CF05F057
:1034F000E4CF04F0E4CF03F0E4CF02F0E4CF01F036
:10350000E4CF00F0E4CFD9FF1200D9CFE5FFE1CF3F
:10351000D9FF00C0E5FF01C0E5FF02C0E5FF03C021
:10352000E5FF04C0E5FF05C0E5FF06C0E5FF020EAC
:10353000DBCF00F000502FE1928A800E016E0F0E5B
:10354000026E0F0E046E380E012604500222800E09
:10355000036E0F0E046E800E015E0450025A0F0EB1
:10356000066E380E0326065004220F0E066E800EDD
:10357000035E0650045A03C0E9FF04C0EAFFEFCF20
:1035800003F0038A01C0E9FF02C0EAFF03C0EFFFB6
:103590009298899831D00050020A2EE19288800ECC
:1035A000006E0F0E016E0F0E036E380E00260350D4
:1035B0000122800E026E0F0E036E800E005E03501D
:1035C000015A0F0E056E380E0226055003220F0E0B
:1035D000056E800E025E0550035A02C0E9FF03C06B
:1035E000EAFFEFCF02F0028800C0E9FF01C0EAFF66
:1035F00002C0EFFF929A899AE4CF06F0E4CF05F07B
:10360000E4CF04F0E4CF03F0E4CF02F0E4CF01F024
:10361000E4CF00F0E4CFD9FF1200D9CFE5FFE1CF2E
:10362000D9FF00C0E5FF01C0E5FF02C0E5FF03C010
:10363000E5FF04C0E5FF05C0E5FF06C0E5FF07C0E4
:10364000E5FF020EDBCF00F0030EDBCF01F0040E2E
:10365000DBCF02F0050EDBCF03F0E5C0E6F00001A2
:10366000E4510001E65FE651046E0404E66F03C016
:1036700004F0056A030E0426D8B0052AE6C006F059
:10368000076A0750800FF36E0550800FF35C02E16C
:103690000450065C02E2E86830D0020E035C02E2ED
:1036A000E86A2BD00350046E0404036EE56EDCEC74
:1036B00026F0E652046A0350045C14E2045000242D
:1036C000056EE86A0120066EE86A022005C0E9FF7F
:1036D00006C0F3FF68EC2FF0042AE56EDCEC26F060
:1036E000E652E9D7E5C0E6F00001E4510001E65FEB
:1036F000E651006E0004E66FE86AE4CF07F0E4CF1D
:1037000006F0E4CF05F0E4CF04F0E4CF03F0E4CF1B
:1037100002F0E4CF01F0E4CF00F0E4CFD9FF1200D3
:1037200000C0E5FF01C0E5FF02C0E5FF03C0E5FF03
:1037300004C0E5FF006A880E0024016E026A050ECF
:10374000022201C0E9FF02C0EAFFEF6A002A020E6E
:10375000005CF1E3006A0050020DF450026EF3CFFA
:1037600001F0390E0124036E040E0220046E03C022
:10377000E9FF04C0EAFFEE6AEF6A590E0124036E06
:10378000040E0220046E03C0E9FF04C0EAFFEE6AE3
:10379000EF6A930E0124036E040E0220046E03C030
:1037A000E9FF04C0EAFFEE6AEF6AB30E0124036E7C
:1037B000040E0220046E03C0E9FF04C0EAFFEE6AB3
:1037C000EF6AD30E0126040E022201C0E9FF02C0F7
:1037D000EAFFEE687F0EEF6E230E0024016E026A90
:1037E000040E022201C0E9FF02C0EAFFEF68002ACE
:1037F000100E005CD8A0AFD7AF0EC06EC16A010E2C
:10380000C26EC282E4CF04F0E4CF03F0E4CF02F052
:10381000E4CF01F0E4CF00F0120043204120256402
:103820002025640A000000C0E5FF01C0E5FF02C0DA
:10383000E5FFB6EC2AF0006E4C0A08E1B6EC2AF07F
:10384000006E300A02E08B8201D08B920050530A46
:1038500008E1B6EC2AF0300A02E18A8E5ED08A9E38
:103860005CD00050450A27E1000EE56E540EE56E6F
:10387000660EE56E20EC26F0030EE12678EC30F0C3
:10388000006E00C001F001C002F0010602500FE01E
:10389000B6EC2AF0E56AE56E000EE56E540EE56EB4
:1038A000680EE56E20EC26F0050EE126ECD70A0E38
:1038B00049EC29F032D00050520A21E1270EE56E82
:1038C000E56A080EE56E96EC16F0030EE126E56A51
:1038D000800EE56E040EE56E790EE56EB0EC20F01C
:1038E000040EE126010EE56E800EE56E040EE56E17
:1038F000810EE56EB0EC20F0040EE1260ED00050F3
:10390000410A0BE1270EE56EE56A080EE56E96ECBE
:1039100016F0030EE1260BEC2AF0E4CF02F0E4CF20
:1039200001F0E4CF00F01200920EE56EE0EC2AF018
:10393000E652AB0A02E0E86A6ED0E56A0A0EE56E6E
:10394000E5EC23F0E652E652010EE56ECBEC2DF0ED
:10395000E652000EE56A01EC28F0E652000EE56A38
:1039600061EC2AF0E652000EE56A0AEC2BF0E65212
:103970000501AC99AC9BAC51E56E800EE56EF7ECA1
:103980002CF0E652E652E56AE56AE56AE56AE70E7A
:10399000E56EACEC22F0050EE126000EE56A5DEC6A
:1039A0002BF0E652E56A0A0EE56EBEEC17F0E65221
:1039B000E652010EE56E5DEC2BF0E652E56A0A0E6A
:1039C000E56EBEEC17F0E652E652000EE56AAEEC8C
:1039D0002DF0E652010EE56E35EC2DF0E652020EAA
:1039E000E56E16EC2DF0E652320EE56EDCEC2EF0B4
:1039F000E65210EC30F00501AD513F0BC009AD6F40
:103A0000C00B0909AD6FE56EA60EE56EF7EC2CF064
:103A1000E652E652010E1200D9CFE5FFE1CFD9FF01
:103A200000C0E5FF01C0E5FF02C0E5FF03C0E5FF00
:103A300004C0E5FF05C0E5FF020EDBCF00F0030E7A
:103A4000DBCF01F0040EDBCF02F00050020DF4508A
:103A5000036EF3CF00F0590E0024046E040E032011
:103A6000056E04C0E9FF05C0EAFF01C0EEFF02C019
:103A7000EFFF930E0024046E040E0320056E04C0B5
:103A8000E9FF05C0EAFFEECF04F0EFCF05F00150EB
:103A9000045C016E02500558026E000E0026050EF1
:103AA000032200C0E9FF03C0EAFF01C0EEFF02C02D
:103AB000EFFFD88002AED89004E3021E016CD8B4A8
:103AC000022A0250800F800F02E1030E015C02E225
:103AD000016A026A0150021007E100C0E9FF03C059
:103AE000EAFF000EEE6AEF6AE4CF05F0E4CF04F0DF
:103AF000E4CF03F0E4CF02F0E4CF01F0E4CF00F034
:103B0000E4CFD9FF1200D9CFE5FFE1CFD9FF00C044
:103B1000E5FF01C0E5FF02C0E5FF03C0E5FF04C00B
:103B2000E5FF05C0E5FF06C0E5FF020EDBCF00F0B4
:103B3000030EDBCF01F0040EDBCF02F0050EDBCF6E
:103B400003F0D88001AED890046A0436045007E030
:103B5000011C066E001C056E054A062A04D000C032
:103B600005F001C006F0D88003AED89007E3031C2F
:103B7000016E021C006E004A012A04D002C000F04F
:103B800003C001F00150E56E0050E56E0650E56E91
:103B90000550E56E53EC20F0006EF3CF01F0040EFB
:103BA000E12604500AE0011C036E001C026E024A6A
:103BB000032A03C0F3FF025003D001C0F3FF0050FB
:103BC000E4CF06F0E4CF05F0E4CF04F0E4CF03F057
:103BD000E4CF02F0E4CF01F0E4CF00F0E4CFD9FF6E
:103BE0001200D9CFE5FFE1CFD9FF00C0E5FF01C04A
:103BF000E5FF02C0E5FF03C0E5FF04C0E5FF05C027
:103C0000E5FF020EDBCF00F0030EDBCF01F0040E68
:103C1000DBCF02F0050EDBCF03F086C504F087C5CD
:103C200005F00501863F01D0872B0350E56E045057
:103C3000E56E94EC2CF0E652E65286C504F087C59A
:103C400005F00501863F01D0872B0250056EE56E19
:103C50000450E56E94EC2CF0E652E65286C504F072
:103C600087C505F00501863F01D0872B0150E56E21
:103C70000450E56E94EC2CF0E652E65286C504F052
:103C800087C505F00501863F01D0872B0050E56E02
:103C90000450E56E94EC2CF0E652E652E4CF05F0C9
:103CA000E4CF04F0E4CF03F0E4CF02F0E4CF01F07E
:103CB000E4CF00F0E4CFD9FF1200D9CFE5FFE1CF88
:103CC000D9FF00C0E5FF01C0E5FF02C0E5FF03C06A
:103CD000E5FF04C0E5FF05C0E5FF06C0E5FF020EF5
:103CE000DBCF00F0030EDBCF01F00038E8441F0B00
:103CF000026E036A880E0226050E032202C0E9FF47
:103D000003C0EAFFEFCF04F00050056E070E051662
:103D1000010E066E05500DE006E6E86CD8900636FA
:103D2000010FFDE306D0D89006BED8800632010F01
:103D3000FBE30450061202C0E9FF03C0EAFF06C01D
:103D4000EFFF230E0024026E036A0F0E032202C04F
:103D5000E9FF03C0EAFF01C0EFFF016A230E00265E
:103D6000040E012200C0E9FF01C0EAFFFF0EEF6868
:103D7000E4CF06F0E4CF05F0E4CF04F0E4CF03F0A5
:103D8000E4CF02F0E4CF01F0E4CF00F0E4CFD9FFBC
:103D90001200D9CFE5FFE1CFD9FF00C0E5FF01C098
:103DA000E5FF02C0E5FF03C0E5FF04C0E5FF05C075
:103DB000E5FF06C0E5FF020EDBCF00F0030EDBCF10
:103DC00001F0040EDBCF02F00401375119E1DFEC02
:103DD00018F0036EF3CF04F0F4CF05F0E9CF06F04E
:103DE00003C0E5FF04C0F4FF05C0F6FF06C0F7FFFF
:103DF00000C0E9FF01C0F3FF025057EC2FF01ED0C6
:103E000004013751010A1AE100C0E9FF01C0F3FFC4
:103E10000250B8EC2CF0006EF3CF01F0F4CF02F0BA
:103E2000E9CF03F00350E56E0250E56E0150E56EF8
:103E30000050E56EF1EC1DF0040EE126E4CF06F033
:103E4000E4CF05F0E4CF04F0E4CF03F0E4CF02F0D8
:103E5000E4CF01F0E4CF00F0E4CFD9FF1200D9CFD6
:103E6000E5FFE1CFD9FF00C0E5FF01C0E5FF02C0DB
:103E7000E5FF03C0E5FF04C0E5FF05C0E5FF020E56
:103E8000DBCF00F0030EDBCF01F0040EDBCF02F03E
:103E9000050EDBCF03F0060EDBCF04F0E56A390E2A
:103EA000E56EABEC29F0E652E6520050E56E52ECBE
:103EB0002EF0E652FBEC2BF0010EE56E390EE56EAE
:103EC000ABEC29F0E652E652006A04C005F00406A5
:103ED000055016E036EC2AF0056E05C0E5FF01C07E
:103EE000E9FF02C0F3FF03501BEC30F0012A02E3AC
:103EF000024A032A045002E034EC2BF0002AE5D7F2
:103F0000FBEC2BF00050E4CF05F0E4CF04F0E4CF5D
:103F100003F0E4CF02F0E4CF01F0E4CF00F0E4CF0F
:103F2000D9FF1200D9CFE5FFE1CFD9FF00C0E5FFEF
:103F300001C0E5FF02C0E5FF03C0E5FF04C0E5FFE7
:103F400005C0E5FF06C0E5FF020EDBCF00F0030E63
:103F5000DBCF01F0040EDBCF02F0050EDBCF03F068
:103F6000060EDBCF04F0070EDBCF05F0080EDBCF2B
:103F700006F0D88003AED89015E306500A0A12E185
:103F800004C0E9FF05C0EAFF2D0EEF6E044A052AC2
:103F9000031E021E011E006C05E1012A03E1022A34
:103FA000D8B4032A0650E56E0550E56E0450E56E60
:103FB0000350E56E0250E56E0150E56E0050E56E6F
:103FC000AEEC0FF0070EE126E4CF06F0E4CF05F0EB
:103FD000E4CF04F0E4CF03F0E4CF02F0E4CF01F04B
:103FE000E4CF00F0E4CFD9FF120000C0E5FF89EC78
:103FF0002FF0006E0050D8B453D0800EE56E050E41
:10400000E56E840EE56E800EE56E050EE56E820EA1
:10401000E56E800EE56E050EE56E800EE56E800E97
:10402000E56E050EE56E7E0EE56EE5EC12F00C0E0B
:10403000E126420E0501506F0A0E516F05017F51B6
:104040000501526F05017E510501536F0501815134
:104050000501546F050180510501556F050183511C
:104060000501566F050182510501576F0501855104
:104070000501586F050184510501596F63EC30F05B
:1040800005015A6F0A0E5B6F0C0EE56E800EE56E31
:10409000050EE56E500EE56E0DEC1BF0040EE126EC
:1040A000E4CF00F01200D9CFE5FFE1CFD9FF00C087
:1040B000E5FF01C0E5FF02C0E5FF03C0E5FF04C066
:1040C000E5FF05C0E5FF06C0E5FF020EDBCF00F00F
:1040D000030EDBCF01F0040EDBCF02F0050EDBCFC9
:1040E00003F0046A056A0350800BE844066E06502C
:1040F00011E10250022603360350015C02E1025036
:10410000005C04E2D8900332023204D0052A05C0D4
:1041100004F0E9D70350015C02E10250005C04E3C3
:104120000250005E0350015AD8900332023204C09C
:1041300005F004060550EEE101C0F3FF0050E4CFA6
:1041400006F0E4CF05F0E4CF04F0E4CF03F0E4CFD1
:1041500002F0E4CF01F0E4CF00F0E4CFD9FF120089
:10416000D9CFE5FFE1CFD9FF00C0E5FF01C0E5FFF2
:1041700002C0E5FF03C0E5FF020EDBCF00F0030E37
:10418000DBCF01F0040EDBCF02F0050EDBCF03F036
:10419000035003E11D0E036E02D0530E036E03C0E5
:1041A000E5FF00C0E9FF01C0F3FF02501BEC30F057
:1041B000E56A2D0EE56E0350E56EDCEC29F0030E8A
:1041C000E126100EE56E2D0EE56E0350E56EDCEC7B
:1041D00029F0030EE126080EE56E2D0EE56E035064
:1041E000E56EDCEC29F0030EE1260B0EE56E310ED8
:1041F000E56E0350E56EDCEC29F0030EE126E4CF1A
:1042000003F0E4CF02F0E4CF01F0E4CF00F0E4CF1C
:10421000D9FF1200D9CFE5FFE1CFD9FF00C0E5FFFC
:1042200001C0E5FF02C0E5FF03C0E5FF04C0E5FFF4
:1042300005C0E5FF06C0E5FF07C0E5FF020EDBCFC6
:1042400000F0030EDBCF01F0040EDBCF02F0050E11
:10425000DBCF03F0046A056A100E066E0150800B76
:10426000E844076E00500026013604500426053647
:104270000750D8A404800350055C02E10250045C9E
:1042800005E30250045E0350055A00800604076EE1
:1042900007C006F00750E2E101C0F3FF0050E4CF91
:1042A00007F0E4CF06F0E4CF05F0E4CF04F0E4CF6C
:1042B00003F0E4CF02F0E4CF01F0E4CF00F0E4CF6C
:1042C000D9FF1200D9CFE5FFE1CFD9FF00C0E5FF4C
:1042D00001C0E5FF02C0E5FF03C0E5FF020EDBCF32
:1042E00000F0030EDBCF01F0040EDBCF02F000C0C4
:1042F000E9FF01C0F3FF025068EC2FF0036E03509A
:1043000029E0C6A610D00350E56E52EC2EF0036EE5
:10431000E652035002E0FD0E1ED08DEC27F0C5AC36
:1043200014D0FE0E18D09E9600C0E9FF01C0F3FF26
:10433000025068EC2FF0C96EC6889EA6FED7C7B49F
:1043400004D0C7B002D0FE0E06D0002AD0E3014A46
:10435000022ACDD7E86AE4CF03F0E4CF02F0E4CF3D
:1043600001F0E4CF00F0E4CFD9FF1200D9CFE5FF90
:10437000E1CFD9FF00C0E5FF01C0E5FF02C0E5FFC6
:1043800003C0E5FF04C0E5FF05C0E5FF020EDBCF7B
:1043900000F0030EDBCF01F0040EDBCF02F0050EC0
:1043A000DBCF03F0046A03C005F00306055022E0EA
:1043B00036EC2AF0056E05C0E5FF00C0E9FF01C03C
:1043C000F3FF02501BEC30F0002A02E3014A022AFC
:1043D00004C005F0C5A6E7D7A1A602D0E8680BD0B7
:1043E000052A05C004F00350F5E034EC2BF0C5B805
:1043F000FED7F0D70450E4CF05F0E4CF04F0E4CFCB
:1044000003F0E4CF02F0E4CF01F0E4CF00F0E4CF1A
:10441000D9FF120000C0E5FF01C0E5FF02C0E5FFC3
:1044200003C0E5FF9CC500F0016AA7C502F0036A5E
:104430000250005E0350015AE56A800EE56E01509D
:10444000E56E0050E56E83EC1DF0006E040EE12673
:104450000006A7C501F0430E49EC29F0200E49ECF7
:1044600029F0005020E0600E0124026E036A000E65
:10447000032202C0E9FF03C0EAFFEFCF02F0E56AC2
:104480000250E56E000EE56E5F0EE56EA40EE56E61
:1044900020EC26F0050EE126012A0150800A01E1F8
:1044A000016A0006DED7E4CF03F0E4CF02F0E4CFE8
:1044B00001F0E4CF00F01200D9CFE5FFE1CFD9FF42
:1044C00000C0E5FF01C0E5FF02C0E5FF03C0E5FF56
:1044D000020EDBCF00F0030EDBCF01F0040EDBCFCA
:1044E00002F0050EDBCF03F000500501926F015082
:1044F000936F02500501946F0350956F050192511F
:1045000005019403F4CF01F0F3CF00F00050050152
:10451000966F0150976F0501925105019503F3CFF6
:1045200000F00501935105019403F3CF01F0015010
:1045300000260501975100260050976F97C5F3FF9D
:104540009651E4CF03F0E4CF02F0E4CF01F0E4CFE2
:1045500000F0E4CFD9FF1200D9CFE5FFE1CFD9FFBA
:1045600000C0E5FF01C0E5FF02C0E5FF03C0E5FFB5
:1045700004C0E5FF020EDBCF00F0030EDBCF01F03D
:10458000040EDBCF02F0050EDBCF03F0060EDBCF0F
:1045900004F0E56A390EE56EABEC29F0E652E6521E
:1045A0000050E56E52EC2EF0E65204C000F0040616
:1045B000005012E001C0E9FF02C0F3FF035068ECB5
:1045C0002FF0006E012A02E3024A032A0050E56E32
:1045D00052EC2EF0E652E9D7FBEC2BF0E4CF04F0DE
:1045E000E4CF03F0E4CF02F0E4CF01F0E4CF00F039
:1045F000E4CFD9FF1200D9CFE5FFE1CFD9FF00C04A
:10460000E5FF01C0E5FF02C0E5FF03C0E5FF04C010
:10461000E5FF020EDBCF00F0030EDBCF01F0040E4E
:10462000DBCF02F00401375111E115EC29F0036EE4
:10463000F3CF04F003C0E5FF04C0F4FF00C0E9FFBE
:1046400001C0F3FF0250E2EC2FF016D00401375105
:10465000010A12E100C0E9FF01C0F3FF0250F2ECD1
:104660002EF0006EF3CF01F00150E56E0050E56EC4
:104670009FEC26F0E652E652E4CF04F0E4CF03F0DC
:10468000E4CF02F0E4CF01F0E4CF00F0E4CFD9FFB3
:104690001200D9CFE5FFE1CFD9FF00C0E5FF01C08F
:1046A000E5FF02C0E5FF03C0E5FF04C0E5FF020E21
:1046B000DBCF00F00038E8441F0B016E026A8C0E5D
:1046C0000126050E022201C0E9FF02C0EAFFEFCF7A
:1046D00001F0070E0016010E026E000E036E005070
:1046E00006E0E86CD89002360336010FFCE3046A5A
:1046F000015002160450031602500310D880E866D9
:10470000D890026A02360250D880E866D890026AD1
:1047100002360250E4CF04F0E4CF03F0E4CF02F01D
:10472000E4CF01F0E4CF00F0E4CFD9FF1200A00EF7
:10473000F66E600EF76E000EF86E0900F550056E0D
:104740000900F550066E04E1056702D0E4EF23F09E
:104750000900F550006E0900F550016E0900F55092
:10476000026E09000900F550E96E0900F550EA6E85
:10477000090009000900F550036E0900F550046EA8
:1047800009000900F6CF07F0F7CF08F0F8CF09F0DD
:1047900000C0F6FF01C0F7FF02C0F8FF035002E1BE
:1047A000045007E00900F550EE6E0306F8E2040637
:1047B000F9D707C0F6FF08C0F7FF09C0F8FF0506E4
:1047C00001E20606A3EF23F01200D9CFE5FFE1CF07
:1047D000D9FF00C0E5FF01C0E5FF020EDBCF00F00E
:1047E000030EDBCF01F00150E56E0050E56EE56A87
:1047F000200EE56E5CEC22F0006EF3CF01F0040EAB
:10480000E126E56A590EE56E0150E56E0050E56E51
:104810000AEC21F0006EF3CF01F0040EE126005007
:104820000008006E010E01560150800F7F0F02E15B
:10483000000E005C03E3FF0E006E016AD88001AE3B
:10484000D890D8B0006A0050E56E810EE56EF7ECA6
:104850002CF0E652E652E4CF01F0E4CF00F0E4CFD2
:10486000D9FF1200D9CFE5FFE1CFD9FF00C0E5FFA6
:1048700001C0E5FF02C0E5FF03C0E5FF020EDBCF8C
:1048800000F0E56A390EE56EABEC29F0E652E6522F
:104890000050E56E52EC2EF0E652FBEC2BF0010ED0
:1048A000E56E390EE56EABEC29F0E652E65236ECD9
:1048B0002AF00501906F34EC2BF036EC2AF005015C
:1048C000916FFBEC2BF091C500F0016A0050036E74
:1048D000026A90C500F0005002120150031203C09A
:1048E000F3FF0250E4CF03F0E4CF02F0E4CF01F095
:1048F000E4CF00F0E4CFD9FF1200D9CFE5FFE1CF3C
:10490000D9FF00C0E5FF01C0E5FF02C0E5FF03C01D
:10491000E5FF04C0E5FF020EDBCF00F00038E844FD
:104920001F0B016E026A880E0126050E022201C0CD
:10493000E9FF02C0EAFFEFCF03F0070E0016010EF9
:10494000046E00500DE006E6E86CD8900436010FC6
:10495000FDE306D0D89004BED8800432010FFBE3FB
:10496000041C006E0350001601C0E9FF02C0EAFFFC
:1049700000C0EFFFE4CF04F0E4CF03F0E4CF02F097
:10498000E4CF01F0E4CF00F0E4CFD9FF1200D9CF9B
:10499000E5FFE1CFD9FF00C0E5FF01C0E5FF02C0A0
:1049A000E5FF03C0E5FF04C0E5FF05C0E5FF020E1B
:1049B000DBCF00F00050010A22E1016A0150020D34
:1049C000F450036EF3CF02F0B30E0224046E040E13
:1049D0000320056E04C0E9FF05C0EAFFEE687F0E04
:1049E000EF6ED30E0226040E032202C0E9FF03C0BD
:1049F000EAFFEE6AEF6A012A100E015CDFE300C0F5
:104A0000EAF0E4CF05F0E4CF04F0E4CF03F0E4CF24
:104A100002F0E4CF01F0E4CF00F0E4CFD9FF1200C0
:104A200000C0E5FF01C0E5FF02C0E5FF03C0E5FFF0
:104A300004C0E5FF006A8A0E0024016E026A050EBA
:104A400002228C0E0024036E046A050E042203C0A9
:104A5000E9FF04C0EAFF010EEF6E01C0E9FF02C0EA
:104A6000EAFFEF6E002A020E005CE5E3006A400EEA
:104A70000024016E026A050E022201C0E9FF02C095
:104A8000EAFFEF68002A100E005CF1E3E4CF04F0C7
:104A9000E4CF03F0E4CF02F0E4CF01F0E4CF00F084
:104AA00012004320732025642025640A0000D9CF1A
:104AB000E5FFE1CFD9FF00C0E5FF01C0E5FF02C07F
:104AC000E5FF03C0E5FF04C0E5FF05C0E5FF020EFA
:104AD000DBCF00F0030EDBCF01F0040EDBCF02F0E2
:104AE000050EDBCF03F0060EDBCF04F0056A400EA7
:104AF0000026050E0522800E015E070E0116013804
:104B0000F00B026E070E04160450022600C0E9FFE7
:104B100005C0EAFF02C0EFFFE4CF05F0E4CF04F0E8
:104B2000E4CF03F0E4CF02F0E4CF01F0E4CF00F0F3
:104B3000E4CFD9FF1200D9CFE5FFE1CFD9FF00C004
:104B4000E5FF01C0E5FF02C0E5FF03C0E5FF020E7F
:104B5000DBCF00F0030EDBCF01F0040EDBCF02F061
:104B6000050EDBCF03F00050E56EA40EE56EF7EC0A
:104B70002CF0E652E6520150E56EA50EE56EF7EC1C
:104B80002CF0E652E6520250E56EA70EE56EF7EC09
:104B90002CF0E652E6520350E56EA90EE56EF7ECF6
:104BA0002CF0E652E652E4CF03F0E4CF02F0E4CF7B
:104BB00001F0E4CF00F0E4CFD9FF120000C0E5FF20
:104BC00001C0E5FF02C0E5FFB6EC2AF0006EB6ECCE
:104BD0002AF0016E0050026ED00E0224006E0A0E02
:104BE000005C05E30050026EF90E0224006E0150D5
:104BF000026ED00E0224016E0A0E015C05E3015024
:104C0000026EF90E0224016E080E005C12E2100E14
:104C1000015CD8B00ED00038F00B0124006E53ECCC
:104C200027F0016E015005E10050E56E3AEC2EF0E0
:104C3000E652E4CF02F0E4CF01F0E4CF00F012003E
:104C4000D9CFE5FFE1CFD9FF00C0E5FF01C0E5FF07
:104C500002C0E5FF020ED924006E000EDA20016EBC
:104C6000800E026E030E0026000E01220222025068
:104C7000E56E0150E56E0050E56E040EDBCFE5FFFA
:104C8000030EDBCFE5FF020EDBCFE5FF0501775119
:104C9000E56E7651E56E7551E56E0EEC00F0006E36
:104CA000F3CF01F0090EE12601C0F3FF0050E4CF7D
:104CB00002F0E4CF01F0E4CF00F0E4CFD9FF12001E
:104CC000D9CFE5FFE1CFD9FF00C0E5FF01C0E5FF87
:104CD00002C0E5FF03C0E5FF020EDBCF00F0030ECC
:104CE000DBCF01F0040EDBCF02F0040137510DE100
:104CF000B0EC2EF0036E03C0E5FF00C0E9FF01C079
:104D0000F3FF02501BEC30F00FD004013751010AC1
:104D10000BE100C0E9FF01C0F3FF025068EC2FF087
:104D2000E56E49EC2CF0E652E4CF03F0E4CF02F05C
:104D3000E4CF01F0E4CF00F0E4CFD9FF1200D9CFE7
:104D4000E5FFE1CFD9FF00C0E5FF01C0E5FF02C0EC
:104D5000E5FF03C0E5FF020EDBCF00F0030EDBCF63
:104D600001F086C502F087C503F00501863F01D03A
:104D7000872B0150E56E0250E56E94EC2CF0E65264
:104D8000E65286C502F087C503F00501863F01D0D3
:104D9000872B0050E56E0250E56E94EC2CF0E65245
:104DA000E652E4CF03F0E4CF02F0E4CF01F0E4CF29
:104DB00000F0E4CFD9FF1200D9CFE5FFE1CFD9FF52
:104DC00000C0E5FF01C0E5FF02C0E5FF03C0E5FF4D
:104DD00004C0E5FF020EDBCF00F0E4C001F0026A80
:104DE000014A022AE5C003F0046A0150031803E1F6
:104DF0000250041801E001D00ED0000E0001E4259D
:104E0000016E026A010E022201C0E9FF02C0EAFF40
:104E100000C0EFFFE42BE4CF04F0E4CF03F0E4CFD5
:104E200002F0E4CF01F0E4CF00F0E4CFD9FF1200AC
:104E3000D9CFE5FFE1CFD9FF00C0E5FF01C0E5FF15
:104E400002C0E5FF03C0E5FF020EDBCF00F0016A00
:104E5000A7C502F0036A0250002603500122E56A4A
:104E6000800EE56E0150E56E0050E56E83EC1DF09E
:104E7000006EF3CF01F0040EE126600E0026000E56
:104E8000012200C0E9FF01C0EAFFEFCF00F00050AF
:104E9000E4CF03F0E4CF02F0E4CF01F0E4CF00F080
:104EA000E4CFD9FF120000C0E5FF01C0E5FF02C05A
:104EB000E5FF010E006EB6EC2AF0016E01C002F0B3
:104EC000015023E00050E56EB8EC2FF0016EE65281
:104ED000015010E10A0E005C0BE20A0E006EE56E56
:104EE000B8EC2FF0016EE652015004E1E8680ED0F4
:104EF000E8680CD00150021802E0E86807D0002AE8
:104F00001B0E005CD8E3E86801D0E86AE4CF02F049
:104F1000E4CF01F0E4CF00F0120000C0E5FF01C0D3
:104F2000E5FF02C0E5FF03C0E5FF04C0E5FF05C0E3
:104F3000E5FFE80E006E030E016E0050FF0F026EDB
:104F4000FF0E0120036E02C000F003C001F002500A
:104F5000031010E0C5CF02F0036A1F0E0216046AA8
:104F6000C7B4042A056A0450021205500312025005
:104F70000310E3E1E4CF05F0E4CF04F0E4CF03F065
:104F8000E4CF02F0E4CF01F0E4CF00F0120000C063
:104F9000E5FF01C0E5FF02C0E5FF03C0E5FF8CECC3
:104FA0002AF0006EF3CF01F0F4CF02F0E9CF03F066
:104FB000E56AE56A030EE56EE80EE56E0350E56E00
:104FC0000250E56E0150E56E0050E56E4FEC18F0B2
:104FD000006EF3CF01F0F4CF02F0E9CF03F0080E3A
:104FE000E12603C0E9FF02C0F4FF01C0F3FF005057
:104FF000E4CF03F0E4CF02F0E4CF01F0E4CF00F01F
:105000001200D9CFE5FFE1CFD9FF00C0E5FF020EC6
:10501000DBCF00F000500AE10501B491B451E56E18
:10502000AB0EE56EF7EC2CF0E652E6520050D8805D
:10503000E866D890006A00360050D880E866D890BC
:10504000006A00360050010BE840E840F46E0501AC
:10505000AC51BF0BF410AC6FE56E800EE56EF7EC53
:105060002CF0E652E65210EC30F0E4CF00F0E4CF42
:10507000D9FF1200F3CFE5FFF4CFE5FFE9CFE5FF5D
:10508000EACFE5FFFACFE5FFFBCFE5FF0001E251F4
:105090000F01356F0001E3510F01366FD650336FAA
:1050A000D750346FF2A411D00001E23F01D0E32BBE
:1050B000F2940001E2510F01356F0001E3510F013D
:1050C000366FD650336FD750346FE4CFFBFFE4CF49
:1050D000FAFFE4CFEAFFE4CFE9FFE4CFF4FFE4CF47
:1050E000F3FF1100D9CFE5FFE1CFD9FF00C0E5FF05
:1050F00001C0E5FF020EDBCF00F0030EDBCF01F0B5
:10510000010E015C02E2010E016E410E015C02E340
:10511000400E016E01060050030BE840E840F46EBB
:105120000501AF513F0BF410AF6F01503F0BF46E10
:10513000AF51C00BF410AF6FE56E8E0EE56EF7EC5D
:105140002CF0E652E652E4CF01F0E4CF00F0E4CFD9
:10515000D9FF1200D9CFE5FFE1CFD9FF00C0E5FFAD
:1051600001C0E5FF02C0E5FF03C0E5FF020EDBCF93
:1051700000F0E56E800EE56E050EE56E8E0EE56EB6
:105180000050E56E2FEC1FF0050EE1268EC500F0F5
:10519000016A0050036E026A8FC500F000500212CF
:1051A0000150031203C0F3FF0250E4CF03F0E4CF39
:1051B00002F0E4CF01F0E4CF00F0E4CFD9FF120019
:1051C000D9CFE5FFE1CFD9FF00C0E5FF01C0E5FF82
:1051D000020EDBCF00F0030EDBCF01F00150030B1A
:1051E000E838F46E0501B951CF0BF410B96FE56ED4
:1051F000900EE56EF7EC2CF0E652E6520050030BF1
:10520000E838F46E0501AE51CF0BF410AE6FE56EC9
:105210008F0EE56EF7EC2CF0E652E652E4CF01F08B
:10522000E4CF00F0E4CFD9FF120000C0E5FF01C0D9
:10523000E5FF02C0E5FF03C0E5FF86C500F087C5B6
:1052400001F00501863F01D0872B0050E56EB8ECD8
:105250002FF0E652036E026A86C500F087C501F0A2
:105260000501863F01D0872B0050E56EB8EC2FF08A
:10527000E652016A02120150031203C0F3FF02500A
:10528000E4CF03F0E4CF02F0E4CF01F0E4CF00F08C
:10529000120000C0E5FF01C0E5FF02C0E5FF006E9F
:1052A000000E0001E925016E026A0F0E022201C004
:1052B000E9FF02C0EAFF00C0EFFF220EE95D01E254
:1052C000E92B00500A0A0FE10001E951E56E800E5A
:1052D000E56E0F0EE56E000EE56E0DEC1BF0040E94
:1052E000E1260001E96BE4CF02F0E4CF01F0E4CF66
:1052F00000F012000001E46B0001E56B0001E669BB
:1053000094808B909480B06A3F0EAF6EB886AC8A62
:10531000AC84AC8CAC90AB8CAB8E05019E6B050164
:10532000986B05019B6B05019C6B05019D6B000E45
:10533000E56AB8EC2FF00001E86FE6529F989F9A5B
:10534000010E0001E76F0501756B766B2F0E776F0D
:10535000C6EC2FF01200D9CFE5FFE1CFD9FF00C096
:10536000E5FF01C0E5FF02C0E5FF020EDBCF00F064
:10537000030EDBCF01F022EC2CF00044FE0B026E9A
:105380000150D880E866D890016A01360150D88073
:10539000E866D890016A0136015002120250E56EAB
:1053A00052EC2EF0E652E4CF02F0E4CF01F0E4CF6D
:1053B00000F0E4CFD9FF1200D9CFE5FFE1CFD9FF4C
:1053C00000C0E5FF01C0E5FF02C0E5FF020EDBCF34
:1053D00000F0030EDBCF01F0040EDBCF02F0E56A34
:1053E0000050E56EABEC29F0E652E6520150E56E56
:1053F00052EC2EF0E6520250E56E52EC2EF0E652E0
:10540000FBEC2BF0E4CF02F0E4CF01F0E4CF00F0AE
:10541000E4CFD9FF120094EC1CF00001E06FE051E2
:105420001BE0010EE56E0AEC2BF0E652030EE56E72
:10543000CBEC2DF0E652E56A0A0EE56EE5EC23F0C2
:10544000E652E652010EE56E61EC2AF0E652080ED5
:10545000E56E54EC2DF0E652120043415044534F98
:105460004B2025640A0043002563000000C0E5FFCF
:1054700001C0E5FF02C0E5FF03C0E5FFE80E006ED6
:10548000030E016E8DEC27F0C5860050FF0F026EF3
:10549000FF0E0120036E02C000F003C001F00250B5
:1054A000031005E05DEC30F0026E0250EEE0C950F2
:1054B000E4CF03F0E4CF02F0E4CF01F0E4CF00F05A
:1054C0001200D9CFE5FFE1CFD9FF00C0E5FF020E02
:1054D000DBCF00F00050D880E866D890006A003634
:1054E0000050D880E866D890006A00360050010B62
:1054F000E844E844F46E0501AC51FB0BF410AC6FCA
:10550000E56E800EE56EF7EC2CF0E652E652E4CF45
:1055100000F0E4CFD9FF12000001E25104018C6FCA
:105520000001E35104018D6FD6508A6FD7508B6F05
:105530008C510001E21905E104018D510001E319CC
:105540000CE00001E25104018C6F0001E351040101
:105550008D6FD6508A6FD7508B6F8DC4E9FF8CC486
:10556000F4FF8BC4F3FF04018A51120000C0E5FF71
:1055700001C0E5FF05019C510501A51905E00501E4
:105580009C5105019B1902E1E86A15D09CC500F009
:1055900005019C2B016A600E0026000E012200C04E
:1055A000E9FF01C0EAFFEFCF00F09C51800A02E161
:1055B00005019C6B0050E4CF01F0E4CF00F0120035
:1055C000D9CFE5FFE1CFD9FF00C0E5FF020EDBCF69
:1055D00000F0E56A390EE56EABEC29F0E652E652D2
:1055E0000050E56E52EC2EF0E652FBEC2BF0010E73
:1055F000E56E390EE56EABEC29F0E652E65236EC7C
:105600002AF0006EFBEC2BF00050E4CF00F0E4CF6A
:10561000D9FF1200D9CFE5FFE1CFD9FF00C0E5FFE8
:10562000020EDBCF00F00050D880E866D890006A08
:1056300000360050D880E866D890006A00360050E6
:10564000010BE844F46E0501AC51FD0BF410AC6F96
:10565000E56E800EE56EF7EC2CF0E652E652E4CFF4
:1056600000F0E4CFD9FF120000C0E5FF01C0E5FF64
:1056700002C0E5FF03C0E5FFE80E006E030E016EF9
:105680008DEC27F09E96C59AC5880050FF0F026EDC
:10569000FF0E0120036E02C000F003C001F00250B3
:1056A000031002E09EA6F1D7E4CF03F0E4CF02F0AE
:1056B000E4CF01F0E4CF00F01200D9CFE5FFE1CF55
:1056C000D9FF00C0E5FF020EDBCF00F00050D8800C
:1056D000E866D890006A00360050D880E866D89016
:1056E000006A00360050010BF46E0501AC51FE0B50
:1056F000F410AC6FE56E800EE56EF7EC2CF0E65220
:10570000E652E4CF00F0E4CFD9FF120000C0E5FF7D
:1057100072EC30F00401896B806B8983006A89B375
:10572000002A0050010BE844F46E8051FD0BF41088
:10573000806FD58ED59CD59AD588D596D594D582AF
:10574000D580F28AF184D08EF28EF28CBA80FF0E70
:10575000BB68BA84E4CF00F01200D9CFE5FFE1CFF7
:10576000D9FF00C0E5FF01C0E5FF020EDBCF00F06E
:105770000050020DF450016EF3CF00F0000E002631
:10578000050E012200C0E9FF01C0EAFFEECF00F0E4
:10579000EFCF01F001C0F3FF0050E4CF01F0E4CF00
:1057A00000F0E4CFD9FF1200D9CFE5FFE1CFD9FF58
:1057B00000C0E5FF01C0E5FF020EDBCF00F00050A6
:1057C000020DF450016EF3CF00F0390E0026040EE6
:1057D000012200C0E9FF01C0EAFFEECF00F0EFCFE9
:1057E00001F001C0F3FF0050E4CF01F0E4CF00F07E
:1057F000E4CFD9FF120000C0E5FF01C0E5FF02C001
:10580000E5FF03C0E5FFE80E006E030E016E8DECB0
:1058100027F0C5840050FF0F026EFF0E0120036EBB
:1058200002C000F003C001F00250031002E0C5B452
:10583000F1D7E4CF03F0E4CF02F0E4CF01F0E4CFFE
:1058400000F0120000C0E5FF01C0E5FF02C0E5FF67
:1058500003C0E5FFE80E006E030E016E8DEC27F02D
:10586000C5800050FF0F026EFF0E0120036E02C0C4
:1058700000F003C001F00250031002E0C5B0F1D700
:10588000E4CF03F0E4CF02F0E4CF01F0E4CF00F086
:105890001200D9CFE5FFE1CFD9FF00C0E5FF01C07D
:1058A000E5FF02C0E5FF020EDBCF00F086C501F088
:1058B00087C502F00501863F01D0872B0050E56EB9
:1058C0000150E56E94EC2CF0E652E652E4CF02F083
:1058D000E4CF01F0E4CF00F0E4CFD9FF1200D8CF3D
:1058E000E5FFE0CFE5FFE56EF3CFE5FFF4CFE5FFA1
:1058F000E9CFE5FFEACFE5FFFACFE5FFFBCFE5FF14
:1059000073EC0CF0E4CFFBFFE4CFFAFFE4CFEAFF47
:10591000E4CFE9FFE4CFF4FFE4CFF3FFE450E4CFBA
:10592000E0FFE4CFD8FF1000D9CFE5FFE1CFD9FFEA
:1059300000C0E5FF020EDBCF00F0030EDBCFA8FFB7
:1059400000C0A9FFA69EA69CA684F29EF29C550EBE
:10595000A76EAA0EA76EA682A6A202D00000FCD750
:10596000A694F28EF28CE4CF00F0E4CFD9FF1200BF
:10597000E8AE0AD0F3CFEAFFEE50EECFF3FFEECF62
:10598000F4FFEECFE9FF1200E8BC87EF30F0E9CF7B
:10599000F6FFF3CFF7FFF86E0900F5500900F5CFD9
:1059A000F3FF0900F5CFF4FF0900F5CFE9FF12007E
:1059B00000C0E5FF01C0E5FF0001E4510001E51969
:1059C00002E1E86A0FD0000E0001E525006E016AD1
:1059D000010E012200C0E9FF01C0EAFFEFCF00F095
:1059E000E52B0050E4CF01F0E4CF00F01200D9CF56
:1059F000E5FFE1CFD9FF00C0E5FF020EDBCF00F0ED
:105A0000030EDBCFBBF5010EE56E800EE56E050ED5
:105A1000E56EBB0EE56E0050E56EACEC22F0050EB7
:105A2000E126E4CF00F0E4CFD9FF1200D9CFE5FFA3
:105A3000E1CFD9FF00C0E5FF020EDBCF00F0005040
:105A4000030BE838E844F46E0501B3519F0BF410E2
:105A5000B36FE56EA30EE56EF7EC2CF0E652E6525E
:105A6000E4CF00F0E4CFD9FF1200D9CFE5FFE1CFBA
:105A7000D9FF00C0E5FF020EDBCF00F00050030BA2
:105A8000E840E840F46E0501B2513F0BF410B26FEC
:105A9000E56EA20EE56EF7EC2CF0E652E652E4CF8E
:105AA00000F0E4CFD9FF1200D9CFE5FFE1CFD9FF55
:105AB00000C0E5FF020EDBCF00F00050030BE8440E
:105AC000E844F46E0501AE51F30BF410AE6FE56ED1
:105AD0008F0EE56EF7EC2CF0E652E652E4CF00F0C4
