:020000040000FA
:10000000FEEF2DF0C69A1200EEEF26F00EEC04F093
:1000100019EC19F0FDD712004FEF2BF0D9CFE5FF07
:10002000E1CFD9FF00C0E5FF01C0E5FF02C0E5FF59
:1000300003C0E5FF04C0E5FF05C0E5FF06C0E5FF1E
:1000400007C0E5FF08C0E5FF09C0E5FF0AC0E5FFFE
:100050000BC0E5FF0CC0E5FF0DC0E5FF0EC0E5FFDE
:100060000FC0E5FF10C0E5FF11C0E5FF12C0E5FFBE
:1000700013C0E5FF14C0E5FF15C0E5FF16C0E5FF9E
:1000800017C0E5FF18C0E5FF19C0E5FF1AC0E5FF7E
:100090001BC0E5FF1CC0E5FF1DC0E5FF1EC0E5FF5E
:1000A000020EDBCF00F0030EDBCF01F0040EDBCF3E
:1000B00002F0050EDBCF03F0060EDBCF04F0070ED7
:1000C000DBCF05F0080EDBCF06F0090EDBCF07F023
:1000D0000A0EDBCF08F0096A0A6A02C00DF00D5063
:1000E000800A0DE102500501756F0150746F0050D8
:1000F000736F050E016E730E006E800E026E03C0EC
:10010000E9FF04C0F3FF055048EC2EF00B6E0B50D6
:10011000D8B4C4EF03F00B50250A02E0ABEF03F0B4
:100120000C6A0D6A0E6A0F6A106A0A0E116E126A64
:10013000136A146A200E156E1668176A2B0E186E55
:10014000032A02E3044A052A03C0E9FF04C0F3FFBF
:10015000055048EC2EF0196E250A13E11950E56E92
:100160000250E56E0150E56E0050E56E68EC16F049
:10017000040EE126094A0A2A032A02E3044A052A50
:10018000BED71950300A06E1300E156E032A02E37D
:10019000044A052A03C0E9FF04C0F3FF055048ECF8
:1001A0002EF02D0A06E1010E146E032A02E3044A22
:1001B000052A03C0E9FF04C0F3FF055048EC2EF008
:1001C000200A08E1010E176E200E186E032A02E3C2
:1001D000044A052A03C0E9FF04C0F3FF055048ECB8
:1001E0002EF02B0A06E1010E176E032A02E3044AE1
:1001F000052A03C0E9FF04C0F3FF055048EC2EF0C8
:10020000196E310E195C2BE33A0E195C28E203C01B
:1002100019F004C01AF005C01BF019C0E9FF1AC09C
:10022000F3FF1B5048EC2EF01C6E300E1C5C11E3EB
:100230003A0E1C5C0EE213500A0DF3CF1DF01C5059
:100240001D26D00E1D24136E192A02E31A4A1B2AFA
:10025000E4D719C003F01AC004F01BC005F003C0B6
:10026000E9FF04C0F3FF055048EC2EF02E0A2DE103
:10027000032A02E3044A052A166A03C019F004C0DF
:100280001AF005C01BF019C0E9FF1AC0F3FF1B509C
:1002900048EC2EF01C6E300E1C5C11E33A0E1C5C18
:1002A0000EE216500A0DF3CF1DF01C501D26D00E85
:1002B0001D24166E192A02E31A4A1B2AE4D719C014
:1002C00003F01AC004F01BC005F003C0E9FF04C02E
:1002D000F3FF055048EC2EF0196E6C0A07E1010E91
:1002E0000C6E032A02E3044A052A09D01950680A51
:1002F00006E1010E0E6E032A02E3044A052A03C03A
:10030000E9FF04C0F3FF055048EC2EF0750A06E142
:10031000010E106E032A02E3044A052A03C0E9FF16
:1003200004C0F3FF055048EC2EF0196E730A05E186
:10033000010E0D6E200E156E3FD01950780A03E1A4
:10034000100E116E39D01950580A05E1100E116EB9
:10035000010E126E31D01950630A02E1116A2CD0DD
:1003600019506F0A03E1080E116E26D01950660A63
:1003700003E1010E0F6E20D01950640A1DE01950E0
:10038000690A1AE0105005E0FF0E03260422052238
:1003900013D01950E56E0250E56E0150E56E005025
:1003A000E56E68EC16F0040EE126094A0A2A032AD3
:1003B00002E3044A052AA3D60D5021E00650030F9C
:1003C0000D6E000E0720196E000E08201A6E0DC06B
:1003D00006F019C007F01AC008F0FD0E0D26FF0E3A
:1003E00019221A220DC0E9FF19C0F3FF1A50E5ECDB
:1003F0002CF00D6EF3CF19F0F4CF1AF0FDD00F50A2
:100400000DE0000E1A6E080E196E100E0D6E040E21
:100410000626000E072208221668EED016680C5039
:1004200023E00650040F0C6E000E07200F6E000E26
:1004300008201B6E0CC006F00FC007F01BC008F0B0
:10044000FC0E0C26FF0E0F221B220CC0E9FF0FC072
:10045000F3FF1B5098EC2BF00C6EF3CF0FF0F4CFA2
:100460001BF0E9CF1CF067D00E502FE00650020FB2
:100470000E6E000E07201D6E000E08201E6E0EC0B0
:1004800006F01DC007F01EC008F0FE0E0E26FF0E7F
:100490001D221E220EC0E9FF1DC0F3FF1E50D2EC2C
:1004A0002DF00E6E0EC00CF00F6A1B6A1C6A115004
:1004B0000A0A03E11050D8B43ED00C500E6E0EC0A4
:1004C0000CF00F6A1B6A1C6A36D00650020F0E6EC3
:1004D000000E07201D6E000E08201E6E0EC006F0D6
:1004E0001DC007F01EC008F0FE0E0E26FF0E1D22D6
:1004F0001E220EC0E9FF1DC0F3FF1E50D2EC2DF0EE
:100500000E6EF3CF1DF00EC00CF01DC00FF0E86AA8
:100510001DBEFF0E1B6E1C6E11500A0A02E1105028
:100520000AE00C500E6E0F501D6E0EC00CF01DC078
:100530000FF01B6A1C6A040E196EF40E0D6E800E0D
:100540001A6E1150D8B440D0105013E01150E56E1F
:10055000040EE56EF40EE56E1C50E56E1B50E56E64
:100560000F50E56E0C50E56E22EC0FF0070EE12601
:1005700012D01150E56E040EE56EF40EE56E1C50BF
:10058000E56E1B50E56E0F50E56E0C50E56E8AEC83
:100590001EF0070EE12617502FE00DC0E9FF19C02D
:1005A000F3FF1A5048EC2EF02D0A26E0FF0E0D2620
:1005B00019221A2218C0E5FF0DC0E9FF19C0F3FF88
:1005C0001A50FBEC2EF018D00CC0E5FF0DC0E9FF6F
:1005D00019C0F3FF1A50FBEC2EF00D50010F0C6EFA
:1005E000000E19200E6E000E1A20E56A0CC0E9FFFD
:1005F0000EC0F3FFFBEC2EF00DC00CF019C00EF096
:100600001AC00FF013C010F0105010E00CC0E9FF3A
:100610000EC0F3FF0F5048EC2EF0176E175006E097
:100620000C2A02E30E4A0F2A1006EED710C013F070
:1006300014501EE109C00CF00AC00EF010C00FF0FB
:100640000F5010E01550E56E0250E56E0150E56E5A
:100650000050E56E68EC16F0040EE1260C4A0E2AF6
:100660000F06EED70CC009F00EC00AF00FC013F051
:1006700016C00CF00DC00DF019C00EF01AC00FF02E
:1006800009C010F00AC015F00DC0E9FF0EC0F3FF5D
:100690000F5048EC2EF0166E1650D8B43ED00CC059
:1006A00016F0176A161E171E1650171005E00CC01C
:1006B00016F00C06165031E00DC0E9FF0EC0F3FF36
:1006C0000F5048EC2EF0116E125010E01150E56EF4
:1006D00079EC2DF0166EE652165004E0DF0E111480
:1006E000166E02D011C016F016C011F01150E56E52
:1006F0000250E56E0150E56E0050E56E68EC16F0B4
:10070000040EE1260D2A02E30E4A0F2A104A152A8A
:100710001350D8B4B9D71306B7D710C009F015C015
:100720000AF014502BE010C00CF015C00DF013C0EF
:100730000EF00E501FE0200EE56E0250E56E0150E7
:10074000E56E0050E56E68EC16F0040EE1260C4AEA
:100750000D2A0E06EED70B50E56E0250E56E0150E5
:10076000E56E0050E56E68EC16F0040EE126094ACD
:100770000A2A04D00CC009F00DC00AF0032A02E3D3
:10078000044A052A7FEF00F00AC0F3FF0950E4CFC6
:100790001EF0E4CF1DF0E4CF1CF0E4CF1BF0E4CF5B
:1007A0001AF0E4CF19F0E4CF18F0E4CF17F0E4CF5B
:1007B00016F0E4CF15F0E4CF14F0E4CF13F0E4CF5B
:1007C00012F0E4CF11F0E4CF10F0E4CF0FF0E4CF5B
:1007D0000EF0E4CF0DF0E4CF0CF0E4CF0BF0E4CF5B
:1007E0000AF0E4CF09F0E4CF08F0E4CF07F0E4CF5B
:1007F00006F0E4CF05F0E4CF04F0E4CF03F0E4CF5B
:1008000002F0E4CF01F0E4CF00F0E4CFD9FF120012
:100810003C4E4F20464C4F41543E000000C0E5FF87
:1008200001C0E5FF02C0E5FF03C0E5FF05C0E5FF2D
:1008300049EC2FF09492939E6CEC29F0F3CF01F0E9
:10084000F4CF02F0E9CF03F0880F0401336F130EE9
:100850000120346F000E0220356F000E0320366F2A
:1008600021EC1AF09280800E006E0F0E016E0F0EBA
:10087000036E380E002603500122800E026E0F0E0A
:10088000036E800E005E0350015A0F0E056E380E87
:100890000226055003220F0E056E800E025E0550E3
:1008A000035A02C0E9FF03C0EAFFEFCF02F0028063
:1008B00000C0E9FF01C0EAFF02C0EFFFE56A030ED6
:1008C000E56EC4EC1DF0E652E6529282800E006E98
:1008D0000F0E016E0F0E036E380E0026035001221C
:1008E000800E026E0F0E036E800E005E0350015AE2
:1008F0000F0E056E380E0226055003220F0E056EF0
:10090000800E025E0550035A02C0E9FF03C0EAFFF1
:10091000EFCF02F0028200C0E9FF01C0EAFF02C08F
:10092000EFFF010EE56E040EE56EC4EC1DF0E6521D
:10093000E6529286800E006E0F0E016E0F0E036E51
:10094000380E002603500122800E026E0F0E036E39
:10095000800E005E0350015A0F0E056E380E0226FF
:10096000055003220F0E056E800E025E0550035ADD
:1009700002C0E9FF03C0EAFFEFCF02F0028600C029
:10098000E9FF01C0EAFF02C0EFFF030EE56E050EAE
:10099000E56EC4EC1DF0E652E6529484820E006EC1
:1009A0000F0E016E0F0E036E380E0026035001224B
:1009B0000F0E036E800E005E0350015A820E026E0F
:1009C0000F0E036E0F0E056E380E02260550032221
:1009D0000F0E056E800E025E0550035A02C0E9FF3D
:1009E00003C0EAFFEFCF02F0028400C0E9FF01C0BC
:1009F000EAFF02C0EFFF0E0EE56E060EE56EC4ECD8
:100A00001DF0E652E652928A800E006E0F0E016EC5
:100A10000F0E036E380E002603500122800E026E68
:100A20000F0E036E800E005E0350015A0F0E056E0E
:100A3000380E0226055003220F0E056E800E025E50
:100A40000550035A02C0E9FF03C0EAFFEFCF02F0EE
:100A5000028A00C0E9FF01C0EAFF02C0EFFF040EF6
:100A6000E56E000EE56AC4EC1DF0E652E652928493
:100A7000800E006E0F0E016E0F0E036E380E0026F4
:100A800003500122800E026E0F0E036E800E005E78
:100A90000350015A0F0E056E380E02260550032230
:100AA0000F0E056E800E025E0550035A02C0E9FF6C
:100AB00003C0EAFFEFCF02F0028400C0E9FF01C0EB
:100AC000EAFF02C0EFFF020EE56E010EE56EC4EC18
:100AD0001DF0E652E6529284800E006E0F0E016EFB
:100AE0000F0E036E380E002603500122800E026E98
:100AF0000F0E036E800E005E0350015A0F0E056E3E
:100B0000380E0226055003220F0E056E800E025E7F
:100B10000550035A02C0E9FF03C0EAFFEFCF02F01D
:100B2000028400C0E9FF01C0EAFF02C0EFFF020E2D
:100B3000E56EE56EC4EC1DF0E652E652929C898C9F
:100B4000BEEC23F0F19E938C810E006E0F0E016EB1
:100B50000F0E036E380E0026035001220F0E036E97
:100B6000800E005E0350015A810E026E0F0E036E5E
:100B70000F0E056E380E0226055003220F0E056E6D
:100B8000800E025E0550035A02C0E9FF03C0EAFF6F
:100B9000EFCF02F0029C00C0E9FF01C0EAFF02C0F3
:100BA000EFFF060EE56E800EE56E0F0EE56E810E10
:100BB000E56E000EE56A05EC24F0050EE126938053
:100BC000810E006E0F0E016E0F0E036E380E0026A2
:100BD000035001220F0E036E800E005E0350015A77
:100BE000810E026E0F0E036E0F0E056E380E02267A
:100BF000055003220F0E056E800E025E0550035A4B
:100C000002C0E9FF03C0EAFFEFCF02F0029000C08C
:100C1000E9FF01C0EAFF02C0EFFFE56A800EE56E62
:100C20000F0EE56E810EE56E010EE56E05EC24F00B
:100C3000050EE1269382810E006E0F0E016E0F0EDF
:100C4000036E380E0026035001220F0E036E800E35
:100C5000005E0350015A810E026E0F0E036E0F0EDE
:100C6000056E380E0226055003220F0E056E800E0B
:100C7000025E0550035A02C0E9FF03C0EAFFEFCF4E
:100C800002F0029200C0E9FF01C0EAFF02C0EFFFDC
:100C9000010EE56E800EE56E0F0EE56E810EE56EBF
:100CA000020EE56E05EC24F0050EE126270EE56E3A
:100CB000E56A080EE56E29EC14F0030EE126010E3C
:100CC000E56E800EE56E040EE56E790EE56EA8EC1D
:100CD0001FF0040EE126EBEC28F0E4CF05F0E4CFA2
:100CE00003F0E4CF02F0E4CF01F0E4CF00F0120013
:100CF00000C0E5FF01C0E5FF02C0E5FF03C0E5FF5E
:100D000004C0E5FF05C0E5FF06C0E5FF07C0E5FF3D
:100D100008C0E5FF09C0E5FF0AC0E5FF0BC0E5FF1D
:100D20000CC0E5FF006A016A026A040E025CD8B0DA
:100D3000E8D101C003F0012A100E035CD8B0E1D164
:100D40000001F02B100EF05D01E3F06B0001F039B3
:100D5000E8441F0B036E046A800E0326050E04226E
:100D600003C0E9FF04C0EAFFEFCF03F0070EF01560
:100D7000046E010E056E000E066E045006E0E86C6F
:100D8000D89005360636010FFCE3076A03500516B6
:100D90000750061605500610D880E866D890056AF8
:100DA00005360550D8A4C1D70001F051020DF4500A
:100DB000046EF3CF03F0390E0324056E040E0420F5
:100DC000066E05C0E9FF06C0EAFFEECF05F0EFCFE3
:100DD00006F00001EDA19DD0B30E0324076E040EB2
:100DE0000420086E07C0E9FF08C0EAFFEECF07F055
:100DF000EFCF08F00650800FF36E0850800FF35CC1
:100E000002E10750055C03E2056A066A60D0D30E72
:100E10000326040E042203C0E9FF04C0EAFFEECF5C
:100E200003F0EFCF04F00450800FF36E0650800FF4
:100E3000F35C02E10550035C04E205683F0E066EB8
:100E400046D00750055C096E085006580A6EE86ADD
:100E50000ABEFF0E0B6EE56E0B50E56E0A50E56E96
:100E60000950E56EE56AE56A400EE56E000EE56A3A
:100E70002FEC0CF0096EF3CF0AF0F4CF0BF0E9CFB2
:100E80000CF0080EE1260750035C076E085004586A
:100E9000086EE86A08BEFF0E036EE56E0350E56E4D
:100EA0000850E56E0750E56E0C50E56E0B50E56E90
:100EB0000A50E56E0950E56E4BEC15F0036EF3CF6A
:100EC00004F0080EE1260350056E0450066E000182
:100ED000EC51800FF36E0650800FF35C02E1055079
:100EE000EB5D03E3056A066A14D00001EB51FF08CD
:100EF000036E3F0EEC55046E0650800FF36E0450E7
:100F0000800FF35C02E10350055C03E305683F0ECC
:100F1000066E0001F051020DF450046EF3CF03F0A1
:100F2000930E0326040E042203C0E9FF04C0EAFF67
:100F3000EECF03F0EFCF04F00350055C036E0450D6
:100F40000658046ED88004AED89004E3041E036CE7
:100F5000D8B4042A022A0001EC51800FF36E045029
:100F6000800FF35C02E10350EB5DD8B0DED60001E8
:100F7000F051020DF450086EF3CF07F0930E0726E0
:100F8000040E082207C0E9FF08C0EAFF05C0EEFF13
:100F900006C0EFFF0001EDA55AD00001F051020D8F
:100FA000F450086EF3CF07F0000E0724096E050E0B
:100FB00008200A6E09C0E9FF0AC0EAFFEECF0BF075
:100FC000EFCF0CF00B500C10D8B441D0590E0726BF
:100FD000040E082207C0E9FF08C0EAFFEECF07F0C1
:100FE000EFCF08F00750055C036E08500658046EFA
:100FF00003101CE00450800F800F02E1010E035C1F
:10100000076A07360C50800F800F02E1010E0B5C5F
:101010000B6A0B3607500B1809E109C0E9FF0AC03B
:10102000EAFF03C0EEFF04C0EFFF7FD60001F051DE
:10103000020DF450046EF3CF03F0000E0326050EEC
:10104000042203C0E9FF04C0EAFFEE6AEF6A000170
:10105000EDA343D000500EE100C003F0002A046A63
:10106000F10E0326000E042203C0E9FF04C0EAFFCC
:10107000420EEF6E00C003F0002A046AF10E032650
:10108000000E0422640E0001F025076E03C0E9FF84
:1010900004C0EAFF07C0EFFF00C003F0002A046AA3
:1010A000F10E0326000E04220650076E03C0E9FF6E
:1010B00004C0EAFF07C0EFFF00C003F0002A046A83
:1010C000F10E0326000E04220550076E03C0E9FF4F
:1010D00004C0EAFF07C0EFFF28D6F0C003F00650B7
:1010E000E56E0550E56EE56A0350E56E000EE56EAF
:1010F000350EE56E3C0EE56E0EEC25F0070EE12692
:1011000014D602C001F000501DE00001EDA31AD07A
:1011100000C002F0002A036AF10E0226000E03222C
:1011200002C0E9FF03C0EAFF0A0EEF6E0050E56E51
:10113000800EE56E000EE56EF10EE56EA4EC1AF081
:10114000040EE1260150E4CF0CF0E4CF0BF0E4CF25
:101150000AF0E4CF09F0E4CF08F0E4CF07F0E4CFE1
:1011600006F0E4CF05F0E4CF04F0E4CF03F0E4CFE1
:1011700002F0E4CF01F0E4CF00F0120000C0E5FF80
:1011800001C0E5FF02C0E5FF03C0E5FF04C0E5FFC5
:1011900005C0E5FF06C0E5FF07C0E5FF08C0E5FFA5
:1011A00009C0E5FF0AC0E5FFC2A204D00001EE516C
:1011B000D7EF0AF00001EF51D8B41BD10001EE5176
:1011C000020DF450016EF3CF00F0390E0026040E2C
:1011D000012200C0E9FF01C0EAFFEECF00F0EFCF2F
:1011E00001F0230EEE25026E036A040E032202C0F4
:1011F000E9FF03C0EAFFEFCF02F00250FF0A01E16E
:1012000052D002380F0B036E920E0324046E056A4F
:101210000F0E0522066A920E03260F0E062203C049
:10122000E9FF06C0EAFFEFCF03F0070E0214066ED7
:10123000010E076E065005E0E86CD8900736010FE6
:10124000FDE3071C066E031604C0E9FF05C0EAFFB4
:1012500003C0EFFF02380F0B036E890E0324046EE8
:10126000056A0F0E0522066A890E03260F0E062256
:1012700003C0E9FF06C0EAFFEFCF03F0070E021438
:10128000066E010E076E065005E0E86CD890073632
:10129000010FFDE3071C066E031604C0E9FF05C03D
:1012A000EAFF03C0EFFF0001EE51020DF450046E9F
:1012B000F3CF03F0390E0326040E0422013401306B
:1012C000066E0030056E06340632053206340632EC
:1012D00005320550005C056E06500158066EC3CFFE
:1012E00007F0086A0750052608500622C4CF07F009
:1012F000086A07500A6E096A095005260A50062234
:1013000003C0E9FF04C0EAFF05C0EEFF06C0EFFF1F
:101310000001EA51010A01E06AD00001EE51020D1C
:10132000F450046EF3CF03F0390E0324056E040E5F
:101330000420066E05C0E9FF06C0EAFFEECF00F00C
:10134000EFCF01F0B30E0326040E042203C0E9FF21
:1013500004C0EAFFEECF05F0EFCF06F09C0E0526A5
:10136000D8A006060150800FF36E0650800FF35C84
:1013700002E10550005C0EE20050640F056E000EA5
:101380000120066E03C0E9FF04C0EAFF05C0EEFFBE
:1013900006C0EFFF0001EE51020DF450046EF3CFD2
:1013A00003F0D30E0326040E042203C0E9FF04C099
:1013B000EAFFEECF05F0EFCF06F0640E0526D8B0B9
:1013C000062A0650800FF36E0150800FF35C02E195
:1013D0000050055C0CE29C0E0026D8A0010603C05C
:1013E000E9FF04C0EAFF00C0EEFF01C0EFFF00010B
:1013F000EF6B0001EE2B100EEE5D01E3EE6B0001D2
:10140000EE39E8441F0B006E016A800E0026050EBF
:10141000012200C0E9FF01C0EAFFEFCF00F0070E94
:10142000EE15016E010E036E000E046E015006E013
:10143000E86CD89003360436010FFCE3056A0050CF
:1014400003160550041603500410D880E866D8909F
:10145000036A03360350D8A4A8D0230E0001EE255A
:10146000006E016A0F0E012200C0E9FF01C0EAFF11
:10147000EFCF00F00044E844FC0B016E0128C26E7F
:10148000EE51E56E91EC18F0E652230E0001EE25C8
:10149000006E016A040E012200C0E9FF01C0EAFFEC
:1014A000EFCF02F00250FF0A01E17BD002380F0BB0
:1014B000006E920E0024016E036A0F0E0322046A6E
:1014C000920E00260F0E042200C0E9FF04C0EAFFBE
:1014D000EFCF00F0070E0214046E010E056E0450EB
:1014E00005E0E86CD8900536010FFDE305500012C9
:1014F00001C0E9FF03C0EAFF00C0EFFF380E006E35
:101500000F0E016E02380F0B036E046A03500026A3
:1015100004500122380E056E0F0E066E055003268C
:101520000650042203C0E9FF04C0EAFFEFCF03F036
:10153000070E0216010E046E025005E0E86CD8900A
:101540000436010FFDE30450031200C0E9FF01C09F
:10155000EAFF03C0EFFF0F01458300000000459341
:101560000F0144930BC0E5FFF2CF0BF0F29E4481D4
:10157000000000000000000000000000000000006B
:10158000000000000000000000000000000000005B
:10159000000000000000000044910BBEF28EE4CF7A
:1015A0000BF0C282010E0001EF6F0001EE51E4CF9B
:1015B0000AF0E4CF09F0E4CF08F0E4CF07F0E4CF7D
:1015C00006F0E4CF05F0E4CF04F0E4CF03F0E4CF7D
:1015D00002F0E4CF01F0E4CF00F01200800EE56EDF
:1015E000040EE56ED30EE56EF3EC21F0030EE1265A
:1015F000800EE56E040EE56EB30EE56EF3EC21F0A1
:10160000030EE126800EE56E040EE56ED50EE56E46
:10161000F3EC21F0030EE126800EE56E040EE56E7C
:10162000B50EE56EF3EC21F0030EE126800EE56EBB
:10163000040EE56ED70EE56EF3EC21F0030EE12605
:10164000800EE56E040EE56EB70EE56EF3EC21F04C
:10165000030EE126800EE56E040EE56ED90EE56EF2
:10166000F3EC21F0030EE126800EE56E040EE56E2C
:10167000B90EE56EF3EC21F0030EE126800EE56E67
:10168000040EE56EDB0EE56EF3EC21F0030EE126B1
:10169000800EE56E040EE56EBB0EE56EF3EC21F0F8
:1016A000030EE126800EE56E040EE56EDD0EE56E9E
:1016B000F3EC21F0030EE126800EE56E040EE56EDC
:1016C000BD0EE56EF3EC21F0030EE126800EE56E13
:1016D000040EE56EDF0EE56EF3EC21F0030EE1265D
:1016E000800EE56E040EE56EBF0EE56EF3EC21F0A4
:1016F000030EE126800EE56E040EE56EE10EE56E4A
:10170000F3EC21F0030EE126800EE56E040EE56E8B
:10171000C10EE56EF3EC21F0030EE126800EE56EBE
:10172000040EE56EE30EE56EF3EC21F0030EE12608
:10173000800EE56E040EE56EC30EE56EF3EC21F04F
:10174000030EE126800EE56E040EE56EE50EE56EF5
:10175000F3EC21F0030EE126800EE56E040EE56E3B
:10176000C50EE56EF3EC21F0030EE126800EE56E6A
:10177000040EE56EE70EE56EF3EC21F0030EE126B4
:10178000800EE56E040EE56EC70EE56EF3EC21F0FB
:10179000030EE126800EE56E040EE56EE90EE56EA1
:1017A000F3EC21F0030EE126800EE56E040EE56EEB
:1017B000C90EE56EF3EC21F0030EE126800EE56E16
:1017C000040EE56EEB0EE56EF3EC21F0030EE12660
:1017D000800EE56E040EE56ECB0EE56EF3EC21F0A7
:1017E000030EE126800EE56E040EE56EED0EE56E4D
:1017F000F3EC21F0030EE126800EE56E040EE56E9B
:10180000CD0EE56EF3EC21F0030EE126800EE56EC1
:10181000040EE56EEF0EE56EF3EC21F0030EE1260B
:10182000800EE56E040EE56ECF0EE56EF3EC21F052
:10183000030EE126800EE56E040EE56EF10EE56EF8
:10184000F3EC21F0030EE126800EE56E040EE56E4A
:10185000D10EE56EF3EC21F0030EE1261200D9CF94
:10186000E5FFE1CFD9FF00C0E5FF01C0E5FF02C001
:10187000E5FF03C0E5FF04C0E5FF05C0E5FF06C0C6
:10188000E5FF07C0E5FF020EDBCF00F0030EDBCF64
:1018900001F0040EDBCF02F0050EDBCF03F0060EE5
:1018A000DBCF04F0070EDBCF05F0080EDBCF06F030
:1018B000090EDBCF07F000500401856F0150866FE1
:1018C0000250876F0350886F045004018A6F0550DF
:1018D0008B6F06508C6F07508D6F0401855104018A
:1018E0008C03F4CF01F0F3CF00F000500401906FAF
:1018F0000150916F0401855104018A03F4CF01F076
:10190000F3CF00F0005004018E6F01508F6F04017F
:10191000885104018A03F3CF00F00401915100269D
:101920000050916F0401875104018B03F3CF01F044
:101930000150002600500401916F040187510401F9
:101940008A03F4CF01F0F3CF00F004019051002698
:10195000915101220050906F0150916F0401865106
:1019600004018B03F4CF03F0F3CF02F00250002602
:101970000350012200500401906F0150916F040147
:10198000865104018C03F3CF00F000500501686F0D
:101990000401865104018A03F4CF01F0F3CF00F073
:1019A00000500501666F0150676F04018551040105
:1019B0008D03F3CF00F0005005016C6F04018551D9
:1019C00004018B03F4CF01F0F3CF00F000500501C8
:1019D0006A6F01506B6F0501656B0501696B05014D
:1019E000655104018E25006E0501665104018F21A9
:1019F000016E0501675104019021026E05016851D5
:101A000004019121036E00508E6F01508F6F0250C0
:101A1000906F0350916F0501695104018E25006E8E
:101A200005016A5104018F21016E05016B5104010A
:101A30009021026E05016C5104019121036E03C0D7
:101A4000E9FF02C0F4FF01C0F3FF0050E4CF07F04C
:101A5000E4CF06F0E4CF05F0E4CF04F0E4CF03F0E8
:101A6000E4CF02F0E4CF01F0E4CF00F0E4CFD9FFFF
:101A7000120000C0E5FF01C0E5FF0001E751D8B446
:101A8000F5D09DA81DD09EA81BD005019951050138
:101A9000961905E1A6EC2EF00501966BE7D0000E35
:101AA00005019925006E016A040E012200C0E9FFBC
:101AB00001C0EAFFEFCF92F5992B92C5ADFFD6D0CA
:101AC0009EAAD4D0ABA205D005019781A6EC2EF03A
:101AD000CDD0ABA405D005019783A6EC2EF0C6D0DF
:101AE000ABA03ED0AECF92F5800E0001E81105010B
:101AF000921904E105019789AB96B8D0050192517E
:101B000004E092510001E81927E105019799AB968D
:101B10000501925103E00501979702D005019787CF
:101B200092C59BF594C59CF50501940505019D6F33
:101B3000600E05019C25006E016A000E012200C0A6
:101B4000E9FF01C0EAFF92C5EFFF9C2B9C51800A80
:101B500002E105019C6B8AD005019799AB8686D07E
:101B6000AECF92F5050197A919D0800E0001E811BA
:101B70000501921911E194909D9AAB980501965137
:101B800004E1AD6AA6EC2EF007D000C4ADFF010E53
:101B90000501996F9D886AD0AB8668D00501925186
:101BA00005019B2705019C5105019D191BE10501BC
:101BB0009B510CE19CC594F5050197B712D0949008
:101BC0009D9AAB98AD6AA6EC2EF00BD005019785D7
:101BD00097B707D094909D9AAB98010EAD6EA6EC86
:101BE0002EF044D005019C510501951908E105012D
:101BF00095510501941903E0A6EC2EF037D094C559
:101C000000F0016A004A012AE56A800EE56E015083
:101C1000E56E0050E56E83EC1CF0006E040EE126CC
:101C200000500501936F05019C190CE11F0E050181
:101C3000921505019D6F9D2B9D2B0501945105016A
:101C40009D279D9F9CC500F005019C2B016A600E9D
:101C50000026000E012200C0E9FF01C0EAFF92C584
:101C6000EFFF9C51800A02E105019C6BE4CF01F07B
:101C7000E4CF00F0120000C0E5FF01C0E5FF02C0A4
:101C8000E5FF03C0E5FF04C0E5FF05C0E5FF06C0B2
:101C9000E5FF07C0E5FF08C0E5FF09C0E5FF0AC092
:101CA000E5FF006A016A040E015CD8B0B3D0400EB3
:101CB0000001FE25026E036A050E032202C0E9FF41
:101CC00003C0EAFFEFCF02F00250FF0A01E19BD010
:101CD0000001FE39E8441F0B026E840E0224036EDD
:101CE000046A050E042203C0E9FF04C0EAFFEFCF37
:101CF00003F0070EFE15046E010E056E000E066E53
:101D0000045006E0E86CD89005360636010FFCE377
:101D1000076A055003160650071603500710D880AF
:101D2000E866D890036A03360350D880E866D890F6
:101D3000036A0336076A820E0226050E072202C0D6
:101D4000E9FF07C0EAFFEFCF08F008C009F00A6A10
:101D5000095005160A50061605500610D880E86688
:101D6000D890056A05360550D880E866D890056A8F
:101D700005360350051801E146D0035012E0010E6C
:101D8000056E045005E0E86CD8900536010FFDE3C0
:101D90000550081202C0E9FF07C0EAFF08C0EFFFC4
:101DA00017D002C0E9FF07C0EAFFEFCF05F0010E30
:101DB000066E045005E0E86CD8900636010FFDE38E
:101DC000061C051602C0E9FF07C0EAFF05C0EFFFC9
:101DD000035003E1036A032A01D0036AFEC004F042
:101DE000E56A0350E56EE56A0450E56E000EE56EA7
:101DF000470EE56EFE0EE56E0EEC25F0070EE126B1
:101E0000012A01C000F00001FE2B100EFE5DD8A0DB
:101E10004AD7FE6B0050E4CF0AF0E4CF09F0E4CFDC
:101E200008F0E4CF07F0E4CF06F0E4CF05F0E4CF0C
:101E300004F0E4CF03F0E4CF02F0E4CF01F0E4CF0C
:101E400000F01200D9CFE5FFE1CFD9FF00C0E5FFD8
:101E500001C0E5FF02C0E5FF03C0E5FF04C0E5FFE8
:101E600005C0E5FF06C0E5FF07C0E5FF08C0E5FFC8
:101E700009C0E5FF0AC0E5FF0BC0E5FF0CC0E5FFA8
:101E80000DC0E5FF0EC0E5FF0FC0E5FF020EDBCF82
:101E900000F0030EDBCF01F0040EDBCF02F0050EE5
:101EA000DBCF03F0060EDBCF04F0070EDBCF05F02F
:101EB000080EDBCF06F0200E076E086A06C009F098
:101EC0000A6A0B6A0C6AE56AE56AE56A0950E56E1A
:101ED0000350E56E0250E56E0150E56E0050E56E70
:101EE000F4EC12F00D6E080EE126300E0D263A0EBF
:101EF0000D5C05E30D500E6E270E0E240D6EFF0EC9
:101F000007260822200E07240E6E050E08200F6EED
:101F10000EC0E9FF0FC0EAFF0DC0EFFF0C50E56EE9
:101F20000B50E56E0A50E56E0950E56E0350E56E04
:101F30000250E56E0150E56E0050E56E4BEC15F079
:101F4000006EF3CF01F0F4CF02F0E9CF03F0080EFA
:101F5000E1260050011002100310D8A4AFD707C02B
:101F600000F008C001F004C002F005C003F000C09A
:101F700004F001C005F0004A012A200E0426050ED7
:101F8000052204C0E9FF05C0EAFFEFCF04F002C05C
:101F9000E9FF03C0EAFF04C0EFFF024A032A000E74
:101FA000015C02E1200E005CE2E302C0E9FF03C035
:101FB000EAFF000EEF6AE4CF0FF0E4CF0EF0E4CFBB
:101FC0000DF0E4CF0CF0E4CF0BF0E4CF0AF0E4CF57
:101FD00009F0E4CF08F0E4CF07F0E4CF06F0E4CF57
:101FE00005F0E4CF04F0E4CF03F0E4CF02F0E4CF57
:101FF00001F0E4CF00F0E4CFD9FF120000C0E5FF0C
:1020000001C0E5FF02C0E5FF03C0E5FF04C0E5FF36
:1020100005C0E5FF06C0E5FF07C0E5FF08C0E5FF16
:10202000006A016A026A036A046A79EC2EF0056E9E
:10203000055002E1E86AA7D0AE0EE56EC0EC29F0CB
:10204000E652E56E800EE56E020EE56E000EE56E60
:10205000FC0EE56E27EC1EF0050EE12600C205F031
:10206000066A01C207F0086A0750055E0850065A62
:10207000D88006AED89007E3061C086E051C076ED4
:10208000074A082A04D005C007F006C008F0085027
:10209000800F800F02E10E0E075C04E305C000F024
:1020A00006C001F002C205F0066A03C207F0086A22
:1020B0000750055E0850065AD88006AED89007E350
:1020C000061C086E051C076E074A082A04D005C0C6
:1020D00007F006C008F00850800F800F02E10E0ED6
:1020E000075C04E305C002F006C003F000500110D5
:1020F0001CE0D88001AED89009E30501AF5103E0A0
:10210000010E046E12D00501AE2B0FD00150800FCE
:10211000800F02E1010E005C08E30501AE5103E00F
:10212000020E046E02D00501AF2B025003101CE01A
:10213000D88003AED89009E30501B15103E0030E46
:10214000046E12D00501B02B0FD00350800F800F0A
:1021500002E1010E025C08E30501B05103E0040E48
:10216000046E02D00501B12B0050011003E10250B2
:102170000310D8A47BEC26F0045004E0F0EC2EF021
:10218000045001D0E86AE4CF08F0E4CF07F0E4CFD0
:1021900006F0E4CF05F0E4CF04F0E4CF03F0E4CFA1
:1021A00002F0E4CF01F0E4CF00F01200D9CFE5FF58
:1021B000E1CFD9FF00C0E5FF01C0E5FF02C0E5FFA8
:1021C00003C0E5FF04C0E5FF05C0E5FF06C0E5FF6D
:1021D000020EDBCF00F0030EDBCF01F0040EDBCFED
:1021E00002F000C0E9FF01C0F3FF025048EC2EF0FE
:1021F000036EE56AE56E5FEC28F0E652E652320EB9
:10220000E56E32EC2DF0E652DBEC2AF0010EE56EC5
:102210000350E56E5FEC28F0E652E6520050010FE5
:10222000036E000E0120046E000E0220056E16ECF7
:1022300029F0066E06C0E5FF03C0E9FF04C0F3FF06
:102240000550FBEC2EF014EC2AF00050020F036E48
:10225000000E0120046E000E0220056E16EC29F01F
:10226000066E06C0E5FF03C0E9FF04C0F3FF05509A
:10227000FBEC2EF014EC2AF00050030F036E000E5E
:102280000120046E000E0220056E16EC29F0066E89
:1022900006C0E5FF03C0E9FF04C0F3FF0550FBECF7
:1022A0002EF014EC2AF00050040F036E000E0120F3
:1022B000046E000E0220056E16EC29F0066E06C0B4
:1022C000E5FF03C0E9FF04C0F3FF0550FBEC2EF06F
:1022D00014EC2AF00050050F036E000E0120046E6E
:1022E000000E0220056E16EC29F0066E06C0E5FF12
:1022F00003C0E9FF04C0F3FF0550FBEC2EF014EC23
:102300002AF0060E0026000E0122022216EC29F009
:10231000036E03C0E5FF00C0E9FF01C0F3FF0250F8
:10232000FBEC2EF0DBEC2AF0E4CF06F0E4CF05F076
:10233000E4CF04F0E4CF03F0E4CF02F0E4CF01F007
:10234000E4CF00F0E4CFD9FF1200D9CFE5FFE1CF11
:10235000D9FF00C0E5FF01C0E5FF02C0E5FF03C0F3
:10236000E5FF04C0E5FF05C0E5FF06C0E5FF07C0C7
:10237000E5FF08C0E5FF09C0E5FF0AC0E5FF0BC0A7
:10238000E5FF0CC0E5FF0DC0E5FF020EDBCF00F05E
:10239000030EDBCF01F0040EDBCF02F0050EDBCF26
:1023A00003F0060EDBCF04F0070EDBCF05F0080EBE
:1023B000DBCF06F0090EDBCF07F00A0EDBCF08F00B
:1023C0000B0EDBCF09F00C0EDBCF0AF00D0EDBCFCE
:1023D0000BF0940EE56E2AEC23F00C6EF3CF0DF0AB
:1023E000E6520CC0E5FF0DC0F4FF09C0E9FF0AC0CA
:1023F000F3FF0B50C2EC2EF0960EE56E2AEC23F0A4
:10240000096EF3CF0AF0E65209C0E5FF0AC0F4FFF7
:1024100000C0E9FF01C0F3FF0250C2EC2EF0980E9D
:10242000E56E2AEC23F0006EF3CF01F0E65200C017
:10243000E5FF01C0F4FF03C0E9FF04C0F3FF05504E
:10244000C2EC2EF09A0EE56E2AEC23F0006EF3CF6C
:1024500001F0E65200C0E5FF01C0F4FF06C0E9FF4D
:1024600007C0F3FF0850C2EC2EF0E4CF0DF0E4CF2C
:102470000CF0E4CF0BF0E4CF0AF0E4CF09F0E4CFA6
:1024800008F0E4CF07F0E4CF06F0E4CF05F0E4CFA6
:1024900004F0E4CF03F0E4CF02F0E4CF01F0E4CFA6
:1024A00000F0E4CFD9FF120000C0E5FF01C0E5FF56
:1024B00002C0E5FF03C0E5FF04C0E5FF05C0E5FF7E
:1024C000006A400E0024016E026A050E022201C05D
:1024D000E9FF02C0EAFFEFCF01F00150FF0A01E17E
:1024E00071D001380F0B026E036A800E02260F0EA8
:1024F000032202C0E9FF03C0EAFFEFCF02F0070E9C
:102500000116010E036E000E046E015006E0E86C29
:10251000D89003360436010FFCE3056A0250031617
:102520000550041603500410D880E866D890036A5A
:102530000336035024E10038E8441F0B016E026AA1
:10254000840E0126050E022201C0E9FF02C0EAFF47
:10255000EFCF03F0070E0014046E010E056E045059
:1025600005E0E86CD8900536010FFDE30550031235
:1025700001C0E9FF02C0EAFF03C0EFFF23D000382B
:10258000E8441F0B016E026A840E0126050E02222A
:1025900001C0E9FF02C0EAFFEFCF03F0070E00140D
:1025A000046E010E056E045005E0E86CD890053607
:1025B000010FFDE3051C031601C0E9FF02C0EAFF9D
:1025C00003C0EFFF002A100E005CD8A07AD7E4CF3A
:1025D00005F0E4CF04F0E4CF03F0E4CF02F0E4CF61
:1025E00001F0E4CF00F01200D9CFE5FFE1CFD9FF31
:1025F00000C0E5FF01C0E5FF02C0E5FF03C0E5FF45
:1026000004C0E5FF05C0E5FF06C0E5FF07C0E5FF24
:1026100008C0E5FF09C0E5FF0AC0E5FF020EDBCFF9
:1026200000F0030EDBCF01F0040EDBCF02F0050E4D
:10263000DBCF03F0060EDBCF04F0070EDBCF05F097
:10264000080EDBCF06F0090EDBCF07F0086A045056
:1026500005100610071005E1E968F468F368E868FA
:1026600047D0096A0750800BE8440A6E0A501BE104
:10267000045004260536063607360750035C08E189
:102680000650025C05E10550015C02E10450005C6B
:1026900006E2D890073206320532043204D0092A05
:1026A00009C008F0DFD70750035C08E10650025C60
:1026B00005E10550015C02E10450005C08E30450B0
:1026C000005E0550015A0650025A0750035AD8902E
:1026D000073206320532043208C009F008060950F4
:1026E000E2E103C0E9FF02C0F4FF01C0F3FF0050C4
:1026F000E4CF0AF0E4CF09F0E4CF08F0E4CF07F02C
:10270000E4CF06F0E4CF05F0E4CF04F0E4CF03F02B
:10271000E4CF02F0E4CF01F0E4CF00F0E4CFD9FF42
:102720001200D9CFE5FFE1CFD9FF00C0E5FF01C01E
:10273000E5FF02C0E5FF03C0E5FF04C0E5FF020EB0
:10274000DBCF00F0030EDBCF01F0040EDBCF02F095
:10275000050EDBCF03F0420E05015C6F03505D6F89
:102760000050010F036E000E0120046E000E0220C7
:1027700003C0E9FF04C0F3FF48EC2EF005015E6FD3
:102780000050020F036E000E0120046E000E0220A6
:1027900003C0E9FF04C0F3FF48EC2EF005015F6FB2
:1027A0000050030F036E000E0120046E000E022085
:1027B00003C0E9FF04C0F3FF48EC2EF00501606F91
:1027C0000050040F036E000E0120046E000E022064
:1027D00003C0E9FF04C0F3FF48EC2EF00501616F70
:1027E0000050050F036E000E0120046E000E022043
:1027F00003C0E9FF04C0F3FF48EC2EF00501626F4F
:10280000060E0026000E0122022200C0E9FF01C0D0
:10281000F3FF025048EC2EF00501636F0A0E646F5F
:10282000090EE56E800EE56E050EE56E5C0EE56E3A
:10283000A4EC1AF0040EE126E4CF04F0E4CF03F098
:10284000E4CF02F0E4CF01F0E4CF00F0E4CFD9FF11
:102850001200D9CFE5FFE1CFD9FF00C0E5FF01C0ED
:10286000E5FF02C0E5FF03C0E5FF04C0E5FF06C0C9
:10287000E5FF020EDBCF00F0030EDBCF01F0040E0C
:10288000DBCF02F03F0EC716C66AC56A0050C612FB
:102890000150C7129488820E006E0F0E016E0F0E4B
:1028A000046E380E0026045001220F0E046E800EB6
:1028B000005E0450015A820E036E0F0E046E0F0E5E
:1028C000066E380E0326065004220F0E066E800E8A
:1028D000035E0650045A03C0E9FF04C0EAFFEFCFCD
:1028E00003F0039800C0E9FF01C0EAFF03C0EFFF57
:1028F0009486820E006E0F0E016E0F0E046E380E5F
:102900000026045001220F0E046E800E005E04505B
:10291000015A820E036E0F0E046E0F0E066E380EF5
:102920000326065004220F0E066E800E035E06502C
:10293000045A03C0E9FF04C0EAFFEFCF03F0039697
:1029400000C0E9FF01C0EAFF03C0EFFF02C0C8FFFB
:10295000C68A9E96A196E4CF06F0E4CF04F0E4CFB9
:1029600003F0E4CF02F0E4CF01F0E4CF00F0E4CFD5
:10297000D9FF1200D9CFE5FFE1CFD9FF00C0E5FFB5
:1029800001C0E5FF02C0E5FF03C0E5FF04C0E5FFAD
:1029900005C0E5FF06C0E5FF07C0E5FF020EDBCF7F
:1029A00000F0030EDBCF01F06CEC29F0026EF3CFE8
:1029B00003F0F4CF04F0E9CF05F0E56AE56A0150D1
:1029C000E56E0050E56EE56A0F0EE56E420EE56EAF
:1029D000400EE56E2FEC0CF0006EF3CF01F0F4CF5B
:1029E00006F0E9CF07F0080EE126E56AE56A030E76
:1029F000E56EE80EE56E0750E56E0650E56E015097
:102A0000E56E0050E56E4BEC15F0006EF3CF01F073
:102A1000F4CF06F0E9CF07F0080EE12600500224BB
:102A2000006E01500320016E06500420026E075014
:102A30000520036E6CEC29F0046EF3CF05F0F4CFA3
:102A400006F0E9CF07F00050045E0150055A02502D
:102A5000065A0350075A079E3F0E075C08E1FF0E17
:102A6000065C05E1FF0E055C02E1FF0E045CE2E29C
:102A7000E4CF07F0E4CF06F0E4CF05F0E4CF04F0B4
:102A8000E4CF03F0E4CF02F0E4CF01F0E4CF00F0B4
:102A9000E4CFD9FF1200D9CFE5FFE1CFD9FF00C0C5
:102AA000E5FF01C0E5FF02C0E5FF03C0E5FF04C08C
:102AB000E5FF05C0E5FF06C0E5FF07C0E5FF08C06C
:102AC000E5FF09C0E5FF0AC0E5FF0BC0E5FF0CC04C
:102AD000E5FF0DC0E5FF020EDBCF00F0030EDBCFFC
:102AE00001F0040EDBCF02F0050EDBCF03F0060E83
:102AF000DBCF04F0070EDBCF05F0080EDBCF06F0CE
:102B0000090EDBCF07F0086A096A0A6A0B6A200E11
:102B10000C6E0350800BE8440D6E00500026013609
:102B2000023603360850082609360A360B360D5091
:102B3000D8A4088007500B5C08E106500A5C05E148
:102B40000550095C02E10450085C09E30450085E8A
:102B50000550095A06500A5A07500B5A00800C04B7
:102B60000D6E0DC00CF00D50D4E103C0E9FF02C0A2
:102B7000F4FF01C0F3FF0050E4CF0DF0E4CF0CF000
:102B8000E4CF0BF0E4CF0AF0E4CF09F0E4CF08F093
:102B9000E4CF07F0E4CF06F0E4CF05F0E4CF04F093
:102BA000E4CF03F0E4CF02F0E4CF01F0E4CF00F093
:102BB000E4CFD9FF120000C0E5FF01C0E5FF03C06C
:102BC000E5FF04C0E5FF05C0E5FF06C0E5FF07C05F
:102BD000E5FF08C0E5FF09C0E5FF0AC0E5FF0BC03F
:102BE000E5FF7EC500F07FC501F005017E3F01D005
:102BF0007F2B0050E56E98EC2EF0E652076E046ACB
:102C0000056A066A7EC500F07FC501F005017E3FBA
:102C100001D07F2B0050E56E98EC2EF0E6520B6A47
:102C20000A6E086A0850041205120A5006120B5068
:102C300007127EC500F07FC501F005017E3F01D07F
:102C40007F2B0050E56E98EC2EF0E652036E006A82
:102C500003C001F0E86A03BEFF0E086E096E005063
:102C600004120150051208500612095007127EC5C1
:102C700000F07FC501F005017E3F01D07F2B0050A1
:102C8000E56E98EC2EF0E652016A0412015005122E
:102C90000612071207C0E9FF06C0F4FF05C0F3FFE4
:102CA0000450E4CF0BF0E4CF0AF0E4CF09F0E4CF16
:102CB00008F0E4CF07F0E4CF06F0E4CF05F0E4CF6E
:102CC00004F0E4CF03F0E4CF01F0E4CF00F0120011
:102CD000D9CFE5FFE1CFD9FF00C0E5FF01C0E5FF97
:102CE00002C0E5FF03C0E5FF04C0E5FF05C0E5FF46
:102CF00006C0E5FF07C0E5FF020EDBCF00F0030EC4
:102D0000DBCF01F0040EDBCF02F0050EDBCF03F0CA
:102D100002C006F00650046E800A33E100C0E9FFED
:102D200001C0F3FF0250E5EC2CF0056EF3CF06F086
:102D3000F4CF07F003C0E5FF05C0E9FF06C0F3FFCD
:102D40000750FBEC2EF000C0E9FF01C0F3FF02507A
:102D5000E5EC2CF0056EF3CF06F0F4CF07F0052A72
:102D600002E3064A072A05C0E5FF06C0F4FF07C0D4
:102D7000F6FF00C0E9FF01C0F3FF025089EC2EF01E
:102D800020D004C000F000AA1CD0007A0050046ECD
:102D900004E103504EEC2FF014D00450010A04E17A
:102DA000035061EC2FF00DD004500F0A04E10350E2
:102DB000FDEC27F006D004500E0A03E103505EEC50
:102DC0002FF0E4CF07F0E4CF06F0E4CF05F0E4CF36
:102DD00004F0E4CF03F0E4CF02F0E4CF01F0E4CF5D
:102DE00000F0E4CFD9FF120000C0E5FF01C0E5FF0D
:102DF00002C0E5FF03C0E5FF04C0E5FF05019551F2
:102E00000501941901E15CD095C500F0002A009EEF
:102E1000600E0024016E026A000E022201C0E9FF6A
:102E200002C0EAFFEFCF9FF51F0E05019F1795C562
:102E30009EF59F5105019E279E2B9E2B9E9F96ECF3
:102E400029F0016E015003E1016A012A01D0016AF3
:102E500096EC29F005019F6F800E9F15026E1F0EE4
:102E60009F15036E03C004F003C09FF5045003E1F7
:102E700094C595F538D001501BE002501FE096EC48
:102E800029F0006E05019F070050420A17E000502C
:102E90004E0A03E18CEC24F011D00050460A03E105
:102EA000DAEC2EF00BD00050490A08E1FF0006D002
:102EB00095C5A0F50250D8A40EEC1CF09EC595F562
:102EC0000001E4510001E51906E00501965103E116
:102ED00008EC18F008D094B006D00501965103E133
:102EE000ACB2A6EC2EF0E4CF04F0E4CF03F0E4CFD4
:102EF00002F0E4CF01F0E4CF00F01200D9CFE5FFFB
:102F0000E1CFD9FF00C0E5FF01C0E5FF02C0E5FF4A
:102F100003C0E5FF04C0E5FF05C0E5FF06C0E5FF0F
:102F200007C0E5FF08C0E5FF09C0E5FF0AC0E5FFEF
:102F3000020EDBCF00F0030EDBCF01F0040EDBCF7F
:102F400002F0050EDBCF03F0060EDBCF04F0070E18
:102F5000DBCF05F00038E8441F0B066E076A800ED1
:102F60000626050E072206C0E9FF07C0EAFFEFCFDD
:102F700008F0070E0014096E010E0A6E095005E0F4
:102F8000E86CD8900A36010FFDE30A50081206C01B
:102F9000E9FF07C0EAFF08C0EFFF230E0024066E1A
:102FA000076A0F0E072206C0E9FF07C0EAFF01C04B
:102FB000EFFF016A230E0026040E0122800E025E3E
:102FC000070E02160238F00B036E070E05160550A9
:102FD000032600C0E9FF01C0EAFF03C0EFFFE4CF12
:102FE0000AF0E4CF09F0E4CF08F0E4CF07F0E4CF33
:102FF00006F0E4CF05F0E4CF04F0E4CF03F0E4CF33
:1030000002F0E4CF01F0E4CF00F0E4CFD9FF1200EA
:1030100000C0E5FF01C0E5FF02C0E5FF03C0E5FF1A
:10302000ACA276D0B8EC2BF0006E005005E10001A8
:10303000E56B0001E46B6CD0E5C001F000500126A7
:10304000B8EC2BF0026E00060250230A1FE1010EBD
:10305000005CD8A05BD0B8EC2BF0026E690A03E1EB
:103060002EEC28F053D00250720A03E1A6EC2EF0A9
:103070004DD00250730A01E049D09480AB869D8AFE
:103080009D98AE50AE50AB98AB8840D00250430AEA
:1030900005E00250420A01E039D001D0008E00C0A4
:1030A00098F500500401006F010E0501996F0001B1
:1030B000E551011814E0B8EC2BF0026E05019827D9
:1030C000000E05019925006E036A040E032200C05C
:1030D000E9FF03C0EAFF02C0EFFF992BE8D7000E1B
:1030E00005019925006E026A040E02220501981D51
:1030F000036E032A00C0E9FF02C0EAFF03C0EFFF2E
:103100000501992B99C596F50501906B01C0E5F075
:10311000E4CF03F0E4CF02F0E4CF01F0E4CF00F01D
:103120001200D9CFE5FFE1CFD9FF00C0E5FF01C014
:10313000E5FF02C0E5FF03C0E5FF04C0E5FF05C0F1
:10314000E5FF06C0E5FF020EDBCF00F000502FE1E7
:10315000928A800E016E0F0E026E0F0E046E380EF4
:10316000012604500222800E036E0F0E046E800EA4
:10317000015E0450025A0F0E066E380E03260650EA
:1031800004220F0E066E800E035E0650045A03C022
:10319000E9FF04C0EAFFEFCF03F0038A01C0E9FFB3
:1031A00002C0EAFF03C0EFFF9298899831D0005027
:1031B000020A2EE19288800E006E0F0E016E0F0E35
:1031C000036E380E002603500122800E026E0F0E91
:1031D000036E800E005E0350015A0F0E056E380E0E
:1031E0000226055003220F0E056E800E025E05506A
:1031F000035A02C0E9FF03C0EAFFEFCF02F00288E2
:1032000000C0E9FF01C0EAFF02C0EFFF929A899A6D
:10321000E4CF06F0E4CF05F0E4CF04F0E4CF03F010
:10322000E4CF02F0E4CF01F0E4CF00F0E4CFD9FF27
:10323000120000C0E5FF01C0E5FF02C0E5FF03C0CA
:10324000E5FFF4EC16F0BEEC08F054EC12F0F4ECF0
:1032500016F0EDEC1EF0F4EC16F06CEC29F0006EBC
:10326000F3CF01F0F4CF02F0E9CF03F004013351C2
:10327000005E3451015A3551025A3651035A039EA9
:103280003F0E035C08E1FF0E025C05E1FF0E015CEE
:1032900002E1FF0E005CD8B047D06CEC29F0F3CF10
:1032A00001F0F4CF02F0E9CF03F0100F0401336F07
:1032B000270E0120346F000E0220356F000E032010
:1032C000366F010EE56E800EE56E040EE56E790E2A
:1032D000E56E91EC13F0040EE1263BEC0EF0006E6F
:1032E0000050D8B478EC06F00001E12BF4EC16F0B5
:1032F000800EE56E040EE56E790EE56ED6EC10F0EC
:10330000030EE1260001E1510FE1E0C000F0E56AA3
:103310000050E56E000EE56E520EE56E1A0EE56E7B
:103320000EEC25F0050EE126E4CF03F0E4CF02F029
:10333000E4CF01F0E4CF00F01200D9CFE5FFE1CFF8
:10334000D9FF00C0E5FF01C0E5FF02C0E5FF03C0F3
:10335000E5FF04C0E5FF05C0E5FF06C0E5FF020E7E
:10336000DBCF00F0030EDBCF01F0040EDBCF02F069
:10337000050EDBCF03F003C004F0056A0350D8B498
:103380004FD000C0E9FF01C0F3FF025048EC2EF01F
:10339000066E430A03E1010E056E038E0406002A41
:1033A00002E3014A022A94909D9AAB989D989EA8A8
:1033B000FED7AC80AD6A00009EA8FED7AC9003C0DB
:1033C000ADFF00009EA8FED7055004E0420EAD6E92
:1033D000032604D0620EAD6E620E0326045015E083
:1033E00000009EA8FED700C0E9FF01C0F3FF025015
:1033F00048EC2EF0056E05C0ADFF0550032604060F
:10340000002A02E3014A022AE9D700009EA8FED75B
:10341000031CAD6EAD2A00009EA8FED7A6EC2EF0D0
:10342000E4CF06F0E4CF05F0E4CF04F0E4CF03F0FE
:10343000E4CF02F0E4CF01F0E4CF00F0E4CFD9FF15
:10344000120000C0E5FF01C0E5FF02C0E5FF03C0B8
:10345000E5FF04C0E5FF006A800E0024016E026AE9
:10346000050E022201C0E9FF02C0EAFFEF6A002A4E
:10347000020E005CF1E3006A0050020DF450026E8F
:10348000F3CF01F0390E0124036E040E0220046E06
:1034900003C0E9FF04C0EAFFEE6AEF6A590E012497
:1034A000036E040E0220046E03C0E9FF04C0EAFFAD
:1034B000EE6AEF6A930E0124036E040E0220046E7E
:1034C00003C0E9FF04C0EAFFEE6AEF6AB30E01240D
:1034D000036E040E0220046E03C0E9FF04C0EAFF7D
:1034E000EE6AEF6AD30E0126040E022201C0E9FF44
:1034F00002C0EAFFEE687F0EEF6E230E0024016E1D
:10350000026A040E022201C0E9FF02C0EAFFEF686E
:10351000002A100E005CD8A0AFD7AF0EC06EC16AF3
:10352000010EC26EC282E4CF04F0E4CF03F0E4CF18
:1035300002F0E4CF01F0E4CF00F01200432041207C
:1035400025642025640A0000D9CFE5FFE1CFD9FF2B
:1035500000C0E5FF01C0E5FF02C0E5FF03C0E5FFD5
:1035600004C0E5FF05C0E5FF06C0E5FF07C0E5FFB5
:10357000020EDBCF00F0030EDBCF01F0040EDBCF39
:1035800002F0050EDBCF03F0E5C0E6F00001E451E8
:103590000001E65FE60703C004F0056A030E042697
:1035A000D8B0052AE6C006F0076A0750800FF36E10
:1035B0000550800FF35C02E10450065C02E2E8680B
:1035C0002BD0020E035C02E2E86A26D00306035009
:1035D000E56ECAEC25F0E652046A0350045C14E27E
:1035E00004500024056EE86A0120066EE86A022095
:1035F00005C0E9FF06C0F3FF48EC2EF0042AE56E93
:10360000CAEC25F0E652E9D7E5C0E6F00001E45146
:103610000001E65FE607E86AE4CF07F0E4CF06F0D2
:10362000E4CF05F0E4CF04F0E4CF03F0E4CF02F000
:10363000E4CF01F0E4CF00F0E4CFD9FF1200920E06
:10364000E56EC0EC29F0E652AB0A02E0E86A6ED003
:10365000E56A0A0EE56EDDEC22F0E652E652010E56
:10366000E56EABEC2CF0E652000EE56AB5EC26F008
:10367000E652000EE56A41EC29F0E652000EE56ADA
:10368000EAEC29F0E6520501A599A59BA551E56E46
:10369000800EE56ED7EC2BF0E652E652E56AE56A5D
:1036A000E56AE56AE70EE56EA4EC21F0050EE12679
:1036B000000EE56A3DEC2AF0E652E56A0A0EE56E78
:1036C000BAEC14F0E652E652010EE56E3DEC2AF03B
:1036D000E652E56A0A0EE56EBAEC14F0E652E652DE
:1036E000000EE56A8EEC2CF0E652010EE56E15EC4C
:1036F0002CF0E652020EE56EF6EC2BF0E652320E9E
:10370000E56EBCEC2DF0E652F0EC2EF00501A65172
:103710003F0BC009A66FC00B0909A66FE56EA60E88
:10372000E56ED7EC2BF0E652E652010E1200D9CF2F
:10373000E5FFE1CFD9FF00C0E5FF01C0E5FF02C012
:10374000E5FF03C0E5FF04C0E5FF05C0E5FF020E8D
:10375000DBCF00F0030EDBCF01F0040EDBCF02F075
:103760000050020DF450036EF3CF00F0590E002408
:10377000046E040E0320056E04C0E9FF05C0EAFFD5
:1037800001C0EEFF02C0EFFF930E0024046E040E92
:103790000320056E04C0E9FF05C0EAFFEECF04F088
:1037A000EFCF05F00150045C016E02500558026E27
:1037B000000E0026050E032200C0E9FF03C0EAFF49
:1037C00001C0EEFF02C0EFFFD88002AED89004E344
:1037D000021E016CD8B4022A0250800F800F02E151
:1037E000030E015C02E2016A026A0150021007E165
:1037F00000C0E9FF03C0EAFF000EEE6AEF6AE4CF03
:1038000005F0E4CF04F0E4CF03F0E4CF02F0E4CF1E
:1038100001F0E4CF00F0E4CFD9FF120000C0E5FFD3
:1038200001C0E5FF02C0E5FF96EC29F0006E4C0AEE
:1038300008E196EC29F0006E300A02E08B8201D09C
:103840008B920050530A08E196EC29F0300A02E00E
:103850008A8E52D08A9E50D00050450A27E1000E31
:10386000E56E520EE56E260EE56E0EEC25F0030EAB
:10387000E12658EC2FF0006E00C001F001C002F00C
:10388000010602500FE096EC29F0E56AE56E000EA5
:10389000E56E520EE56E280EE56E0EEC25F0050E77
:1038A000E126ECD70A0EFDEC27F026D00050520A94
:1038B00015E1270EE56EE56A080EE56E29EC14F0B9
:1038C000030EE126E56A800EE56E040EE56E790EC4
:1038D000E56EA8EC1FF0040EE1260ED00050410A60
:1038E0000BE1270EE56EE56A080EE56E29EC14F093
:1038F000030EE126EBEC28F0E4CF02F0E4CF01F078
:10390000E4CF00F01200D9CFE5FFE1CFD9FF00C02E
:10391000E5FF01C0E5FF02C0E5FF03C0E5FF04C00D
:10392000E5FF05C0E5FF06C0E5FF020EDBCF00F0B6
:10393000030EDBCF01F0040EDBCF02F0050EDBCF70
:1039400003F0D88001AED890046A0436045007E032
:10395000011C066E001C056E054A062A04D000C034
:1039600005F001C006F0D88003AED89007E3031C31
:10397000016E021C006E004A012A04D002C000F051
:1039800003C001F00150E56E0050E56E0650E56E93
:103990000550E56E4BEC1FF0006EF3CF01F0040E06
:1039A000E12604500AE0011C036E001C026E024A6C
:1039B000032A03C0F3FF025003D001C0F3FF0050FD
:1039C000E4CF06F0E4CF05F0E4CF04F0E4CF03F059
:1039D000E4CF02F0E4CF01F0E4CF00F0E4CFD9FF70
:1039E0001200D9CFE5FFE1CFD9FF00C0E5FF01C04C
:1039F000E5FF02C0E5FF03C0E5FF04C0E5FF05C029
:103A0000E5FF020EDBCF00F0030EDBCF01F0040E6A
:103A1000DBCF02F0050EDBCF03F07EC504F07FC5DF
:103A200005F005017E3F01D07F2B0350E56E045069
:103A3000E56E74EC2BF0E652E6527EC504F07FC5CD
:103A400005F005017E3F01D07F2B0250056EE56E2B
:103A50000450E56E74EC2BF0E652E6527EC504F09D
:103A60007FC505F005017E3F01D07F2B0150056E1B
:103A7000E56E0450E56E74EC2BF0E652E6527EC51E
:103A800004F07FC505F005017E3F01D07F2B00507B
:103A9000E56E0450E56E74EC2BF0E652E652E4CF8E
:103AA00005F0E4CF04F0E4CF03F0E4CF02F0E4CF7C
:103AB00001F0E4CF00F0E4CFD9FF1200D9CFE5FF49
:103AC000E1CFD9FF00C0E5FF01C0E5FF02C0E5FF7F
:103AD00003C0E5FF04C0E5FF05C0E5FF06C0E5FF44
:103AE000020EDBCF00F0030EDBCF01F0040EDBCFC4
:103AF00002F00401375119E1DBEC15F0036EF3CF4E
:103B000004F0F4CF05F0E9CF06F003C0E5FF04C0F0
:103B1000F4FF05C0F6FF06C0F7FF00C0E9FF01C0D3
:103B2000F3FF025037EC2EF01ED004013751010A8A
:103B30001AE100C0E9FF01C0F3FF025098EC2BF03E
:103B4000006EF3CF01F0F4CF02F0E9CF03F00350A1
:103B5000E56E0250E56E0150E56E0050E56EF1EC49
:103B60001CF0040EE126E4CF06F0E4CF05F0E4CF2C
:103B700004F0E4CF03F0E4CF02F0E4CF01F0E4CFAF
:103B800000F0E4CFD9FF1200D9CFE5FFE1CFD9FF94
:103B900000C0E5FF01C0E5FF02C0E5FF03C0E5FF8F
:103BA00004C0E5FF05C0E5FF06C0E5FF020EDBCF60
:103BB00000F0030EDBCF01F00038E8441F0B026E6B
:103BC000036A800E0226050E032202C0E9FF03C02D
:103BD000EAFFEFCF04F0070E0014056E010E066E2B
:103BE000055005E0E86CD8900636010FFDE306505D
:103BF000041202C0E9FF03C0EAFF04C0EFFF230E76
:103C00000024026E036A0F0E032202C0E9FF03C004
:103C1000EAFF01C0EFFF016A230E0026040E012215
:103C200000C0E9FF01C0EAFFFF0EEF68E4CF06F035
:103C3000E4CF05F0E4CF04F0E4CF03F0E4CF02F0EA
:103C4000E4CF01F0E4CF00F0E4CFD9FF1200D9CFE8
:103C5000E5FFE1CFD9FF00C0E5FF01C0E5FF02C0ED
:103C6000E5FF03C0E5FF04C0E5FF05C0E5FF020E68
:103C7000DBCF00F0030EDBCF01F0040EDBCF02F050
:103C8000050EDBCF03F0060EDBCF04F0E56A390E3C
:103C9000E56E5FEC28F0E652E6520050E56E32EC3D
:103CA0002DF0E652DBEC2AF0010EE56E390EE56EE2
:103CB0005FEC28F0E652E652006A04C005F0040604
:103CC000055016E016EC29F0056E05C0E5FF01C0B1
:103CD000E9FF02C0F3FF0350FBEC2EF0012A02E3E0
:103CE000024A032A045002E014EC2AF0002AE5D725
:103CF000DBEC2AF00050E4CF05F0E4CF04F0E4CF91
:103D000003F0E4CF02F0E4CF01F0E4CF00F0E4CF21
:103D1000D9FF1200D9CFE5FFE1CFD9FF00C0E5FF01
:103D200001C0E5FF02C0E5FF03C0E5FF04C0E5FFF9
:103D300005C0E5FF06C0E5FF020EDBCF00F0030E75
:103D4000DBCF01F0040EDBCF02F0050EDBCF03F07A
:103D5000060EDBCF04F0070EDBCF05F0080EDBCF3D
:103D600006F0D88003AED89015E306500A0A12E197
:103D700004C0E9FF05C0EAFF2D0EEF6E044A052AD4
:103D8000031E021E011E006C05E1012A03E1022A46
:103D9000D8B4032A0650E56E0550E56E0450E56E72
:103DA0000350E56E0250E56E0150E56E0050E56E81
:103DB00022EC0FF0070EE126E4CF06F0E4CF05F089
:103DC000E4CF04F0E4CF03F0E4CF02F0E4CF01F05D
:103DD000E4CF00F0E4CFD9FF120000C0E5FF69ECAA
:103DE0002EF0006E0050D8B453D0800EE56E050E54
:103DF000E56E7C0EE56E800EE56E050EE56E7A0EC4
:103E0000E56E800EE56E050EE56E780EE56E800EB1
:103E1000E56E050EE56E760EE56EA5EC11F00C0E66
:103E2000E126420E0501506F0A0E516F05017751D0
:103E30000501526F050176510501536F0501795156
:103E40000501546F050178510501556F05017B513E
:103E50000501566F05017A510501576F05017D5126
:103E60000501586F05017C510501596F43EC2FF096
:103E700005015A6F0A0E5B6F0C0EE56E800EE56E43
:103E8000050EE56E500EE56EA4EC1AF0040EE12668
:103E9000E4CF00F01200D9CFE5FFE1CFD9FF00C099
:103EA000E5FF01C0E5FF02C0E5FF03C0E5FF04C078
:103EB000E5FF05C0E5FF06C0E5FF020EDBCF00F021
:103EC000030EDBCF01F0040EDBCF02F0050EDBCFDB
:103ED00003F0046A056A0350800BE844066E06503E
:103EE00011E10250022603360350015C02E1025048
:103EF000005C04E2D8900332023204D0052A05C0E7
:103F000004F0E9D70350015C02E10250005C04E3D5
:103F10000250005E0350015AD8900332023204C0AE
:103F200005F004060550EEE101C0F3FF0050E4CFB8
:103F300006F0E4CF05F0E4CF04F0E4CF03F0E4CFE3
:103F400002F0E4CF01F0E4CF00F0E4CFD9FF12009B
:103F5000D9CFE5FFE1CFD9FF00C0E5FF01C0E5FF04
:103F600002C0E5FF03C0E5FF020EDBCF00F0030E49
:103F7000DBCF01F0040EDBCF02F0050EDBCF03F048
:103F8000035003E11D0E036E02D0530E036E03C0F7
:103F9000E5FF00C0E9FF01C0F3FF0250FBEC2EF08B
:103FA000E56A2D0EE56E0350E56E90EC28F0030EE9
:103FB000E126100EE56E2D0EE56E0350E56E90ECD9
:103FC00028F0030EE126080EE56E2D0EE56E035077
:103FD000E56E90EC28F0030EE1260B0EE56E310E37
:103FE000E56E0350E56E90EC28F0030EE126E4CF79
:103FF00003F0E4CF02F0E4CF01F0E4CF00F0E4CF2F
:10400000D9FF1200D9CFE5FFE1CFD9FF00C0E5FF0E
:1040100001C0E5FF02C0E5FF03C0E5FF04C0E5FF06
:1040200005C0E5FF06C0E5FF07C0E5FF020EDBCFD8
:1040300000F0030EDBCF01F0040EDBCF02F0050E23
:10404000DBCF03F0046A056A100E066E0150800B88
:10405000E844076E00500026013604500426053659
:104060000750D8A404800350055C02E10250045CB0
:1040700005E30250045E0350055A00800604076EF3
:1040800007C006F00750E2E101C0F3FF0050E4CFA3
:1040900007F0E4CF06F0E4CF05F0E4CF04F0E4CF7E
:1040A00003F0E4CF02F0E4CF01F0E4CF00F0E4CF7E
:1040B000D9FF1200D9CFE5FFE1CFD9FF00C0E5FF5E
:1040C00001C0E5FF02C0E5FF03C0E5FF020EDBCF44
:1040D00000F0030EDBCF01F0040EDBCF02F000C0D6
:1040E000E9FF01C0F3FF025048EC2EF0036E0350CD
:1040F00029E0C6A610D00350E56E32EC2DF0036E19
:10410000E652035002E0FD0E1ED0BFEC28F0C5AC15
:1041100014D0FE0E18D09E9600C0E9FF01C0F3FF38
:10412000025048EC2EF0C96EC6889EA6FED7C7B4D2
:1041300004D0C7B002D0FE0E06D0002AD0E3014A58
:10414000022ACDD7E86AE4CF03F0E4CF02F0E4CF4F
:1041500001F0E4CF00F0E4CFD9FF1200D9CFE5FFA2
:10416000E1CFD9FF00C0E5FF01C0E5FF02C0E5FFD8
:1041700003C0E5FF04C0E5FF05C0E5FF020EDBCF8D
:1041800000F0030EDBCF01F0040EDBCF02F0050ED2
:10419000DBCF03F0046A03C005F00306055022E0FC
:1041A00016EC29F0056E05C0E5FF00C0E9FF01C06F
:1041B000F3FF0250FBEC2EF0002A02E3014A022A30
:1041C00004C005F0C5A6E7D7A1A602D0E8680BD0C9
:1041D000052A05C004F00350F5E014EC2AF0C5B838
:1041E000FED7F0D70450E4CF05F0E4CF04F0E4CFDD
:1041F00003F0E4CF02F0E4CF01F0E4CF00F0E4CF2D
:10420000D9FF120000C0E5FF01C0E5FF02C0E5FFD5
:1042100003C0E5FF95C500F0016AA0C502F0036A7E
:104220000250005E0350015AE56A800EE56E0150AF
:10423000E56E0050E56E83EC1CF0006E040EE12686
:104240000006A0C501F0430EFDEC27F0200EFDECAA
:1042500027F0005020E0600E0124026E036A000E79
:10426000032202C0E9FF03C0EAFFEFCF02F0E56AD4
:104270000250E56E000EE56E5D0EE56E640EE56EB5
:104280000EEC25F0050EE126012A0150800A01E11D
:10429000016A0006DED7E4CF03F0E4CF02F0E4CFFA
:1042A00001F0E4CF00F01200D9CFE5FFE1CFD9FF54
:1042B00000C0E5FF01C0E5FF02C0E5FF03C0E5FF68
:1042C000020EDBCF00F0030EDBCF01F0040EDBCFDC
:1042D00002F0050EDBCF03F0005005018A6F01509C
:1042E0008B6F025005018C6F03508D6F05018A5151
:1042F00005018C03F4CF01F0F3CF00F0005005016D
:104300008E6F01508F6F05018A5105018D03F3CF28
:1043100000F005018B5105018C03F3CF01F0015032
:10432000002605018F51002600508F6F8FC5F3FFC7
:104330008E51E4CF03F0E4CF02F0E4CF01F0E4CFFC
:1043400000F0E4CFD9FF1200D9CFE5FFE1CFD9FFCC
:1043500000C0E5FF01C0E5FF02C0E5FF03C0E5FFC7
:1043600004C0E5FF020EDBCF00F0030EDBCF01F04F
:10437000040EDBCF02F0050EDBCF03F0060EDBCF21
:1043800004F0E56A390EE56E5FEC28F0E652E6527D
:104390000050E56E32EC2DF0E65204C000F0040649
:1043A000005012E001C0E9FF02C0F3FF035048ECE7
:1043B0002EF0006E012A02E3024A032A0050E56E45
:1043C00032EC2DF0E652E9D7DBEC2AF0E4CF04F032
:1043D000E4CF03F0E4CF02F0E4CF01F0E4CF00F04B
:1043E000E4CFD9FF1200D9CFE5FFE1CFD9FF00C05C
:1043F000E5FF01C0E5FF02C0E5FF03C0E5FF04C023
:10440000E5FF020EDBCF00F0030EDBCF01F0040E60
:10441000DBCF02F00401375111E1C9EC27F0036E44
:10442000F3CF04F003C0E5FF04C0F4FF00C0E9FFD0
:1044300001C0F3FF0250C2EC2EF016D00401375138
:10444000010A12E100C0E9FF01C0F3FF0250D2EC03
:104450002DF0006EF3CF01F00150E56E0050E56ED7
:104460008DEC25F0E652E652E4CF04F0E4CF03F001
:10447000E4CF02F0E4CF01F0E4CF00F0E4CFD9FFC5
:104480001200D9CFE5FFE1CFD9FF00C0E5FF01C0A1
:10449000E5FF02C0E5FF03C0E5FF04C0E5FF020E33
:1044A000DBCF00F00038E8441F0B016E026A840E77
:1044B0000126050E022201C0E9FF02C0EAFFEFCF8C
:1044C00001F0070E0016010E026E000E036E005082
:1044D00006E0E86CD89002360336010FFCE3046A6C
:1044E000015002160450031602500310D880E866EB
:1044F000D890026A02360250D880E866D890026AE4
:1045000002360250E4CF04F0E4CF03F0E4CF02F02F
:10451000E4CF01F0E4CF00F0E4CFD9FF1200600E49
:10452000F66E5E0EF76E000EF86E0900F550056E21
:104530000900F550066E04E1056702D0DCEF22F0B9
:104540000900F550006E0900F550016E0900F550A4
:10455000026E09000900F550E96E0900F550EA6E97
:10456000090009000900F550036E0900F550046EBA
:1045700009000900F6CF07F0F7CF08F0F8CF09F0EF
:1045800000C0F6FF01C0F7FF02C0F8FF035002E1D0
:10459000045007E00900F550EE6E0306F8E2040649
:1045A000F9D707C0F6FF08C0F7FF09C0F8FF0506F6
:1045B00001E206069BEF22F01200D9CFE5FFE1CF22
:1045C000D9FF00C0E5FF01C0E5FF020EDBCF00F020
:1045D000030EDBCF01F00150E56E0050E56EE56A99
:1045E000200EE56E54EC21F0006EF3CF01F0040EC6
:1045F000E126E56A590EE56E0150E56E0050E56E64
:1046000002EC20F0006EF3CF01F0040EE126005022
:104610000008006E010E01560150800F7F0F02E16D
:10462000000E005C03E3FF0E006E016AD88001AE4D
:10463000D890D8B0006A0050E56E810EE56ED7ECD8
:104640002BF0E652E652E4CF01F0E4CF00F0E4CFE5
:10465000D9FF1200D9CFE5FFE1CFD9FF00C0E5FFB8
:1046600001C0E5FF02C0E5FF03C0E5FF020EDBCF9E
:1046700000F0E56A390EE56E5FEC28F0E652E6528E
:104680000050E56E32EC2DF0E652DBEC2AF0010E24
:10469000E56E390EE56E5FEC28F0E652E65216EC58
:1046A00029F00501886F14EC2AF016EC29F00501B9
:1046B000896FDBEC2AF089C500F0016A0050036EB7
:1046C000026A88C500F0005002120150031203C0B4
:1046D000F3FF0250E4CF03F0E4CF02F0E4CF01F0A7
:1046E000E4CF00F0E4CFD9FF1200D9CFE5FFE1CF4E
:1046F000D9FF00C0E5FF01C0E5FF02C0E5FF03C030
:10470000E5FF04C0E5FF05C0E5FF020EDBCF00F0CA
:104710000050010A22E1016A0150020DF450036EBB
:10472000F3CF02F0B30E0224046E040E0320056ED4
:1047300004C0E9FF05C0EAFFEE687F0EEF6ED30EFE
:104740000226040E032202C0E9FF03C0EAFFEE6A5C
:10475000EF6A012A100E015CDFE300C0EAF0E4CF4B
:1047600005F0E4CF04F0E4CF03F0E4CF02F0E4CFAF
:1047700001F0E4CF00F0E4CFD9FF120000C0E5FF64
:1047800001C0E5FF02C0E5FF03C0E5FF04C0E5FF8F
:10479000006A820E0024016E026A050E0222840E57
:1047A0000024036E046A050E042203C0E9FF04C05E
:1047B000EAFF010EEF6E01C0E9FF02C0EAFFEF6EF3
:1047C000002A020E005CE5E3006A400E0024016E40
:1047D000026A050E022201C0E9FF02C0EAFFEF688B
:1047E000002A100E005CF1E3E4CF04F0E4CF03F004
:1047F000E4CF02F0E4CF01F0E4CF00F01200432058
:10480000732025642025640A0000D9CFE5FFE1CF9D
:10481000D9FF00C0E5FF01C0E5FF02C0E5FF03C00E
:10482000E5FF04C0E5FF05C0E5FF020EDBCF00F0A9
:10483000030EDBCF01F0040EDBCF02F0050EDBCF61
:1048400003F0060EDBCF04F0056A400E0026050ECD
:104850000522800E015E070E01160138F00B026E74
:10486000070E04160450022600C0E9FF05C0EAFF47
:1048700002C0EFFFE4CF05F0E4CF04F0E4CF03F093
:10488000E4CF02F0E4CF01F0E4CF00F0E4CFD9FFB1
:104890001200D9CFE5FFE1CFD9FF00C0E5FF01C08D
:1048A000E5FF02C0E5FF03C0E5FF020EDBCF00F02D
:1048B000030EDBCF01F0040EDBCF02F0050EDBCFE1
:1048C00003F00050E56EA40EE56ED7EC2BF0E65237
:1048D000E6520150E56EA50EE56ED7EC2BF0E652E0
:1048E000E6520250E56EA70EE56ED7EC2BF0E652CD
:1048F000E6520350E56EA90EE56ED7EC2BF0E652BA
:10490000E652E4CF03F0E4CF02F0E4CF01F0E4CFCD
:1049100000F0E4CFD9FF120000C0E5FF01C0E5FFC1
:1049200002C0E5FF96EC29F0006E96EC29F0016ECE
:104930000050026ED00E0224006E0A0E005C05E3E9
:104940000050026EF90E0224006E0150026ED00E6D
:104950000224016E0A0E015C05E30150026EF90E9D
:104960000224016E080E005C12E2100E015CD8B049
:104970000ED00038F00B0124006E41EC26F0016EE1
:10498000015005E10050E56E1AEC2DF0E652E4CF3F
:1049900002F0E4CF01F0E4CF00F01200D9CFE5FF40
:1049A000E1CFD9FF00C0E5FF01C0E5FF02C0E5FF90
:1049B00003C0E5FF04C0E5FF020EDBCF00F00038C6
:1049C000E8441F0B016E026A800E0126050E0222CA
:1049D00001C0E9FF02C0EAFFEFCF03F0070E0016A7
:1049E000010E046E005005E0E86CD8900436010F0B
:1049F000FDE3041C031601C0E9FF02C0EAFF03C087
:104A0000EFFFE4CF04F0E4CF03F0E4CF02F0E4CF13
:104A100001F0E4CF00F0E4CFD9FF1200D9CFE5FFD9
:104A2000E1CFD9FF00C0E5FF01C0E5FF02C0E5FF0F
:104A3000020ED924006E000EDA20016E800E026E86
:104A4000030E0026000E012202220250E56E0150E4
:104A5000E56E0050E56E040EDBCFE5FF030EDBCF05
:104A6000E5FF020EDBCFE5FF05016F51E56E6E51EC
:104A7000E56E6D51E56E0EEC00F0006EF3CF01F0C7
:104A8000090EE12601C0F3FF0050E4CF02F0E4CFAD
:104A900001F0E4CF00F0E4CFD9FF1200D9CFE5FF59
:104AA000E1CFD9FF00C0E5FF01C0E5FF02C0E5FF8F
:104AB00003C0E5FF020EDBCF00F0030EDBCF01F0F9
:104AC000040EDBCF02F0040137510DE190EC2DF024
:104AD000036E03C0E5FF00C0E9FF01C0F3FF025011
:104AE000FBEC2EF00FD004013751010A0BE100C09E
:104AF000E9FF01C0F3FF025048EC2EF0E56E29EC0F
:104B00002BF0E652E4CF03F0E4CF02F0E4CF01F063
:104B1000E4CF00F0E4CFD9FF1200D9CFE5FFE1CF19
:104B2000D9FF00C0E5FF01C0E5FF02C0E5FF03C0FB
:104B3000E5FF020EDBCF00F0030EDBCF01F07EC5F8
:104B400002F07FC503F005017E3F01D07F2B0150AD
:104B5000E56E0250E56E74EC2BF0E652E6527EC52F
:104B600002F07FC503F005017E3F01D07F2B00508E
:104B7000E56E0250E56E74EC2BF0E652E652E4CF9F
:104B800003F0E4CF02F0E4CF01F0E4CF00F0E4CF93
:104B9000D9FF1200D9CFE5FFE1CFD9FF00C0E5FF73
:104BA00001C0E5FF02C0E5FF03C0E5FF04C0E5FF6B
:104BB000020EDBCF00F0E4C001F0026A014A022AD3
:104BC000E5C003F0046A0150031803E10250041821
:104BD00001E001D00ED0000E0001E425016E026A52
:104BE000010E022201C0E9FF02C0EAFF00C0EFFF90
:104BF000E42BE4CF04F0E4CF03F0E4CF02F0E4CF01
:104C000001F0E4CF00F0E4CFD9FF1200D9CFE5FFE7
:104C1000E1CFD9FF00C0E5FF01C0E5FF02C0E5FF1D
:104C200003C0E5FF020EDBCF00F0016AA0C502F071
:104C3000036A0250002603500122E56A800EE56EE9
:104C40000150E56E0050E56E83EC1CF0006EF3CF72
:104C500001F0040EE126600E0026000E012200C0C5
:104C6000E9FF01C0EAFFEFCF00F00050E4CF03F00E
:104C7000E4CF02F0E4CF01F0E4CF00F0E4CFD9FFBD
:104C8000120000C0E5FF01C0E5FF02C0E5FF010E14
:104C9000006E96EC29F0016E01C002F0015023E095
:104CA0000050E56E98EC2EF0016EE652015010E1D6
:104CB0000A0E005C0BE20A0E006EE56E98EC2EF018
:104CC000016EE652015004E1E8680ED0E8680CD0AD
:104CD0000150021802E0E86807D0002A1B0E005CB1
:104CE000D8E3E86801D0E86AE4CF02F0E4CF01F04D
:104CF000E4CF00F0120000C0E5FF01C0E5FF02C0F4
:104D0000E5FF03C0E5FF6CEC29F0006EF3CF01F086
:104D1000F4CF02F0E9CF03F0E56AE56A030EE56E31
:104D2000E80EE56E0350E56E0250E56E0150E56E4B
:104D30000050E56E4BEC15F0006EF3CF01F0F4CFB0
:104D400002F0E9CF03F0080EE12603C0E9FF02C03C
:104D5000F4FF01C0F3FF0050E4CF03F0E4CF02F012
:104D6000E4CF01F0E4CF00F01200D9CFE5FFE1CFAE
:104D7000D9FF00C0E5FF020EDBCF00F000500AE1D2
:104D80000501AD91AD51E56EAB0EE56ED7EC2BF0A4
:104D9000E652E6520050D880E866D890006A0036A5
:104DA0000050D880E866D890006A00360050010BA9
:104DB000E840E840F46E0501A551BF0BF410A56F63
:104DC000E56E800EE56ED7EC2BF0E652E652F0EC85
:104DD0002EF0E4CF00F0E4CFD9FF1200F3CFE5FFCF
:104DE000F4CFE5FFE9CFE5FFEACFE5FFFACFE5FF36
:104DF000FBCFE5FF0001E2510F01356F0001E351E8
:104E00000F01366FD650336FD750346FF2A411D0E4
:104E10000001E23F01D0E32BF2940001E2510F01C7
:104E2000356F0001E3510F01366FD650336FD75005
:104E3000346FE4CFFBFFE4CFFAFFE4CFEAFFE4CF27
:104E4000E9FFE4CFF4FFE4CFF3FF1100D9CFE5FF92
:104E5000E1CFD9FF00C0E5FF01C0E5FF020EDBCFC7
:104E600000F0030EDBCF01F0010E015C02E2010E47
:104E7000016E410E015C02E3400E016E010600501E
:104E8000030BE840E840F46E0501A8513F0BF41015
:104E9000A86F01503F0BF46EA851C00BF410A86F1F
:104EA000E56E8E0EE56ED7EC2BF0E652E652E4CFBF
:104EB00001F0E4CF00F0E4CFD9FF1200D9CFE5FF35
:104EC000E1CFD9FF00C0E5FF01C0E5FF02C0E5FF6B
:104ED00003C0E5FF020EDBCF00F0E56E800EE56E4D
:104EE000050EE56E860EE56E0050E56E27EC1EF0B1
:104EF000050EE12686C500F0016A0050036E026AC5
:104F000087C500F0005002120150031203C0F3FFE6
:104F10000250E4CF03F0E4CF02F0E4CF01F0E4CF9D
:104F200000F0E4CFD9FF1200D9CFE5FFE1CFD9FFE0
:104F300000C0E5FF01C0E5FF020EDBCF00F0030E6D
:104F4000DBCF01F00150030BE838F46E0501B251DC
:104F5000CF0BF410B26FE56E900EE56ED7EC2BF030
:104F6000E652E6520050030BE838F46E0501A751F3
:104F7000CF0BF410A76FE56E8F0EE56ED7EC2BF01C
:104F8000E652E652E4CF01F0E4CF00F0E4CFD9FFDF
:104F9000120000C0E5FF01C0E5FF02C0E5FF03C04D
:104FA000E5FF7EC500F07FC501F005017E3F01D021
:104FB0007F2B0050E56E98EC2EF0E652036E026AED
:104FC0007EC500F07FC501F005017E3F01D07F2B3B
:104FD0000050E56E98EC2EF0E652016A0212015084
:104FE000031203C0F3FF0250E4CF03F0E4CF02F05A
:104FF000E4CF01F0E4CF00F0120000C0E5FF01C0F3
:10500000E5FF02C0E5FF006E000E0001E925016E1C
:10501000026A0F0E022201C0E9FF02C0EAFF00C0CF
:10502000EFFF220EE95D01E2E92B00500A0A0FE1D1
:105030000001E951E56E800EE56E0F0EE56E000E83
:10504000E56EA4EC1AF0040EE1260001E96BE4CF52
:1050500002F0E4CF01F0E4CF00F012000001E46BB5
:105060000001E56B0001E66994808B909480B06A42
:105070003F0EAF6EB886AC8AAC84AC8CAC90AB8C77
:10508000AB8E0501976B0501916B0501946B0501D2
:10509000956B0501966B000EE56A98EC2EF0000109
:1050A000E86FE6529F989F9A010E0001E76F050195
:1050B0006D6B6E6B2F0E6F6FA6EC2EF01200D9CFBA
:1050C000E5FFE1CFD9FF00C0E5FF01C0E5FF02C069
:1050D000E5FF020EDBCF00F0030EDBCF01F002ECA8
:1050E0002BF00044FE0B026E0150D880E866D89089
:1050F000006A00360050D880E866D890006A003612
:10510000005002120250E56E32EC2DF0E652E4CF70
:1051100002F0E4CF01F0E4CF00F0E4CFD9FF1200B9
:10512000D9CFE5FFE1CFD9FF00C0E5FF01C0E5FF22
:1051300002C0E5FF020EDBCF00F0030EDBCF01F073
:10514000040EDBCF02F0E56A0050E56E5FEC28F05C
:10515000E652E6520150E56E32EC2DF0E652025076
:10516000E56E32EC2DF0E652DBEC2AF0E4CF02F0F3
:10517000E4CF01F0E4CF00F0E4CFD9FF120000C08B
:10518000E5FF01C0E5FF02C0E5FF03C0E5FFE80E53
:10519000006E030E016E0050FF0F026EFF0E012025
:1051A000036E02C000F003C001F0025003100AE0D9
:1051B0001F0EC514026E036AC7B4032A03500212FD
:1051C0000250E9E1E4CF03F0E4CF02F0E4CF01F0D4
:1051D000E4CF00F012001FEC1BF00001E06FE05183
:1051E0001BE0010EE56EEAEC29F0E652030EE56ED7
:1051F000ABEC2CF0E652E56A0A0EE56EDDEC22F02F
:10520000E652E652010EE56E41EC29F0E652080E38
:10521000E56E34EC2CF0E652120043415044534FFB
:105220004B2025640A0043002563000000C0E5FF11
:1052300001C0E5FF02C0E5FF03C0E5FFE80E006E18
:10524000030E016EBFEC28F0C5860050FF0F026E02
:10525000FF0E0120036E02C000F003C001F00250F7
:10526000031005E03DEC2FF0026E0250EEE0C95055
:10527000E4CF03F0E4CF02F0E4CF01F0E4CF00F09C
:105280001200D9CFE5FFE1CFD9FF00C0E5FF020E44
:10529000DBCF00F00050D880E866D890006A003676
:1052A0000050D880E866D890006A00360050010BA4
:1052B000E844E844F46E0501A551FB0BF410A56F1A
:1052C000E56E800EE56ED7EC2BF0E652E652E4CFA9
:1052D00000F0E4CFD9FF12000001E2510401836F16
:1052E0000001E3510401846FD650816FD750826F63
:1052F00083510001E21905E1040184510001E31921
:105300000CE00001E2510401836F0001E35104014C
:10531000846FD650816FD750826F84C4E9FF83C4F5
:10532000F4FF82C4F3FF04018151120000C0E5FFC5
:1053300001C0E5FF0501955105019E1905E0050134
:1053400095510501941902E1E86A15D095C500F060
:105350000501952B016A600E0026000E012200C097
:10536000E9FF01C0EAFFEFCF00F09551800A02E1AA
:105370000501956B0050E4CF01F0E4CF00F012007E
:10538000D9CFE5FFE1CFD9FF00C0E5FF020EDBCFAB
:1053900000F0E56A390EE56E5FEC28F0E652E65261
:1053A0000050E56E32EC2DF0E652DBEC2AF0010EF7
:1053B000E56E390EE56E5FEC28F0E652E65216EC2B
:1053C00029F0006EDBEC2AF00050E4CF00F0E4CFCF
:1053D000D9FF1200D9CFE5FFE1CFD9FF00C0E5FF2B
:1053E000020EDBCF00F00050D880E866D890006A4B
:1053F00000360050D880E866D890006A0036005029
:10540000010BE844F46E0501A551FD0BF410A56FE6
:10541000E56E800EE56ED7EC2BF0E652E652E4CF57
:1054200000F0E4CFD9FF120000C0E5FF01C0E5FFA6
:1054300002C0E5FF03C0E5FFE80E006E030E016E3B
:10544000BFEC28F09E96C59AC5880050FF0F026EEB
:10545000FF0E0120036E02C000F003C001F00250F5
:10546000031002E09EA6F1D7E4CF03F0E4CF02F0F0
:10547000E4CF01F0E4CF00F01200D9CFE5FFE1CF97
:10548000D9FF00C0E5FF020EDBCF00F00050D8804E
:10549000E866D890006A00360050D880E866D89058
:1054A000006A00360050010BF46E0501A551FE0B99
:1054B000F410A56FE56E800EE56ED7EC2BF0E6528A
:1054C000E652E4CF00F0E4CFD9FF120000C0E5FFC0
:1054D00052EC2FF00401896B806B8983006A89B3D9
:1054E000002A0050010BE844F46E8051FD0BF410CB
:1054F000806FD58ED59CD59AD588D596D594D582F2
:10550000D580F28AF184D08EF28EF28CBA80FF0EB2
:10551000BB68BA84E4CF00F01200D9CFE5FFE1CF39
:10552000D9FF00C0E5FF01C0E5FF020EDBCF00F0B0
:105530000050020DF450016EF3CF00F0000E002673
:10554000050E012200C0E9FF01C0EAFFEECF00F026
:10555000EFCF01F001C0F3FF0050E4CF01F0E4CF42
:1055600000F0E4CFD9FF1200D9CFE5FFE1CFD9FF9A
:1055700000C0E5FF01C0E5FF020EDBCF00F00050E8
:10558000020DF450016EF3CF00F0390E0026040E28
:10559000012200C0E9FF01C0EAFFEECF00F0EFCF2B
:1055A00001F001C0F3FF0050E4CF01F0E4CF00F0C0
:1055B000E4CFD9FF120000C0E5FF01C0E5FF02C043
:1055C000E5FF03C0E5FFE80E006E030E016EBFECC1
:1055D00028F0C5840050FF0F026EFF0E0120036EFD
:1055E00002C000F003C001F00250031002E0C5B495
:1055F000F1D7E4CF03F0E4CF02F0E4CF01F0E4CF41
:1056000000F0120000C0E5FF01C0E5FF02C0E5FFA9
:1056100003C0E5FFE80E006E030E016EBFEC28F03C
:10562000C5800050FF0F026EFF0E0120036E02C006
:1056300000F003C001F00250031002E0C5B0F1D742
:10564000E4CF03F0E4CF02F0E4CF01F0E4CF00F0C8
:105650001200D9CFE5FFE1CFD9FF00C0E5FF01C0BF
:10566000E5FF02C0E5FF020EDBCF00F07EC501F0D2
:105670007FC502F005017E3F01D07F2B0050E56E13
:105680000150E56E74EC2BF0E652E652E4CF02F0E6
:10569000E4CF01F0E4CF00F0E4CFD9FF1200D8CF7F
:1056A000E5FFE0CFE5FFE56EF3CFE5FFF4CFE5FFE3
:1056B000E9CFE5FFEACFE5FFFACFE5FFFBCFE5FF56
:1056C00039EC0DF0E4CFFBFFE4CFFAFFE4CFEAFFC3
:1056D000E4CFE9FFE4CFF4FFE4CFF3FFE450E4CFFD
:1056E000E0FFE4CFD8FF1000D9CFE5FFE1CFD9FF2D
:1056F00000C0E5FF020EDBCF00F0030EDBCFA8FFFA
:1057000000C0A9FFA69EA69CA684F29EF29C550E00
:10571000A76EAA0EA76EA682A6A202D00000FCD792
:10572000A694F28EF28CE4CF00F0E4CFD9FF120001
:10573000E8AE0AD0F3CFEAFFEE50EECFF3FFEECFA4
:10574000F4FFEECFE9FF1200E8BC67EF2FF0E9CFDE
:10575000F6FFF3CFF7FFF86E0900F5500900F5CF1B
:10576000F3FF0900F5CFF4FF0900F5CFE9FF1200C0
:1057700000C0E5FF01C0E5FF0001E4510001E519AB
:1057800002E1E86A0FD0000E0001E525006E016A13
:10579000010E012200C0E9FF01C0EAFFEFCF00F0D7
:1057A000E52B0050E4CF01F0E4CF00F01200D9CF98
:1057B000E5FFE1CFD9FF00C0E5FF020EDBCF00F02F
:1057C000030EDBCFB4F5010EE56E800EE56E050E1F
:1057D000E56EB40EE56E0050E56EA4EC21F0050E0A
:1057E000E126E4CF00F0E4CFD9FF1200D9CFE5FFE6
:1057F000E1CFD9FF00C0E5FF020EDBCF00F0005083
:10580000030BE838E844F46E0501AC519F0BF4102B
:10581000AC6FE56EA30EE56ED7EC2BF0E652E652C8
:10582000E4CF00F0E4CFD9FF1200D9CFE5FFE1CFFC
:10583000D9FF00C0E5FF020EDBCF00F00050030BE4
:10584000E840E840F46E0501AB513F0BF410AB6F3C
:10585000E56EA20EE56ED7EC2BF0E652E652E4CFF1
:1058600000F0E4CFD9FF1200D9CFE5FFE1CFD9FF97
:1058700000C0E5FF020EDBCF00F00050030BE84450
:10588000E844F46E0501A751F30BF410A76FE56E21
:105890008F0EE56ED7EC2BF0E652E652E4CF00F027
:1058A000E4CFD9FF1200F2CFEAFFF29EA69EA69C9B
:1058B000A684E9CFA9FFF3CFAAFFE4CFA8FF10EC9D
:1058C0002FF0F4CFA8FF10EC2FF0F6CFA8FF10ECCC
:1058D0002FF0F7CFA8FF10EC2FF0A694EABEF28EBF
:1058E0001200D9CFE5FFE1CFD9FF00C0E5FF01C02D
:1058F000E5FF020EDBCF00F0016A400E0026050E28
:10590000012200C0E9FF01C0EAFFFF0EEF68E4CF0B
:1059100001F0E4CF00F0E4CFD9FF1200D9CFE5FFCA
:10592000E1CFD9FF00C0E5FF020EDBCF00F0005051
:10593000030BF46E0501AA51FC0BF410AA6FE56E7F
:10594000AA0EE56ED7EC2BF0E652E652E4CF00F05B
:10595000E4CFD9FF1200D9CFE5FFE1CFD9FF00C0D6
:10596000E5FF020EDBCF00F00050030BF46E0501E3
:10597000A751FC0BF410A76FE56E8F0EE56ED7EC08
:105980002BF0E652E652E4CF00F0E4CFD9FF12004C
:10599000F2CFF6FFF29EA69EA69CE9CFA9FFF3CF19
:1059A000AAFFA680A850A94AAA2AA680A8CFF3FFDA
:1059B000A94AAA2AA680A8CFF4FFA94AAA2AA680A3
:1059C000A8CFEAFFF6BEF28E1200E8AE08D0F3CF01
:1059D000EAFFEE50EECFF3FFEECFF4FF1200E8BC8B
:1059E0006FEF2FF0E9CFF6FFF3CFF7FFF86E090066
:1059F000F5500900F5CFF3FF0900F5CFF4FF1200D1
:105A0000F2CFEAFFF29EA69EA69CA684E9CFA9FF4C
:105A1000F3CFAAFFE4CFA8FF10EC2FF0F4CFA8FF3C
:105A200010EC2FF0F6CFA8FF10EC2FF0A694EABEF2
:105A3000F28E1200D9CFE5FFE1CFD9FF00C0E5FF1C
:105A4000020EDBCF00F000C0E8F00050E56E000E63
:105A5000E56A74EC2BF0E652E652E4CF00F0E4CFB6
:105A6000D9FF1200D9CFE5FFE1CFD9FF00C0E5FF94
:105A7000020EDBCF00F0C69E00C0C9FFC6AE02D04A
:105A8000E86803D0BFEC28F0E86AE4CF00F0E4CF88
:105A9000D9FF1200F2CFF6FFF29EA69EA69CE9CF98
:105AA000A9FFF3CFAAFFA680A850A94AAA2AA680D8
:105AB000A8CFF3FFA94AAA2AA680A8CFF4FFF6BE72
:105AC000F28E120000C0E5FF01C0E5FF600E050187
:105AD0009525006E016A000E012200C0E9FF01C099
