:020000040000FA
:10000000CCEF2FF0C69A12006DEF1FF00EEC04F04B
:10001000BEEC1AF0FDD71200A2EF26F0D9CFE5FF13
:10002000E1CFD9FF00C0E5FF01C0E5FF02C0E5FF59
:1000300003C0E5FF04C0E5FF05C0E5FF06C0E5FF1E
:1000400007C0E5FF08C0E5FF09C0E5FF0AC0E5FFFE
:100050000BC0E5FF0CC0E5FF0DC0E5FF0EC0E5FFDE
:100060000FC0E5FF10C0E5FF11C0E5FF12C0E5FFBE
:1000700013C0E5FF14C0E5FF15C0E5FF16C0E5FF9E
:1000800017C0E5FF18C0E5FF19C0E5FF1AC0E5FF7E
:100090001BC0E5FF1CC0E5FF1DC0E5FF1EC0E5FF5E
:1000A000020EDBCF00F0030EDBCF01F0040EDBCF3E
:1000B00002F0050EDBCF03F0060EDBCF04F0070ED7
:1000C000DBCF05F0080EDBCF06F0090EDBCF07F023
:1000D0000A0EDBCF08F0096A0A6A02C00DF00D5063
:1000E000800A0DE102500501796F0150786F0050D0
:1000F000776F050E016E770E006E800E026E03C0E4
:10010000E9FF04C0F3FF055027EC30F00B6E0B50F5
:10011000D8B4C4EF03F00B50250A02E0ABEF03F0B4
:100120000C6A0D6A0E6A0F6A106A0A0E116E126A64
:10013000136A146A200E156E1668176A2B0E186E55
:10014000032A02E3044A052A03C0E9FF04C0F3FFBF
:10015000055027EC30F0196E250A13E11950E56EB1
:100160000250E56E0150E56E0050E56E98EC18F017
:10017000040EE126094A0A2A032A02E3044A052A50
:10018000BED71950300A06E1300E156E032A02E37D
:10019000044A052A03C0E9FF04C0F3FF055027EC19
:1001A00030F02D0A06E1010E146E032A02E3044A20
:1001B000052A03C0E9FF04C0F3FF055027EC30F027
:1001C000200A08E1010E176E200E186E032A02E3C2
:1001D000044A052A03C0E9FF04C0F3FF055027ECD9
:1001E00030F02B0A06E1010E176E032A02E3044ADF
:1001F000052A03C0E9FF04C0F3FF055027EC30F0E7
:10020000196E310E195C2BE33A0E195C28E203C01B
:1002100019F004C01AF005C01BF019C0E9FF1AC09C
:10022000F3FF1B5027EC30F01C6E300E1C5C11E30A
:100230003A0E1C5C0EE213500A0DF3CF1DF01C5059
:100240001D26D00E1D24136E192A02E31A4A1B2AFA
:10025000E4D719C003F01AC004F01BC005F003C0B6
:10026000E9FF04C0F3FF055027EC30F02E0A2DE122
:10027000032A02E3044A052A166A03C019F004C0DF
:100280001AF005C01BF019C0E9FF1AC0F3FF1B509C
:1002900027EC30F01C6E300E1C5C11E33A0E1C5C37
:1002A0000EE216500A0DF3CF1DF01C501D26D00E85
:1002B0001D24166E192A02E31A4A1B2AE4D719C014
:1002C00003F01AC004F01BC005F003C0E9FF04C02E
:1002D000F3FF055027EC30F0196E6C0A07E1010EB0
:1002E0000C6E032A02E3044A052A09D01950680A51
:1002F00006E1010E0E6E032A02E3044A052A03C03A
:10030000E9FF04C0F3FF055027EC30F0750A06E161
:10031000010E106E032A02E3044A052A03C0E9FF16
:1003200004C0F3FF055027EC30F0196E730A05E1A5
:10033000010E0D6E200E156E3FD01950780A03E1A4
:10034000100E116E39D01950580A05E1100E116EB9
:10035000010E126E31D01950630A02E1116A2CD0DD
:1003600019506F0A03E1080E116E26D01950660A63
:1003700003E1010E0F6E20D01950640A1DE01950E0
:10038000690A1AE0105005E0FF0E03260422052238
:1003900013D01950E56E0250E56E0150E56E005025
:1003A000E56E98EC18F0040EE126094A0A2A032AA1
:1003B00002E3044A052AA3D60D5021E00650030F9C
:1003C0000D6E000E0720196E000E08201A6E0DC06B
:1003D00006F019C007F01AC008F0FD0E0D26FF0E3A
:1003E00019221A220DC0E9FF19C0F3FF1A50CBECF5
:1003F0002EF00D6EF3CF19F0F4CF1AF0FDD00F50A0
:100400000DE0000E1A6E080E196E100E0D6E040E21
:100410000626000E072208221668EED016680C5039
:1004200023E00650040F0C6E000E07200F6E000E26
:1004300008201B6E0CC006F00FC007F01BC008F0B0
:10044000FC0E0C26FF0E0F221B220CC0E9FF0FC072
:10045000F3FF1B5040EC2DF00C6EF3CF0FF0F4CFF8
:100460001BF0E9CF1CF067D00E502FE00650020FB2
:100470000E6E000E07201D6E000E08201E6E0EC0B0
:1004800006F01DC007F01EC008F0FE0E0E26FF0E7F
:100490001D221E220EC0E9FF1DC0F3FF1E50A0EC5E
:1004A0002FF00E6E0EC00CF00F6A1B6A1C6A115002
:1004B0000A0A03E11050D8B43ED00C500E6E0EC0A4
:1004C0000CF00F6A1B6A1C6A36D00650020F0E6EC3
:1004D000000E07201D6E000E08201E6E0EC006F0D6
:1004E0001DC007F01EC008F0FE0E0E26FF0E1D22D6
:1004F0001E220EC0E9FF1DC0F3FF1E50A0EC2FF01E
:100500000E6EF3CF1DF00EC00CF01DC00FF0E86AA8
:100510001DBEFF0E1B6E1C6E11500A0A02E1105028
:100520000AE00C500E6E0F501D6E0EC00CF01DC078
:100530000FF01B6A1C6A040E196EF40E0D6E800E0D
:100540001A6E1150D8B440D0105013E01150E56E1F
:10055000040EE56EF40EE56E1C50E56E1B50E56E64
:100560000F50E56E0C50E56E14EC10F0070EE1260E
:1005700012D01150E56E040EE56EF40EE56E1C50BF
:10058000E56E1B50E56E0F50E56E0C50E56E0EECFF
:1005900021F0070EE12617502FE00DC0E9FF19C02A
:1005A000F3FF1A5027EC30F02D0A26E0FF0E0D263F
:1005B00019221A2218C0E5FF0DC0E9FF19C0F3FF88
:1005C0001A50CAEC30F018D00CC0E5FF0DC0E9FF9E
:1005D00019C0F3FF1A50CAEC30F00D50010F0C6E29
:1005E000000E19200E6E000E1A20E56A0CC0E9FFFD
:1005F0000EC0F3FFCAEC30F00DC00CF019C00EF0C5
:100600001AC00FF013C010F0105010E00CC0E9FF3A
:100610000EC0F3FF0F5027EC30F0176E175006E0B6
:100620000C2A02E30E4A0F2A1006EED710C013F070
:1006300014501EE109C00CF00AC00EF010C00FF0FB
:100640000F5010E01550E56E0250E56E0150E56E5A
:100650000050E56E98EC18F0040EE1260C4A0E2AC4
:100660000F06EED70CC009F00EC00AF00FC013F051
:1006700016C00CF00DC00DF019C00EF01AC00FF02E
:1006800009C010F00AC015F00DC0E9FF0EC0F3FF5D
:100690000F5027EC30F0166E1650D8B43ED00CC078
:1006A00016F0176A161E171E1650171005E00CC01C
:1006B00016F00C06165031E00DC0E9FF0EC0F3FF36
:1006C0000F5027EC30F0116E125010E01150E56E13
:1006D00047EC2FF0166EE652165004E0DF0E1114B0
:1006E000166E02D011C016F016C011F01150E56E52
:1006F0000250E56E0150E56E0050E56E98EC18F082
:10070000040EE1260D2A02E30E4A0F2A104A152A8A
:100710001350D8B4B9D71306B7D710C009F015C015
:100720000AF014502BE010C00CF015C00DF013C0EF
:100730000EF00E501FE0200EE56E0250E56E0150E7
:10074000E56E0050E56E98EC18F0040EE1260C4AB8
:100750000D2A0E06EED70B50E56E0250E56E0150E5
:10076000E56E0050E56E98EC18F0040EE126094A9B
:100770000A2A04D00CC009F00DC00AF0032A02E3D3
:10078000044A052A7FEF00F00AC0F3FF0950E4CFC6
:100790001EF0E4CF1DF0E4CF1CF0E4CF1BF0E4CF5B
:1007A0001AF0E4CF19F0E4CF18F0E4CF17F0E4CF5B
:1007B00016F0E4CF15F0E4CF14F0E4CF13F0E4CF5B
:1007C00012F0E4CF11F0E4CF10F0E4CF0FF0E4CF5B
:1007D0000EF0E4CF0DF0E4CF0CF0E4CF0BF0E4CF5B
:1007E0000AF0E4CF09F0E4CF08F0E4CF07F0E4CF5B
:1007F00006F0E4CF05F0E4CF04F0E4CF03F0E4CF5B
:1008000002F0E4CF01F0E4CF00F0E4CFD9FF120012
:100810003C4E4F20464C4F41543E000000C0E5FF87
:1008200001C0E5FF02C0E5FF03C0E5FF05C0E5FF2D
:1008300018EC31F09492939E68EC2BF0F3CF01F01A
:10084000F4CF02F0E9CF03F0880F0401336F130EE9
:100850000120346F000E0220356F000E0320366F2A
:1008600041EC1BF09280800E006E0F0E016E0F0E99
:10087000036E380E002603500122800E026E0F0E0A
:10088000036E800E005E0350015A0F0E056E380E87
:100890000226055003220F0E056E800E025E0550E3
:1008A000035A02C0E9FF03C0EAFFEFCF02F0028063
:1008B00000C0E9FF01C0EAFF02C0EFFFE56A030ED6
:1008C000E56ED9EC1FF0E652E6529282800E006E81
:1008D0000F0E016E0F0E036E380E0026035001221C
:1008E000800E026E0F0E036E800E005E0350015AE2
:1008F0000F0E056E380E0226055003220F0E056EF0
:10090000800E025E0550035A02C0E9FF03C0EAFFF1
:10091000EFCF02F0028200C0E9FF01C0EAFF02C08F
:10092000EFFF010EE56E040EE56ED9EC1FF0E65206
:10093000E6529286800E006E0F0E016E0F0E036E51
:10094000380E002603500122800E026E0F0E036E39
:10095000800E005E0350015A0F0E056E380E0226FF
:10096000055003220F0E056E800E025E0550035ADD
:1009700002C0E9FF03C0EAFFEFCF02F0028600C029
:10098000E9FF01C0EAFF02C0EFFF030EE56E050EAE
:10099000E56ED9EC1FF0E652E6529484820E006EAA
:1009A0000F0E016E0F0E036E380E0026035001224B
:1009B0000F0E036E800E005E0350015A820E026E0F
:1009C0000F0E036E0F0E056E380E02260550032221
:1009D0000F0E056E800E025E0550035A02C0E9FF3D
:1009E00003C0EAFFEFCF02F0028400C0E9FF01C0BC
:1009F000EAFF02C0EFFF0E0EE56E060EE56ED9ECC3
:100A00001FF0E652E652928A800E006E0F0E016EC3
:100A10000F0E036E380E002603500122800E026E68
:100A20000F0E036E800E005E0350015A0F0E056E0E
:100A3000380E0226055003220F0E056E800E025E50
:100A40000550035A02C0E9FF03C0EAFFEFCF02F0EE
:100A5000028A00C0E9FF01C0EAFF02C0EFFF040EF6
:100A6000E56E000EE56AD9EC1FF0E652E65292847C
:100A7000800E006E0F0E016E0F0E036E380E0026F4
:100A800003500122800E026E0F0E036E800E005E78
:100A90000350015A0F0E056E380E02260550032230
:100AA0000F0E056E800E025E0550035A02C0E9FF6C
:100AB00003C0EAFFEFCF02F0028400C0E9FF01C0EB
:100AC000EAFF02C0EFFF020EE56E010EE56ED9EC03
:100AD0001FF0E652E6529284800E006E0F0E016EF9
:100AE0000F0E036E380E002603500122800E026E98
:100AF0000F0E036E800E005E0350015A0F0E056E3E
:100B0000380E0226055003220F0E056E800E025E7F
:100B10000550035A02C0E9FF03C0EAFFEFCF02F01D
:100B2000028400C0E9FF01C0EAFF02C0EFFF020E2D
:100B3000E56EE56ED9EC1FF0E652E652929C898C88
:100B4000D4EC25F0F19E938C810E006E0F0E016E99
:100B50000F0E036E380E0026035001220F0E036E97
:100B6000800E005E0350015A810E026E0F0E036E5E
:100B70000F0E056E380E0226055003220F0E056E6D
:100B8000800E025E0550035A02C0E9FF03C0EAFF6F
:100B9000EFCF02F0029C00C0E9FF01C0EAFF02C0F3
:100BA000EFFF060EE56E800EE56E0F0EE56E810E10
:100BB000E56E000EE56A1BEC26F0050EE12693803B
:100BC000810E006E0F0E016E0F0E036E380E0026A2
:100BD000035001220F0E036E800E005E0350015A77
:100BE000810E026E0F0E036E0F0E056E380E02267A
:100BF000055003220F0E056E800E025E0550035A4B
:100C000002C0E9FF03C0EAFFEFCF02F0029000C08C
:100C1000E9FF01C0EAFF02C0EFFFE56A800EE56E62
:100C20000F0EE56E810EE56E010EE56E1BEC26F0F3
:100C3000050EE1269382810E006E0F0E016E0F0EDF
:100C4000036E380E0026035001220F0E036E800E35
:100C5000005E0350015A810E026E0F0E036E0F0EDE
:100C6000056E380E0226055003220F0E056E800E0B
:100C7000025E0550035A02C0E9FF03C0EAFFEFCF4E
:100C800002F0029200C0E9FF01C0EAFF02C0EFFFDC
:100C9000010EE56E800EE56E0F0EE56E810EE56EBF
:100CA000020EE56E1BEC26F0050EE1269384810E04
:100CB000006E0F0E016E0F0E036E380E00260350ED
:100CC00001220F0E036E800E005E0350015A810E4A
:100CD000026E0F0E036E0F0E056E380E02260550C3
:100CE00003220F0E056E800E025E0550035A02C0ED
:100CF000E9FF03C0EAFFEFCF02F0029400C0E9FF72
:100D000001C0EAFF02C0EFFF020EE56E800EE56E45
:100D10000F0EE56E810EE56E030EE56E1BEC26F000
:100D2000050EE1269386810E006E0F0E016E0F0EEA
:100D3000036E380E0026035001220F0E036E800E44
:100D4000005E0350015A810E026E0F0E036E0F0EED
:100D5000056E380E0226055003220F0E056E800E1A
:100D6000025E0550035A02C0E9FF03C0EAFFEFCF5D
:100D700002F0029600C0E9FF01C0EAFF02C0EFFFE7
:100D8000030EE56E800EE56E0F0EE56E810EE56ECC
:100D9000040EE56E1BEC26F0050EE126270EE56E2F
:100DA000E56A080EE56ECDEC15F0030EE126010EA6
:100DB000E56E800EE56E040EE56E810EE56E25ECA7
:100DC0001EF0040EE12612EC2BF0E4CF05F0E4CF88
:100DD00003F0E4CF02F0E4CF01F0E4CF00F0120022
:100DE00000C0E5FF01C0E5FF02C0E5FF03C0E5FF6D
:100DF00004C0E5FF05C0E5FF06C0E5FF07C0E5FF4D
:100E000008C0E5FFC2A204D00401475139EF09F040
:100E100004014851D8B436D104014751020DF450B1
:100E2000016EF3CF00F0E00E0026000E012200C09C
:100E3000E9FF01C0EAFFEECF00F0EFCF01F0230E93
:100E40004725026E036A040E032202C0E9FF03C0B5
:100E5000EAFFEFCF02F00250FF0A01E16DD009C0B6
:100E6000E5FFF2CF09F0F29E02380F0B046E920EEE
:100E70000424056E066A0F0E0622076A920E0426E7
:100E80000F0E072204C0E9FF07C0EAFFEFCF04F00E
:100E90000250076E070E0716010E086E07500DE090
:100EA00006E6E86CD8900836010FFDE306D0D8902E
:100EB00008BED8800832010FFBE3081C076E0450FF
:100EC000071605C0E9FF06C0EAFF07C0EFFF0238BA
:100ED0000F0B046E890E0424056E066A0F0E06229F
:100EE000076A890E04260F0E072204C0E9FF07C017
:100EF000EAFFEFCF04F0070E0216010E076E025054
:100F00000DE006E6E86CD8900736010FFDE306D049
:100F1000D89007BED8800732010FFBE3071C026E92
:100F20000450021605C0E9FF06C0EAFF02C0EFFF49
:100F300009BEF28EE4CF09F004014751020DF450CE
:100F4000036EF3CF02F0E00E0226000E03220134FE
:100F50000130056E0030046E05340532043205346C
:100F6000053204320450005C046E05500158056ED1
:100F7000C3CF00F0016A0050042601500522C4CFFF
:100F800000F0016A0050076E066A065004260750FA
:100F9000052202C0E9FF03C0EAFF04C0EEFF05C05E
:100FA000EFFF04014351010A01E06AD004014751F7
:100FB000020DF450016EF3CF00F0E00E0024026E3B
:100FC000000E0120036E02C0E9FF03C0EAFFEECF6E
:100FD00002F0EFCF03F0B30E0026040E012200C092
:100FE000E9FF01C0EAFFEECF04F0EFCF05F09C0E61
:100FF0000426D8A005060350800FF36E0550800F1D
:10100000F35C02E10450025C0EE20250640F046ED5
:10101000000E0320056E00C0E9FF01C0EAFF04C016
:10102000EEFF05C0EFFF04014751020DF450016EC1
:10103000F3CF00F0D30E0026040E012200C0E9FF1A
:1010400001C0EAFFEECF04F0EFCF05F0640E0426F6
:10105000D8B0052A0550800FF36E0350800FF35C63
:1010600002E10250045C0CE29C0E0226D8A00306AA
:1010700000C0E9FF01C0EAFF02C0EEFF03C0EFFFBE
:101080000401486B0401472B100E475DD8B0476B35
:101090004739E8441F0B006E016A820E0026050ED8
:1010A000012200C0E9FF01C0EAFFEFCF00F047C412
:1010B00001F0070E0116010E026E000E036E0150C4
:1010C00006E0E86CD89002360336010FFCE3046AB0
:1010D000005002160450031602500310D880E86630
:1010E000D890026A02360250D8A4C1D0230E04015F
:1010F0004725006E016A0F0E012200C0E9FF01C002
:10110000EAFFEFCF00F00044E844FC0B016E012839
:10111000C26E4751E56EAEEC19F0E652230E47253C
:10112000006E016A040E012200C0E9FF01C0EAFF5F
:10113000EFCF00F00050FF0A01E195D009C0E5FFB4
:10114000F2CF09F0F29E00380F0B026E920E0224CD
:10115000036E046A0F0E0422056A920E02260F0E19
:10116000052202C0E9FF05C0EAFFEFCF02F0005000
:10117000056E070E0516010E066E05500DE006E61B
:10118000E86CD8900636010FFDE306D0D89006BE75
:10119000D8800632010FFBE30250061203C0E9FFBC
:1011A00004C0EAFF06C0EFFF09BEF28EE4CF09F0EB
:1011B000380E016E0F0E026E00380F0B036E046ABC
:1011C0000350012604500222380E056E0F0E066EE3
:1011D000055003260650042203C0E9FF04C0EAFFBD
:1011E000EFCF03F0070E0016010E046E00500DE065
:1011F00006E6E86CD8900436010FFDE306D0D890DF
:1012000004BED8800432010FFBE30350041201C076
:10121000E9FF02C0EAFF04C0EFFF0F0145830000B1
:10122000000045930F01449309C0E5FFF2CF09F098
:10123000F29E448100000000000000000000000059
:10124000000000000000000000000000000000009E
:10125000000000000000000000000000449109BEF2
:10126000F28EE4CF09F0C282010E0401486F04013E
:101270004751E4CF08F0E4CF07F0E4CF06F0E4CF25
:1012800005F0E4CF04F0E4CF03F0E4CF02F0E4CFC4
:1012900001F0E4CF00F0120000C0E5FF01C0E5FF5F
:1012A00002C0E5FF03C0E5FF04C0E5FF05C0E5FFA0
:1012B00006C0E5FF07C0E5FF08C0E5FF09C0E5FF80
:1012C0000AC0E5FF0BC0E5FF0CC0E5FF006A016A3C
:1012D000026A040E025CD8B0EBD1100E015CD8B0EB
:1012E000E7D1012A0401492B100E495DD8B0496BA2
:1012F0004939E8441F0B036E046A820E0326050E6B
:10130000042203C0E9FF04C0EAFFEFCF03F049C4A1
:1013100004F0070E0416010E056E000E066E045052
:1013200006E0E86CD89005360636010FFCE3076A44
:10133000035005160750061605500610D880E866BB
:10134000D890056A05360550D8A4C3D70401495181
:10135000020DF450046EF3CF03F0E00E0324056E8B
:10136000000E0420066E05C0E9FF06C0EAFFEECFBE
:1013700005F0EFCF06F046C407F007A09DD0B30EEE
:101380000324076E040E0420086E07C0E9FF08C09E
:10139000EAFFEECF07F0EFCF08F00650800FF36EB4
:1013A0000850800FF35C02E10750055C03E2056A18
:1013B000066A60D0D30E0326040E042203C0E9FFA0
:1013C00004C0EAFFEECF03F0EFCF04F00450800F2B
:1013D000F36E0650800FF35C02E10550035C04E2FB
:1013E00005683F0E066E46D00750055C096E085032
:1013F00006580A6EE86A0ABEFF0E0B6EE56E0B50C9
:10140000E56E0A50E56E0950E56EE56AE56A400E44
:10141000E56E000EE56A0AEC0FF0096EF3CF0AF0F4
:10142000F4CF0BF0E9CF0CF0080EE1260750035C77
:10143000076E08500458086EE86A08BEFF0E036E77
:10144000E56E0350E56E0850E56E0750E56E0C50F2
:10145000E56E0B50E56E0A50E56E0950E56EEEEC58
:1014600016F0036EF3CF04F0080EE1260350056E6C
:101470000450066E04014551800FF36E0650800F34
:10148000F35C02E10550445D03E3056A066A14D08B
:1014900004014451FF08036E3F0E4555046E06508B
:1014A000800FF36E0450800FF35C02E10350055C83
:1014B00003E305683F0E066E04014951020DF45026
:1014C000046EF3CF03F0930E0326040E042203C030
:1014D000E9FF04C0EAFFEECF03F0EFCF04F00350C2
:1014E000055C036E04500658046ED88004AED89094
:1014F00004E3041E036CD8B4042A022A04014551F3
:10150000800FF36E0450800FF35C02E10350445DE2
:10151000D8B0DFD604014951020DF450046EF3CF68
:1015200003F0930E0326040E042203C0E9FF04C057
:10153000EAFF05C0EEFF06C0EFFF46C403F003A4B8
:1015400059D04951020DF450046EF3CF03F0000E50
:101550000324076E050E0420086E07C0E9FF08C0CB
:10156000EAFFEECF09F0EFCF0AF009500A10D8B425
:1015700041D05A0E0326040E042203C0E9FF04C022
:10158000EAFFEECF03F0EFCF04F00350055C036EEB
:1015900004500658046E03101CE00450800F800FA6
:1015A00002E1010E035C0B6A0B360A50800F800FBC
:1015B00002E1010E095C096A09360B50091809E1BC
:1015C00007C0E9FF08C0EAFF03C0EEFF04C0EFFF59
:1015D00080D604014951020DF450046EF3CF03F09C
:1015E000000E0326050E042203C0E9FF04C0EAFF33
:1015F000EE6AEF6A46C403F003A246D000500EE143
:1016000000C003F0002A046A4A0E0326040E0422D6
:1016100003C0E9FF04C0EAFF420EEF6E00C003F012
:101620000028046E076A4A0E0326040E07220401EE
:101630004951086E640E082603C0E9FF07C0EAFF9F
:1016400008C0EFFF04C003F0042A076A4A0E03260D
:10165000040E07220650086E03C0E9FF07C0EAFF28
:1016600008C0EFFF04C003F00428006E046A4A0EAD
:101670000326040E04220550076E03C0E9FF04C0D0
:10168000EAFF07C0EFFF25D649C403F00650E56E18
:101690000550E56EE56A0350E56E000EE56E370E07
:1016A000E56E7C0EE56EE3EC26F0070EE12611D622
:1016B00002C001F000501EE046C402F002A21AD09F
:1016C00000C002F0002A036A4A0E0226040E03221A
:1016D00002C0E9FF03C0EAFF0A0EEF6E0050E56E9C
:1016E000800EE56E040EE56E4A0EE56EC4EC1BF04E
:1016F000040EE1260150E4CF0CF0E4CF0BF0E4CF70
:101700000AF0E4CF09F0E4CF08F0E4CF07F0E4CF2B
:1017100006F0E4CF05F0E4CF04F0E4CF03F0E4CF2B
:1017200002F0E4CF01F0E4CF00F01200800EE56E8D
:10173000040EE56ED30EE56EBFEC23F0030EE1263A
:10174000800EE56E040EE56EB30EE56EBFEC23F081
:10175000030EE126800EE56E040EE56ED50EE56EF5
:10176000BFEC23F0030EE126800EE56E040EE56E5D
:10177000B50EE56EBFEC23F0030EE126800EE56E9C
:10178000040EE56ED70EE56EBFEC23F0030EE126E6
:10179000800EE56E040EE56EB70EE56EBFEC23F02D
:1017A000030EE126800EE56E040EE56ED90EE56EA1
:1017B000BFEC23F0030EE126800EE56E040EE56E0D
:1017C000B90EE56EBFEC23F0030EE126800EE56E48
:1017D000040EE56EDB0EE56EBFEC23F0030EE12692
:1017E000800EE56E040EE56EBB0EE56EBFEC23F0D9
:1017F000030EE126800EE56E040EE56EDD0EE56E4D
:10180000BFEC23F0030EE126800EE56E040EE56EBC
:10181000BD0EE56EBFEC23F0030EE126800EE56EF3
:10182000040EE56EDF0EE56EBFEC23F0030EE1263D
:10183000800EE56E040EE56EBF0EE56EBFEC23F084
:10184000030EE126800EE56E040EE56EE10EE56EF8
:10185000BFEC23F0030EE126800EE56E040EE56E6C
:10186000C10EE56EBFEC23F0030EE126800EE56E9F
:10187000040EE56EE30EE56EBFEC23F0030EE126E9
:10188000800EE56E040EE56EC30EE56EBFEC23F030
:10189000030EE126800EE56E040EE56EE50EE56EA4
:1018A000BFEC23F0030EE126800EE56E040EE56E1C
:1018B000C50EE56EBFEC23F0030EE126800EE56E4B
:1018C000040EE56EE70EE56EBFEC23F0030EE12695
:1018D000800EE56E040EE56EC70EE56EBFEC23F0DC
:1018E000030EE126800EE56E040EE56EE90EE56E50
:1018F000BFEC23F0030EE126800EE56E040EE56ECC
:10190000C90EE56EBFEC23F0030EE126800EE56EF6
:10191000040EE56EEB0EE56EBFEC23F0030EE12640
:10192000800EE56E040EE56ECB0EE56EBFEC23F087
:10193000030EE126800EE56E040EE56EED0EE56EFB
:10194000BFEC23F0030EE126800EE56E040EE56E7B
:10195000CD0EE56EBFEC23F0030EE126800EE56EA2
:10196000040EE56EEF0EE56EBFEC23F0030EE126EC
:10197000800EE56E040EE56ECF0EE56EBFEC23F033
:10198000030EE126800EE56E040EE56EF10EE56EA7
:10199000BFEC23F0030EE126800EE56E040EE56E2B
:1019A000D10EE56EBFEC23F0030EE126120000C05D
:1019B000E5FF01C0E5FF02C0E5FF03C0E5FF04014C
:1019C0004051D8B40CD19DA81DD09EA81BD00501B4
:1019D00099510501971905E175EC30F00501976BF8
:1019E000FED0000E05019925006E016A040E012249
:1019F00000C0E9FF01C0EAFFEFCF93F5992B93C533
:101A0000ADFFEDD09DAAEBD09EAAE9D0ABA205D048
:101A10000501988175EC30F0E2D0ABA405D005014A
:101A2000988375EC30F0DBD0ABA048D0AECF93F507
:101A300041C400F0016A008E93C502F0036A0250AF
:101A4000001803E10350011801E004D00501988952
:101A5000AB96C5D00501935104E09351040141199F
:101A600029E105019899AB960501935103E0050121
:101A7000989702D00501988793C59CF595C59DF56B
:101A800005019551006E000405019E6F600E050171
:101A90009D25006E016A000E012200C0E9FF01C011
:101AA000EAFF93C5EFFF9D2B9D51800A02E10501DE
:101AB0009D6B95D005019899AB8691D0AECF93F5EB
:101AC000050198A921D041C400F0016A008E93C598
:101AD00002F0036A0250001803E10350011801E00C
:101AE00011D09D9AAB9894900501975104E1AD6A8D
:101AF00075EC30F007D000C4ADFF010E0501996F01
:101B00009D886DD0AB866BD00501935105019C2754
:101B100005019D5105019E191BE105019C510CE138
:101B20009DC595F5050198B712D09D9AAB989490F4
:101B3000AD6A75EC30F00BD00501988598B707D0E9
:101B40009D9AAB989490010EAD6E75EC30F047D035
:101B500005019D510501961908E105019651050100
:101B6000951903E075EC30F03AD095C500F0016AA4
:101B7000004A012AE56A800EE56E0150E56E0050CC
:101B8000E56E93EC1EF0006E040EE1260050050198
:101B9000946F05019D190FE193C500F01F0E00140D
:101BA00005019E6F006E020E00249E6F0501955187
:101BB00005019E279E9F9DC500F005019D2B016A92
:101BC000600E0026000E012200C0E9FF01C0EAFFFE
:101BD00093C5EFFF9D51800A02E105019D6BE4CFA3
:101BE00003F0E4CF02F0E4CF01F0E4CF00F0120004
:101BF00000C0E5FF01C0E5FF02C0E5FF03C0E5FF4F
:101C000004C0E5FF05C0E5FF06C0E5FF07C0E5FF2E
:101C100008C0E5FF09C0E5FF006A016A040E015C27
:101C2000D8B0E2D0400E04015725026E036A050EBB
:101C3000032202C0E9FF03C0EAFFEFCF02F0025027
:101C4000FF0A01E1CAD004015739E8441F0B026EB4
:101C5000860E0224036E046A050E042203C0E9FF07
:101C600004C0EAFFEFCF03F057C404F0070E0416D8
:101C7000010E056E000E066E045006E0E86CD8906A
:101C800005360636010FFCE3076A035005160750B8
:101C9000061605500610D880E866D890056A053605
:101CA0000550D880E866D890056A05360550036E61
:101CB000046A840E0226050E042202C0E9FF04C055
:101CC000EAFFEFCF05F057C406F0070E0616010E27
:101CD000076E000E086E065006E0E86CD8900736D6
:101CE0000836010FFCE305C006F0096A0650071626
:101CF0000950081607500810D880E866D890076A7F
:101D000007360750D880E866D890076A0736035030
:101D1000071801E162D003501FE004015751066E1D
:101D2000070E0616010E076E06500DE006E6E86C7B
:101D3000D8900736010FFDE306D0D89007BED880B3
:101D40000732010FFBE30550071202C0E9FF04C090
:101D5000EAFF07C0EFFF26D002C0E9FF04C0EAFF98
:101D6000EFCF05F004015751066E070E0616010E5F
:101D7000076E06500DE006E6E86CD8900736010FB6
:101D8000FDE306D0D89007BED8800732010FFBE3F1
:101D9000071C066E0550061602C0E9FF04C0EAFFE4
:101DA00006C0EFFF035003E1036A032A01D0036A70
:101DB00057C404F0E56A0350E56EE56A0450E56E29
:101DC000000EE56E4C0EE56E2A0EE56EE3EC26F095
:101DD000070EE126012A01C000F00401572B100E66
:101DE000575DD8A01BD7576B0050E4CF09F0E4CF64
:101DF00008F0E4CF07F0E4CF06F0E4CF05F0E4CF3D
:101E000004F0E4CF03F0E4CF02F0E4CF01F0E4CF3C
:101E100000F01200D9CFE5FFE1CFD9FF00C0E5FF08
:101E200001C0E5FF02C0E5FF03C0E5FF04C0E5FF18
:101E300005C0E5FF06C0E5FF07C0E5FF020EDBCFEA
:101E400000F0030EDBCF01F0040EDBCF02F0050E35
:101E5000DBCF03F0060EDBCF04F0070EDBCF05F07F
:101E6000080EDBCF06F0090EDBCF07F000500401AF
:101E70008A6F01508B6F02508C6F03508D6F04502E
:101E800004018E6F05508F6F0650906F0750916F51
:101E900004018A5104019003F4CF01F0F3CF00F064
:101EA00000500501676F0150686F04018A510401F9
:101EB0008E03F4CF01F0F3CF00F000500501656F01
:101EC0000150666F04018D5104018E03F3CF00F0C1
:101ED0000501685100260050686F04018C5104010F
:101EE0008F03F3CF01F00150002600500501686F09
:101EF00004018C5104018E03F4CF01F0F3CF00F004
:101F0000050167510026685101220050676F01509A
:101F1000686F04018B5104018F03F4CF03F0F3CFFA
:101F200002F0025000260350012200500501676FA5
:101F30000150686F04018B5104019003F3CF00F04E
:101F4000005005016C6F04018B5104018E03F4CF26
:101F500001F0F3CF00F0005005016A6F01506B6F84
:101F600004018A5104019103F3CF00F000500501F0
:101F7000706F04018A5104018F03F4CF01F0F3CF95
:101F800000F0005005016E6F01506F6F0501696B25
:101F900005016D6B0501695105016525006E05019F
:101FA0006A5105016621016E05016B51050167212A
:101FB000026E05016C5105016821036E0050656FCA
:101FC0000150666F0250676F0350686F05016D51D5
:101FD00005016525006E05016E5105016621016E42
:101FE00005016F5105016721026E05017051050160
:101FF0006821036E03C0E9FF02C0F4FF01C0F3FFD4
:102000000050E4CF07F0E4CF06F0E4CF05F0E4CFD2
:1020100004F0E4CF03F0E4CF02F0E4CF01F0E4CF2A
:1020200000F0E4CFD9FF1200D9CFE5FFE1CFD9FF0F
:1020300000C0E5FF01C0E5FF02C0E5FF03C0E5FF0A
:1020400004C0E5FF05C0E5FF06C0E5FF07C0E5FFEA
:1020500008C0E5FF09C0E5FF0AC0E5FF0BC0E5FFCA
:102060000CC0E5FF0DC0E5FF0EC0E5FF0FC0E5FFAA
:10207000020EDBCF00F0030EDBCF01F0040EDBCF4E
:1020800002F0050EDBCF03F0060EDBCF04F0070EE7
:10209000DBCF05F0080EDBCF06F0200E076E086AD6
:1020A00006C009F00A6A0B6A0C6AE56AE56AE56A25
:1020B0000950E56E0350E56E0250E56E0150E56E85
:1020C0000050E56E05EC14F00D6E080EE126300EA2
:1020D0000D263A0E0D5C05E30D500E6E270E0E24F4
:1020E0000D6EFF0E07260822200E07240E6E050E29
:1020F00008200F6E0EC0E9FF0FC0EAFF0DC0EFFF12
:102100000C50E56E0B50E56E0A50E56E0950E56E19
:102110000350E56E0250E56E0150E56E0050E56E2D
:10212000EEEC16F0006EF3CF01F0F4CF02F0E9CF41
:1021300003F0080EE1260050011002100310D8A48D
:10214000AFD707C000F008C001F004C002F005C01E
:1021500003F000C004F001C005F0004A012A200E7F
:102160000426050E052204C0E9FF05C0EAFFEFCFF3
:1021700004F002C0E9FF03C0EAFF04C0EFFF024A17
:10218000032A000E015C02E1200E005CE2E302C0C3
:10219000E9FF03C0EAFF000EEF6AE4CF0FF0E4CFDF
:1021A0000EF0E4CF0DF0E4CF0CF0E4CF0BF0E4CF71
:1021B0000AF0E4CF09F0E4CF08F0E4CF07F0E4CF71
:1021C00006F0E4CF05F0E4CF04F0E4CF03F0E4CF71
:1021D00002F0E4CF01F0E4CF00F0E4CFD9FF120029
:1021E000D9CFE5FFE1CFD9FF00C0E5FF01C0E5FF92
:1021F00002C0E5FF03C0E5FF04C0E5FF05C0E5FF41
:1022000006C0E5FF020EDBCF00F0030EDBCF01F0CE
:10221000040EDBCF02F000C0E9FF01C0F3FF025063
:1022200027EC30F0036EE56AE56EADEC29F0E6527E
:10223000E652300EE56E7FEC2DF0E6521DEC31F0EB
:10224000010EE56E0350E56EADEC29F0E652E65264
:10225000AEEC2CF0036E03A28AD01FEC2DF0AEEC96
:102260002CF01FEC2DF00050010F036E000E01202A
:10227000046E000E0220056EAEEC2CF0066E06C059
:10228000E5FF03C0E9FF04C0F3FF0550CAEC30F0DE
:102290001FEC2DF00050020F036E000E0120046EA3
:1022A000000E0220056EAEEC2CF0066E06C0E5FFB7
:1022B00003C0E9FF04C0F3FF0550CAEC30F01FEC87
:1022C0002DF00050030F036E000E0120046E000E6F
:1022D0000220056EAEEC2CF0066E06C0E5FF03C0D2
:1022E000E9FF04C0F3FF0550CAEC30F01FEC2DF0FD
:1022F0000050040F036E000E0120046E000E022039
:10230000056EAEEC2CF0066E06C0E5FF03C0E9FFDB
:1023100004C0F3FF0550CAEC30F01FEC2DF0005064
:10232000050F036E000E0120046E000E0220056EE4
:10233000AEEC2CF0066E06C0E5FF03C0E9FF04C05A
:10234000F3FF0550CAEC30F01FEC2DF0060E00260E
:10235000000E01220222AEEC2CF0036E03C0E5FF5A
:1023600000C0E9FF01C0F3FF0250CAEC30F01DECE1
:1023700031F0E4CF06F0E4CF05F0E4CF04F0E4CF91
:1023800003F0E4CF02F0E4CF01F0E4CF00F0E4CFBB
:10239000D9FF120000C0E5FF01C0E5FF02C0E5FF64
:1023A00003C0E5FF04C0E5FF05C0E5FF06C0E5FF8B
:1023B00007C0E5FF08C0E5FF006A016A026A036A18
:1023C000046A48EC30F0056E055002E1E86AA7D0D7
:1023D000AE0EE56EBCEC2BF0E652E56E800EE56EBF
:1023E000020EE56E000EE56EFC0EE56EABEC20F025
:1023F000050EE12600C205F0066A01C207F0086A70
:102400000750055E0850065AD88006AED89007E3FC
:10241000061C086E051C076E074A082A04D005C072
:1024200007F006C008F00850800F800F02E10E0E82
:10243000075C04E305C000F006C001F002C205F02D
:10244000066A03C207F0086A0750055E0850065A7C
:10245000D88006AED89007E3061C086E051C076EF0
:10246000074A082A04D005C007F006C008F0085043
:10247000800F800F02E10E0E075C04E305C002F03E
:1024800006C003F0005001101CE0D88001AED890C7
:1024900009E30501B05103E0010E046E12D00501FD
:1024A000AF2B0FD00150800F800F02E1010E005CB6
:1024B00008E30501AF5103E0020E046E02D00501EE
:1024C000B02B025003101CE0D88003AED89009E373
:1024D0000501B25103E0030E046E12D00501B12BC9
:1024E0000FD00350800F800F02E1010E025C08E361
:1024F0000501B15103E0040E046E02D00501B22BB8
:102500000050011003E102500310D8A402EC29F09E
:10251000045004E0BFEC30F0045001D0E86AE4CF8E
:1025200008F0E4CF07F0E4CF06F0E4CF05F0E4CF05
:1025300004F0E4CF03F0E4CF02F0E4CF01F0E4CF05
:1025400000F0120000C0E5FF01C0E5FF02C0E5FF9A
:1025500003C0E5FF04C0E5FF05C0E5FF006A400ECB
:102560000024016E026A050E022201C0E9FF02C0CA
:10257000EAFFEFCF01F00150FF0A01E185D00138F9
:102580000F0B026E036A800E02260F0E032202C09A
:10259000E9FF03C0EAFFEFCF02F0070E0116010EBC
:1025A000036E000E046E015006E0E86CD89003360E
:1025B0000436010FFCE3056A0250031605500416A9
:1025C00003500410D880E866D890036A033603509D
:1025D0002DE10038E8441F0B016E026A860E0126C9
:1025E000050E022201C0E9FF02C0EAFFEFCF03F0AF
:1025F0000050046E070E0416010E056E04500DE027
:1026000006E6E86CD8900536010FFDE306D0D890B9
:1026100005BED8800532010FFBE30350051201C04F
:10262000E9FF02C0EAFF05C0EFFF2ED00038E84402
:102630001F0B016E026A860E0126050E022201C0E2
:10264000E9FF02C0EAFFEFCF03F00050046E070E6F
:102650000416010E056E04500DE006E6E86CD890F5
:102660000536010FFDE306D0D89005BED8800532AF
:10267000010FFBE3051C046E0350041601C0E9FFC3
:1026800002C0EAFF04C0EFFF002A100E005CD8A0D1
:1026900066D7E4CF05F0E4CF04F0E4CF03F0E4CF55
:1026A00002F0E4CF01F0E4CF00F01200D9CFE5FF53
:1026B000E1CFD9FF00C0E5FF01C0E5FF02C0E5FFA3
:1026C00003C0E5FF04C0E5FF05C0E5FF06C0E5FF68
:1026D00007C0E5FF08C0E5FF09C0E5FF0AC0E5FF48
:1026E0000BC0E5FF0CC0E5FF0DC0E5FF020EDBCF20
:1026F00000F0030EDBCF01F0040EDBCF02F0050E7D
:10270000DBCF03F0060EDBCF04F0070EDBCF05F0C6
:10271000080EDBCF06F0090EDBCF07F00A0EDBCF89
:1027200008F00B0EDBCF09F00C0EDBCF0AF00D0E1C
:10273000DBCF0BF0940EE56EF6EC24F00C6EF3CFCD
:102740000DF0E6520CC0E5FF0DC0F4FF09C0E9FF33
:102750000AC0F3FF0B5091EC30F0960EE56EF6ECEC
:1027600024F0096EF3CF0AF0E65209C0E5FF0AC073
:10277000F4FF00C0E9FF01C0F3FF025091EC30F01C
:10278000980EE56EF6EC24F0006EF3CF01F0E65201
:1027900000C0E5FF01C0F4FF03C0E9FF04C0F3FF80
:1027A000055091EC30F09A0EE56EF6EC24F0006ED8
:1027B000F3CF01F0E65200C0E5FF01C0F4FF06C010
:1027C000E9FF07C0F3FF085091EC30F0E4CF0DF0C3
:1027D000E4CF0CF0E4CF0BF0E4CF0AF0E4CF09F043
:1027E000E4CF08F0E4CF07F0E4CF06F0E4CF05F043
:1027F000E4CF04F0E4CF03F0E4CF02F0E4CF01F043
:10280000E4CF00F0E4CFD9FF1200D9CFE5FFE1CF4C
:10281000D9FF00C0E5FF01C0E5FF02C0E5FF03C02E
:10282000E5FF04C0E5FF05C0E5FF06C0E5FF07C002
:10283000E5FF08C0E5FF09C0E5FF0AC0E5FF020E9D
:10284000DBCF00F0030EDBCF01F0040EDBCF02F094
:10285000050EDBCF03F0060EDBCF04F0070EDBCF57
:1028600005F0080EDBCF06F0090EDBCF07F0086A93
:10287000045005100610071005E1E968F468F368D4
:10288000E86847D0096A0750800BE8440A6E0A508E
:102890001BE1045004260536063607360750035C54
:1028A00008E10650025C05E10550015C02E10450BC
:1028B000005C06E2D890073206320532043204D0BA
:1028C000092A09C008F0DFD70750035C08E1065069
:1028D000025C05E10550015C02E10450005C08E384
:1028E0000450005E0550015A0650025A0750035A20
:1028F000D890073206320532043208C009F00806C3
:102900000950E2E103C0E9FF02C0F4FF01C0F3FF98
:102910000050E4CF0AF0E4CF09F0E4CF08F0E4CFB0
:1029200007F0E4CF06F0E4CF05F0E4CF04F0E4CF05
:1029300003F0E4CF02F0E4CF01F0E4CF00F0E4CF05
:10294000D9FF1200D9CFE5FFE1CFD9FF00C0E5FFE5
:1029500001C0E5FF02C0E5FF03C0E5FF04C0E5FFDD
:10296000020EDBCF00F0030EDBCF01F0040EDBCF55
:1029700002F0050EDBCF03F0420E05015C6F035041
:102980005D6F0050010F036E000E0120046E000EFB
:10299000022003C0E9FF04C0F3FF27EC30F005017B
:1029A0005E6F0050020F036E000E0120046E000ED9
:1029B000022003C0E9FF04C0F3FF27EC30F005015B
:1029C0005F6F0050030F036E000E0120046E000EB7
:1029D000022003C0E9FF04C0F3FF27EC30F005013B
:1029E000606F0050040F036E000E0120046E000E95
:1029F000022003C0E9FF04C0F3FF27EC30F005011B
:102A0000616F0050050F036E000E0120046E000E72
:102A1000022003C0E9FF04C0F3FF27EC30F00501FA
:102A2000626F060E0026000E0122022200C0E9FF9E
:102A300001C0F3FF025027EC30F00501636F0A0E6E
:102A4000646F090EE56E800EE56E050EE56E5C0E98
:102A5000E56EC4EC1BF0040EE126E4CF04F0E4CFF5
:102A600003F0E4CF02F0E4CF01F0E4CF00F0E4CFD4
:102A7000D9FF1200D9CFE5FFE1CFD9FF00C0E5FFB4
:102A800001C0E5FF02C0E5FF03C0E5FF04C0E5FFAC
:102A900005C0E5FF06C0E5FF07C0E5FF08C0E5FF8C
:102AA00009C0E5FF0AC0E5FF020EDBCF00F0030E10
:102AB000DBCF01F0040EDBCF02F0050EDBCF03F01D
:102AC000060EDBCF04F0070EDBCF05F00038E8443C
:102AD0001F0B066E076A820E0626050E072206C029
:102AE000E9FF07C0EAFFEFCF08F00050096E070EBC
:102AF0000916010E0A6E09500DE006E6E86CD89042
:102B00000A36010FFDE306D0D8900ABED8800A32FB
:102B1000010FFBE308500A1206C0E9FF07C0EAFFF5
:102B20000AC0EFFF230E0024066E076A0F0E07226D
:102B300006C0E9FF07C0EAFF01C0EFFF016A230EEC
:102B40000026040E0122800E025E070E02160238D5
:102B5000F00B036E070E05160550032600C0E9FFB3
:102B600001C0EAFF03C0EFFFE4CF0AF0E4CF09F0B1
:102B7000E4CF08F0E4CF07F0E4CF06F0E4CF05F0AF
:102B8000E4CF04F0E4CF03F0E4CF02F0E4CF01F0AF
:102B9000E4CF00F0E4CFD9FF1200D9CFE5FFE1CFB9
:102BA000D9FF00C0E5FF01C0E5FF02C0E5FF03C09B
:102BB000E5FF04C0E5FF06C0E5FF020EDBCF00F035
:102BC000030EDBCF01F0040EDBCF02F03F0EC71681
:102BD000C66AC56A0050C6120150C7129488820E98
:102BE000006E0F0E016E0F0E046E380E002604509C
:102BF00001220F0E046E800E005E0450015A820EF8
:102C0000036E0F0E046E0F0E066E380E032606506E
:102C100004220F0E066E800E035E0650045A03C097
:102C2000E9FF04C0EAFFEFCF03F0039800C0E9FF1B
:102C300001C0EAFF03C0EFFF9486820E006E0F0E04
:102C4000016E0F0E046E380E0026045001220F0E86
:102C5000046E800E005E0450015A820E036E0F0E49
:102C6000046E0F0E066E380E0326065004220F0E59
:102C7000066E800E035E0650045A03C0E9FF04C0CE
:102C8000EAFFEFCF03F0039600C0E9FF01C0EAFFBF
:102C900003C0EFFF02C0C8FFC68A9E96A196E4CF8C
:102CA00006F0E4CF04F0E4CF03F0E4CF02F0E4CF89
:102CB00001F0E4CF00F0E4CFD9FF1200D9CFE5FF57
:102CC000E1CFD9FF00C0E5FF01C0E5FF02C0E5FF8D
:102CD00003C0E5FF04C0E5FF05C0E5FF06C0E5FF52
:102CE00007C0E5FF020EDBCF00F0030EDBCF01F0E3
:102CF00068EC2BF0026EF3CF03F0F4CF04F0E9CFD1
:102D000005F0E56AE56A0150E56E0050E56EE56A9A
:102D1000E56A420EE56E400EE56E0AEC0FF0006EBD
:102D2000F3CF01F0F4CF06F0E9CF07F0080EE1266B
:102D3000E56AE56A030EE56EE80EE56E0750E56E9E
:102D40000650E56E0150E56E0050E56EEEEC16F0B3
:102D5000006EF3CF01F0F4CF06F0E9CF07F0080ED4
:102D6000E12600500224006E01500320016E06503F
:102D70000420026E07500520036E68EC2BF0046EF1
:102D8000F3CF05F0F4CF06F0E9CF07F00050045E72
:102D90000150055A0250065A0350075A079E3F0E2B
:102DA000075C08E1FF0E065C05E1FF0E055C02E131
:102DB000FF0E045CE2E2E4CF07F0E4CF06F0E4CFDC
:102DC00005F0E4CF04F0E4CF03F0E4CF02F0E4CF69
:102DD00001F0E4CF00F0E4CFD9FF1200D9CFE5FF36
:102DE000E1CFD9FF00C0E5FF01C0E5FF02C0E5FF6C
:102DF00003C0E5FF04C0E5FF05C0E5FF06C0E5FF31
:102E000007C0E5FF08C0E5FF09C0E5FF0AC0E5FF10
:102E10000BC0E5FF0CC0E5FF0DC0E5FF020EDBCFE8
:102E200000F0030EDBCF01F0040EDBCF02F0050E45
:102E3000DBCF03F0060EDBCF04F0070EDBCF05F08F
:102E4000080EDBCF06F0090EDBCF07F0086A096A2F
:102E50000A6A0B6A200E0C6E0350800BE8440D6E5C
:102E6000005000260136023603360850082609367F
:102E70000A360B360D50D8A4088007500B5C08E1C9
:102E800006500A5C05E10550095C02E10450085C4B
:102E900009E30450085E0550095A06500A5A0750C3
:102EA0000B5A00800C040D6E0DC00CF00D50D4E1D7
:102EB00003C0E9FF02C0F4FF01C0F3FF0050E4CFFC
:102EC0000DF0E4CF0CF0E4CF0BF0E4CF0AF0E4CF48
:102ED00009F0E4CF08F0E4CF07F0E4CF06F0E4CF48
:102EE00005F0E4CF04F0E4CF03F0E4CF02F0E4CF48
:102EF00001F0E4CF00F0E4CFD9FF120000C0E5FFFD
:102F000001C0E5FF03C0E5FF04C0E5FF05C0E5FF24
:102F100006C0E5FF07C0E5FF08C0E5FF09C0E5FF03
:102F20000AC0E5FF0BC0E5FF80C500F081C501F0D8
:102F30000501803F01D0812B0050E56E67EC30F039
:102F4000E652076E046A056A066A80C500F081C50C
:102F500001F00501803F01D0812B0050E56E67EC48
:102F600030F0E6520B6A0A6E086A08500412051225
:102F70000A5006120B50071280C500F081C501F0FF
:102F80000501803F01D0812B0050E56E67EC30F0E9
:102F9000E652036E006A03C001F0E86A03BEFF0E4A
:102FA000086E096E005004120150051208500612F6
:102FB0000950071280C500F081C501F00501803F6E
:102FC00001D0812B0050E56E67EC30F0E652016ACB
:102FD0000412015005120612071207C0E9FF06C0CD
:102FE000F4FF05C0F3FF0450E4CF0BF0E4CF0AF088
:102FF000E4CF09F0E4CF08F0E4CF07F0E4CF06F027
:10300000E4CF05F0E4CF04F0E4CF03F0E4CF01F027
:10301000E4CF00F0120000C0E5FF01C0E5FF02C0F0
:10302000E5FF03C0E5FF050196510501951901E192
:1030300063D096C500F0002A009E016A600E00264B
:10304000000E012200C0E9FF01C0EAFFEFCFA0F5AA
:103050001F0E0501A01796C59FF5A05105019F27DA
:103060009F51006E020E00249F6F9F9F92EC2BF0E9
:10307000006E005003E1006A002A01D0006A92EC61
:103080002BF00501A06FA0C501F0800E0116A0C5B0
:1030900002F01F0E021602C003F002C0A0F503509A
:1030A00003E195C596F53BD000501EE0015022E0AB
:1030B00092EC2BF0006E0501A051026E0204A06F8D
:1030C0000050420A17E000504E0A03E19FEC27F03F
:1030D00011D00050460A03E1A9EC30F00BD00050AB
:1030E000490A08E1FF0006D096C5A1F50150D8A411
:1030F000B2EC1DF09FC596F504013D5104013E1947
:1031000006E00501975103E124EC19F008D094B0D2
:1031100006D00501975103E1ACB275EC30F0E4CF75
:1031200003F0E4CF02F0E4CF01F0E4CF00F01200AE
:10313000D9CFE5FFE1CFD9FF00C0E5FF01C0E5FF32
:1031400002C0E5FF03C0E5FF04C0E5FF05C0E5FFE1
:1031500006C0E5FF07C0E5FF020EDBCF00F0030E5F
:10316000DBCF01F0040EDBCF02F0050EDBCF03F066
:1031700002C006F00650046E800A33E100C0E9FF89
:1031800001C0F3FF0250CBEC2EF0056EF3CF06F03A
:10319000F4CF07F003C0E5FF05C0E9FF06C0F3FF69
:1031A0000750CAEC30F000C0E9FF01C0F3FF025045
:1031B000CBEC2EF0056EF3CF06F0F4CF07F0052A26
:1031C00002E3064A072A05C0E5FF06C0F4FF07C070
:1031D000F6FF00C0E9FF01C0F3FF025058EC30F0E9
:1031E00020D004C000F000AA1CD0007A0050046E69
:1031F00004E1035021EC31F014D00450010A04E141
:10320000035034EC31F00DD004500F0A04E10350A8
:10321000B3EC2AF006D004500E0A03E1035031EC5F
:1032200031F0E4CF07F0E4CF06F0E4CF05F0E4CFCF
:1032300004F0E4CF03F0E4CF02F0E4CF01F0E4CFF8
:1032400000F0E4CFD9FF120000C0E5FF01C0E5FFA8
:1032500002C0E5FF03C0E5FFACA277D060EC2DF023
:10326000006E005005E104013E6B04013D6B6DD022
:103270003EC401F00050012660EC2DF0026E000605
:103280000250230A1FE1010E005CD8A05CD060EC64
:103290002DF0036E690A03E182EC2AF054D003504A
:1032A000720A03E175EC30F04ED00350730A01E06E
:1032B0004AD09480AB869D8A9D98AE50AE50AB9814
:1032C000AB8841D00250430A05E00250420A01E0B7
:1032D0003AD001D0008E0501996B00C09AF50050DC
:1032E0000401006F0501992B04013E51011814E0FF
:1032F00060EC2DF0006E05019A27000E050199255E
:10330000026E036A040E032202C0E9FF03C0EAFF53
:1033100000C0EFFF992BE8D7000E05019925006E3C
:10332000026A040E022205019A1D036E032A00C0E0
:10333000E9FF02C0EAFF03C0EFFF0501992B99C521
:1033400097F50401886B01C03EF4E4CF03F0E4CFAD
:1033500002F0E4CF01F0E4CF00F01200D9CFE5FF96
:10336000E1CFD9FF00C0E5FF01C0E5FF02C0E5FFE6
:1033700003C0E5FF04C0E5FF05C0E5FF06C0E5FFAB
:10338000020EDBCF00F000502FE1928A800E016E1A
:103390000F0E026E0F0E046E380E0126045002222C
:1033A000800E036E0F0E046E800E015E0450025AF2
:1033B0000F0E066E380E0326065004220F0E066E00
:1033C000800E035E0650045A03C0E9FF04C0EAFF02
:1033D000EFCF03F0038A01C0E9FF02C0EAFF03C098
:1033E000EFFF9298899831D00050020A2EE192881E
:1033F000800E006E0F0E016E0F0E036E380E00264B
:1034000003500122800E026E0F0E036E800E005ECE
:103410000350015A0F0E056E380E02260550032286
:103420000F0E056E800E025E0550035A02C0E9FFC2
:1034300003C0EAFFEFCF02F0028800C0E9FF01C03D
:10344000EAFF02C0EFFF929A899AE4CF06F0E4CF38
:1034500005F0E4CF04F0E4CF03F0E4CF02F0E4CFD2
:1034600001F0E4CF00F0E4CFD9FF1200D9CFE5FF9F
:10347000E1CFD9FF00C0E5FF01C0E5FF02C0E5FFD5
:1034800003C0E5FF04C0E5FF05C0E5FF06C0E5FF9A
:10349000020EDBCF00F0030EDBCF01F0040EDBCF1A
:1034A00002F0050EDBCF03F003C004F0056A035001
:1034B000D8B453D000C0E9FF01C0F3FF025027EC9D
:1034C00030F0066E430A03E1010E056E038E04061A
:1034D000002A02E3014A022A9D9AAB9894909D9893
:1034E0009EA8FED7AC80AD6A00009EA8FED7AC9027
:1034F00003C0ADFF00009EA8FED7055005E0420EB8
:10350000AD6E0324056E05D0620EAD6E620E03240F
:10351000056E04C003F0035015E000009EA8FED71E
:1035200000C0E9FF01C0F3FF025027EC30F0046E49
:1035300004C0ADFF045005260306002A02E3014A39
:10354000022AE9D700009EA8FED7051CAD6EAD2A61
:1035500000009EA8FED775EC30F0E4CF06F0E4CF73
:1035600005F0E4CF04F0E4CF03F0E4CF02F0E4CFC1
:1035700001F0E4CF00F0E4CFD9FF120000C0E5FF76
:1035800001C0E5FF02C0E5FF03C0E5FF0BEC18F04A
:10359000F0EC06F0A2EC12F00BEC18F045EC1CF08D
:1035A0000BEC18F068EC2BF0006EF3CF01F0F4CFC9
:1035B00002F0E9CF03F004013351005E3451015AA7
:1035C0003551025A3651035A039E3F0E035C08E1FF
:1035D000FF0E025C05E1FF0E015C02E1FF0E005CE4
:1035E000D8B046D068EC2BF0F3CF01F0F4CF02F066
:1035F000E9CF03F0100F0401336F270E0120346F61
:10360000000E0220356F000E0320366F010EE56EAE
:10361000800EE56E040EE56E810EE56EA2EC14F0F0
:10362000040EE126F8EC0DF0006E0050D8B44CEC1E
:1036300009F004013A2B0BEC18F0800EE56E040E35
:10364000E56E810EE56EF0EC10F0030EE1263A51C6
:103650000FE139C400F0E56A0050E56E000EE56E3A
:10366000560EE56E680EE56EE3EC26F0050EE126DB
:10367000E4CF03F0E4CF02F0E4CF01F0E4CF00F0B8
:10368000120000C0E5FF01C0E5FF02C0E5FF03C076
:10369000E5FF04C0E5FF006A820E0024016E026AA5
:1036A000050E022201C0E9FF02C0EAFFEF6A002A0C
:1036B000020E005CF1E3006A0050020DF450026E4D
:1036C000F3CF01F0E00E0124036E000E0220046E21
:1036D00003C0E9FF04C0EAFFEE6AEF6A5A0E012454
:1036E000036E040E0220046E03C0E9FF04C0EAFF6B
:1036F000EE6AEF6A930E0124036E040E0220046E3C
:1037000003C0E9FF04C0EAFFEE6AEF6AB30E0124CA
:10371000036E040E0220046E03C0E9FF04C0EAFF3A
:10372000EE6AEF6AD30E0126040E022201C0E9FF01
:1037300002C0EAFFEE687F0EEF6E230E0024016EDA
:10374000026A040E022201C0E9FF02C0EAFFEF682C
:10375000002A100E005CD8A0AFD7AF0EC06EC16AB1
:10376000010EC26EC282E4CF04F0E4CF03F0E4CFD6
:1037700002F0E4CF01F0E4CF00F01200432041203A
:1037800025642025640A0000D9CFE5FFE1CFD9FFE9
:1037900000C0E5FF01C0E5FF02C0E5FF03C0E5FF93
:1037A00004C0E5FF05C0E5FF06C0E5FF07C0E5FF73
:1037B000020EDBCF00F0030EDBCF01F0040EDBCFF7
:1037C00002F0050EDBCF03F03EC43FF404013D518F
:1037D00004013F5F3F51046E04043F6F03C004F0D7
:1037E000056A030E0426D8B0052A3FC406F0076A0E
:1037F0000750800FF36E0550800FF35C02E1045018
:10380000065C02E2E8682ED0020E035C02E2E86A7F
:1038100029D003060350E56EDBEC27F0E652046A7C
:103820000350045C14E204500024056EE86A012091
:10383000066EE86A022005C0E9FF06C0F3FF27EC28
:1038400030F0042AE56EDBEC27F0E652E9D73EC4FF
:103850003FF404013D5104013F5F3F51006E0004FD
:103860003F6FE86AE4CF07F0E4CF06F0E4CF05F05D
:10387000E4CF04F0E4CF03F0E4CF02F0E4CF01F0B2
:10388000E4CF00F0E4CFD9FF120000C0E5FF01C093
:10389000E5FF38EC30F0006E0050D8B453D0800E05
:1038A000E56E050EE56E7E0EE56E800EE56E050E8C
:1038B000E56E7C0EE56E800EE56E050EE56E7A0E09
:1038C000E56E800EE56E040EE56E7E0EE56E56EC3E
:1038D00013F00C0EE126420E0501506F0A0E516FD7
:1038E00004017F510501526F04017E510501536FA0
:1038F00005017B510501546F05017A510501556F92
:1039000005017D510501566F05017C510501576F79
:1039100005017F510501586F05017E510501596F61
:1039200012EC31F005015A6F0A0E5B6F0C0EE56E5A
:10393000800EE56E050EE56E500EE56EC4EC1BF0D4
:10394000040EE126CAEC11F0006E00C001F0005038
:1039500015E0420E0501506F0B0E516F0150526F72
:103960000A0E536F040EE56E800EE56E050EE56ED1
:10397000500EE56EC4EC1BF0040EE126E4CF01F01E
:10398000E4CF00F01200920EE56EBCEC2BF0E65294
:10399000AB0A02E0E86A6ED0E56A0A0EE56EA9ECB1
:1039A00024F0E652E652010EE56E91EC2EF0E6525E
:1039B000000EE56A3CEC29F0E652000EE56A3DECAB
:1039C0002BF0E652000EE56AE6EC2BF0E65205011C
:1039D000A699A69BA651E56E800EE56EBDEC2DF076
:1039E000E652E652E56AE56AE56AE56AE70EE56EE3
:1039F00070EC23F0050EE126000EE56A10EC2CF0C9
:103A0000E652E56A0A0EE56E5EEC16F0E652E65204
:103A1000010EE56E10EC2CF0E652E56A0A0EE56E3A
:103A20005EEC16F0E652E652000EE56A74EC2EF0FB
:103A3000E652010EE56EFBEC2DF0E652020EE56E4D
:103A4000DCEC2DF0E652320EE56E8AEC2FF0E652F9
:103A5000BFEC30F00501A7513F0BC009A76FC00BA9
:103A60000909A76FE56EA60EE56EBDEC2DF0E652D6
:103A7000E652010E1200D9CFE5FFE1CFD9FF00C019
:103A8000E5FF01C0E5FF02C0E5FF03C0E5FF04C09C
:103A9000E5FF05C0E5FF020EDBCF00F0030EDBCF34
:103AA00001F0040EDBCF02F00050020DF450036E63
:103AB000F3CF00F05A0E0024046E040E0320056EAE
:103AC00004C0E9FF05C0EAFF01C0EEFF02C0EFFF3E
:103AD000930E0024046E040E0320056E04C0E9FF5B
:103AE00005C0EAFFEECF04F0EFCF05F00150045C13
:103AF000016E02500558026E000E0026050E0322CC
:103B000000C0E9FF03C0EAFF01C0EEFF02C0EFFF03
:103B1000D88002AED89004E3021E016CD8B4022A09
:103B20000250800F800F02E1030E015C02E2016A85
:103B3000026A0150021007E100C0E9FF03C0EAFF7A
:103B4000000EEE6AEF6AE4CF05F0E4CF04F0E4CFB4
:103B500003F0E4CF02F0E4CF01F0E4CF00F0E4CFD3
:103B6000D9FF120000C0E5FF01C0E5FF02C0E5FF7C
:103B700092EC2BF0006E4C0A08E192EC2BF0006EF8
:103B8000300A02E08B8201D08B920050530A08E188
:103B900092EC2BF0300A02E08A8E50D08A9E4ED0F2
:103BA0000050450A25E1000EE56E560EE56E740ED6
:103BB000E56EE3EC26F0030EE1262BEC31F0016E0E
:103BC00001C002F0010602500FE092EC2BF0E56A12
:103BD000E56E000EE56E560EE56E760EE56EE3ECD4
:103BE00026F0050EE126ECD70A0EB3EC2AF026D01B
:103BF0000050520A15E1270EE56EE56A080EE56EE3
:103C0000CDEC15F0030EE126E56A800EE56E040E9C
:103C1000E56E810EE56E25EC1EF0040EE1260ED059
:103C20000050410A0BE1270EE56EE56A080EE56ECD
:103C3000CDEC15F0030EE12612EC2BF0E4CF02F0F0
:103C4000E4CF01F0E4CF00F01200D9CFE5FFE1CFDF
:103C5000D9FF00C0E5FF01C0E5FF02C0E5FF03C0DA
:103C6000E5FF020EDBCF00F0030EDBCF01F0040E08
:103C7000DBCF02F0050EDBCF03F0035003E11D0E96
:103C8000036E02D0530E036E03C0E5FF00C0E9FFD0
:103C900001C0F3FF0250CAEC30F0E56A2D0EE56E6C
:103CA0000350E56EE3EC2AF0030EE126100EE56EFC
:103CB0002D0EE56E0350E56EE3EC2AF0030EE126CF
:103CC000080EE56E2D0EE56E0350E56EE3EC2AF06E
:103CD000030EE1260B0EE56E310EE56E0350E56E28
:103CE000E3EC2AF0030EE126090EE56E2C0EE56EDC
:103CF0000350E56EE3EC2AF0030EE126810EE56E3B
:103D0000380EE56E0350E56EE3EC2AF0030EE12673
:103D1000E4CF03F0E4CF02F0E4CF01F0E4CF00F011
:103D2000E4CFD9FF1200D9CFE5FFE1CFD9FF00C022
:103D3000E5FF01C0E5FF02C0E5FF03C0E5FF04C0E9
:103D4000E5FF05C0E5FF06C0E5FF020EDBCF00F092
:103D5000030EDBCF01F0040EDBCF02F0050EDBCF4C
:103D600003F0D88001AED890046A0436045007E00E
:103D7000011C066E001C056E054A062A04D000C010
:103D800005F001C006F0D88003AED89007E3031C0D
:103D9000016E021C006E004A012A04D002C000F02D
:103DA00003C001F00150E56E0050E56E0650E56E6F
:103DB0000550E56E71EC21F0006EF3CF01F0040EBA
:103DC000E12604500AE0011C036E001C026E024A48
:103DD000032A03C0F3FF025003D001C0F3FF0050D9
:103DE000E4CF06F0E4CF05F0E4CF04F0E4CF03F035
:103DF000E4CF02F0E4CF01F0E4CF00F0E4CFD9FF4C
:103E00001200D9CFE5FFE1CFD9FF00C0E5FF01C027
:103E1000E5FF02C0E5FF03C0E5FF04C0E5FF05C004
:103E2000E5FF020EDBCF00F0030EDBCF01F0040E46
:103E3000DBCF02F0050EDBCF03F080C504F081C5B7
:103E400005F00501803F01D0812B0350E56E045041
:103E5000E56EFBEC2CF0E652E65280C504F081C51D
:103E600005F00501803F01D0812B0250056EE56E03
:103E70000450E56EFBEC2CF0E652E65280C504F0EF
:103E800081C505F00501803F01D0812B0150E56E11
:103E90000450E56EFBEC2CF0E652E65280C504F0CF
:103EA00081C505F00501803F01D0812B0050E56EF2
:103EB0000450E56EFBEC2CF0E652E652E4CF05F040
:103EC000E4CF04F0E4CF03F0E4CF02F0E4CF01F05C
:103ED000E4CF00F0E4CFD9FF1200D8CFE5FFE0CF68
:103EE000E5FFE56EF3CFE5FFF4CFE5FFE9CFE5FFB2
:103EF000EACFE5FFFACFE5FFFBCFE5FF00C0E5FF26
:103F000001C0E5FFF6CFE5FFF6CFE5FFF7CFE5FF10
:103F1000F8CFE5FFF5CFE5FFE1CFE5FFE2CFE5FF25
:103F200004013B510F01356F04013C510F01366F05
:103F3000D650336FD750346FF2A417D03BC400F083
:103F40003CC401F00050010F04013B6F000E012042
:103F50003C6FF2943B510F01356F04013C510F014E
:103F6000366FD650336FD750346FE4CFE2FFE4CFD3
:103F7000E1FFE4CFF5FFE4CFF8FFE4CFF7FFE4CFB4
:103F8000F6FFE4CFF6FFE4CF01F0E4CF00F0E4CF9A
:103F9000FBFFE4CFFAFFE4CFEAFFE4CFE9FFE4CF91
:103FA000F4FFE4CFF3FFE450E4CFE0FFE4CFD8FF29
:103FB0001000D9CFE5FFE1CFD9FF00C0E5FF01C078
:103FC000E5FF02C0E5FF03C0E5FF04C0E5FF05C053
:103FD000E5FF06C0E5FF020EDBCF00F0030EDBCFEE
:103FE00001F00038E8441F0B026E036A820E0226BD
:103FF000050E032202C0E9FF03C0EAFFEFCF04F081
:104000000050056E070E0516010E066E05500DE0F8
:1040100006E6E86CD8900636010FFDE306D0D8908E
:1040200006BED8800632010FFBE30450061202C020
:10403000E9FF03C0EAFF06C0EFFF230E0024026E73
:10404000036A0F0E032202C0E9FF03C0EAFF01C0AA
:10405000EFFF016A230E0026040E012200C0E9FFD3
:1040600001C0EAFFFF0EEF68E4CF06F0E4CF05F0F1
:10407000E4CF04F0E4CF03F0E4CF02F0E4CF01F0AA
:10408000E4CF00F0E4CFD9FF1200D9CFE5FFE1CFB4
:10409000D9FF00C0E5FF01C0E5FF02C0E5FF03C096
:1040A000E5FF04C0E5FF05C0E5FF06C0E5FF020E21
:1040B000DBCF00F0030EDBCF01F0040EDBCF02F00C
:1040C0000401375119E17EEC17F0036EF3CF04F0D1
:1040D000F4CF05F0E9CF06F003C0E5FF04C0F4FF1C
:1040E00005C0F6FF06C0F7FF00C0E9FF01C0F3FFFF
:1040F000025016EC30F01ED004013751010A1AE1CB
:1041000000C0E9FF01C0F3FF025040EC2DF0006E4B
:10411000F3CF01F0F4CF02F0E9CF03F00350E56EE6
:104120000250E56E0150E56E0050E56E01EC1FF0A7
:10413000040EE126E4CF06F0E4CF05F0E4CF04F06E
:10414000E4CF03F0E4CF02F0E4CF01F0E4CF00F0DD
:10415000E4CFD9FF1200D9CFE5FFE1CFD9FF00C0EE
:10416000E5FF01C0E5FF02C0E5FF03C0E5FF04C0B5
:10417000E5FF05C0E5FF020EDBCF00F0030EDBCF4D
:1041800001F0040EDBCF02F0050EDBCF03F0060ECC
:10419000DBCF04F0E56A390EE56EADEC29F0E652AE
:1041A000E6520050E56E7FEC2DF0E6521DEC31F04A
:1041B000010EE56E390EE56EADEC29F0E652E652E1
:1041C000006A04C005F00406055016E0AEEC2CF0C1
:1041D000056E05C0E5FF01C0E9FF02C0F3FF035013
:1041E000CAEC30F0012A02E3024A032A045002E03A
:1041F0001FEC2DF0002AE5D71DEC31F00050E4CF84
:1042000005F0E4CF04F0E4CF03F0E4CF02F0E4CF14
:1042100001F0E4CF00F0E4CFD9FF1200D9CFE5FFE1
:10422000E1CFD9FF00C0E5FF01C0E5FF02C0E5FF17
:1042300003C0E5FF04C0E5FF05C0E5FF06C0E5FFDC
:10424000020EDBCF00F0030EDBCF01F0040EDBCF5C
:1042500002F0050EDBCF03F0060EDBCF04F0070EF5
:10426000DBCF05F0080EDBCF06F0D88003AED89088
:1042700015E306500A0A12E104C0E9FF05C0EAFF8F
:104280002D0EEF6E044A052A031E021E011E006C4D
:1042900005E1012A03E1022AD8B4032A0650E56E9B
:1042A0000550E56E0450E56E0350E56E0250E56E74
:1042B0000150E56E0050E56E14EC10F0070EE1269B
:1042C000E4CF06F0E4CF05F0E4CF04F0E4CF03F050
:1042D000E4CF02F0E4CF01F0E4CF00F0E4CFD9FF67
:1042E0001200D9CFE5FFE1CFD9FF00C0E5FF01C043
:1042F000E5FF02C0E5FF03C0E5FF04C0E5FF05C020
:10430000E5FF06C0E5FF020EDBCF00F0030EDBCFBA
:1043100001F0040EDBCF02F0050EDBCF03F0046AE0
:10432000056A0350800BE844066E065011E1025006
:10433000022603360350015C02E10250005C04E2F5
:10434000D8900332023204D0052A05C004F0E9D720
:104350000350015C02E10250005C04E30250005E85
:104360000350015AD8900332023204C005F004060B
:104370000550EEE101C0F3FF0050E4CF06F0E4CFBA
:1043800005F0E4CF04F0E4CF03F0E4CF02F0E4CF93
:1043900001F0E4CF00F0E4CFD9FF1200D9CFE5FF60
:1043A000E1CFD9FF00C0E5FF01C0E5FF02C0E5FF96
:1043B00003C0E5FF04C0E5FF05C0E5FF06C0E5FF5B
:1043C00007C0E5FF020EDBCF00F0030EDBCF01F0EC
:1043D000040EDBCF02F0050EDBCF03F0046A056AA2
:1043E000100E066E0150800BE844076E0050002648
:1043F00001360450042605360750D8A40480035023
:10440000055C02E10250045C05E30250045E0350C7
:10441000055A00800604076E07C006F00750E2E167
:1044200001C0F3FF0050E4CF07F0E4CF06F0E4CF83
:1044300005F0E4CF04F0E4CF03F0E4CF02F0E4CFE2
:1044400001F0E4CF00F0E4CFD9FF1200D9CFE5FFAF
:10445000E1CFD9FF00C0E5FF01C0E5FF02C0E5FFE5
:1044600003C0E5FF020EDBCF00F0030EDBCF01F04F
:10447000040EDBCF02F000C0E9FF01C0F3FF0250E1
:1044800027EC30F0036E035029E0C6A610D003508D
:10449000E56E7FEC2DF0036EE652035002E0FD0E58
:1044A0001ED0C8EC28F0C5AC14D0FE0E18D09E96D5
:1044B00000C0E9FF01C0F3FF025027EC30F0C96EE5
:1044C000C6889EA6FED7C7B404D0C7B002D0FE0EE1
:1044D00006D0002AD0E3014A022ACDD7E86AE4CF09
:1044E00003F0E4CF02F0E4CF01F0E4CF00F0E4CF3A
:1044F000D9FF1200D9CFE5FFE1CFD9FF00C0E5FF1A
:1045000001C0E5FF02C0E5FF03C0E5FF04C0E5FF11
:1045100005C0E5FF020EDBCF00F0030EDBCF01F09C
:10452000040EDBCF02F0050EDBCF03F0046A03C0FC
:1045300005F00306055022E0AEEC2CF0056E05C038
:10454000E5FF00C0E9FF01C0F3FF0250CAEC30F004
:10455000002A02E3014A022A04C005F0C5A6E7D7F3
:10456000A1A602D0E8680BD0052A05C004F00350CC
:10457000F5E01FEC2DF0C5B8FED7F0D70450E4CF1E
:1045800005F0E4CF04F0E4CF03F0E4CF02F0E4CF91
:1045900001F0E4CF00F0E4CFD9FF120000C0E5FF46
:1045A00001C0E5FF02C0E5FF03C0E5FF96C500F0CE
:1045B000016AA1C502F0036A0250005E0350015A6D
:1045C000E56A800EE56E0150E56E0050E56E93ECF5
:1045D0001EF0006E040EE1260006A1C501F0430E98
:1045E000B3EC2AF0200EB3EC2AF0005020E0600E6D
:1045F0000124026E036A000E032202C0E9FF03C019
:10460000EAFFEFCF02F0E56A0250E56E000EE56EBC
:10461000610EE56E020EE56EE3EC26F0050EE12676
:10462000012A0150800A01E1016A0006DED7E4CFC9
:1046300003F0E4CF02F0E4CF01F0E4CF00F0120089
:10464000D9CFE5FFE1CFD9FF00C0E5FF01C0E5FF0D
:1046500002C0E5FF03C0E5FF020EDBCF00F0030E52
:10466000DBCF01F0040EDBCF02F0050EDBCF03F051
:10467000005005018C6F01508D6F025005018E6F47
:1046800003508F6F05018C5105018E03F4CF01F0AB
:10469000F3CF00F000500501906F0150916F0501BC
:1046A0008C5105018F03F3CF00F005018D510501F9
:1046B0008E03F3CF01F00150002605019151002631
:1046C0000050916F91C5F3FF9051E4CF03F0E4CF18
:1046D00002F0E4CF01F0E4CF00F0E4CFD9FF120004
:1046E000D9CFE5FFE1CFD9FF00C0E5FF01C0E5FF6D
:1046F00002C0E5FF03C0E5FF04C0E5FF020EDBCF0B
:1047000000F0030EDBCF01F0040EDBCF02F0050E4C
:10471000DBCF03F0060EDBCF04F0E56A390EE56E61
:10472000ADEC29F0E652E6520050E56E7FEC2DF03C
:10473000E65204C000F00406005012E001C0E9FF98
:1047400002C0F3FF035027EC30F0006E012A02E3B1
:10475000024A032A0050E56E7FEC2DF0E652E9D7BD
:104760001DEC31F0E4CF04F0E4CF03F0E4CF02F02D
:10477000E4CF01F0E4CF00F0E4CFD9FF1200D9CFAD
:10478000E5FFE1CFD9FF00C0E5FF01C0E5FF02C0B2
:10479000E5FF03C0E5FF04C0E5FF020EDBCF00F03C
:1047A000030EDBCF01F0040EDBCF02F00401375122
:1047B00011E14EEC2AF0036EF3CF04F003C0E5FFE5
:1047C00004C0F4FF00C0E9FF01C0F3FF025091EC08
:1047D00030F016D004013751010A12E100C0E9FFA0
:1047E00001C0F3FF0250A0EC2FF0006EF3CF01F0F8
:1047F0000150E56E0050E56E62EC27F0E652E6529D
:10480000E4CF04F0E4CF03F0E4CF02F0E4CF01F012
:10481000E4CF00F0E4CFD9FF1200D9CFE5FFE1CF1C
:10482000D9FF00C0E5FF01C0E5FF02C0E5FF03C0FE
:10483000E5FF04C0E5FF020EDBCF00F00038E844DE
:104840001F0B016E026A860E0126050E022201C0B0
:10485000E9FF02C0EAFFEFCF01F0070E0016010EDC
:10486000026E000E036E005006E0E86CD89002362F
:104870000336010FFCE3046A0150021604500316CC
:1048800002500310D880E866D890026A02360250BF
:10489000D880E866D890026A02360250E4CF04F06D
:1048A000E4CF03F0E4CF02F0E4CF01F0E4CF00F076
:1048B000E4CFD9FF1200FE0EF66E610EF76E000E09
:1048C000F86E0900F550056E0900F550066E04E11A
:1048D000056702D0A8EF24F00900F550006E09002A
:1048E000F550016E0900F550026E09000900F550FF
:1048F000E96E0900F550EA6E090009000900F5505B
:10490000036E0900F550046E09000900F6CF07F0A8
:10491000F7CF08F0F8CF09F000C0F6FF01C0F7FFAD
:1049200002C0F8FF035002E1045007E00900F5500F
:10493000EE6E0306F8E20406F9D707C0F6FF08C0DA
:10494000F7FF09C0F8FF050601E2060667EF24F04D
:104950001200D9CFE5FFE1CFD9FF00C0E5FF01C0CC
:10496000E5FF020EDBCF00F0030EDBCF01F00150BC
:10497000E56E0050E56EE56A200EE56E20EC23F052
:10498000006EF3CF01F0040EE126E56A590EE56EE4
:104990000150E56E0050E56ECEEC21F0006EF3CFD5
:1049A00001F0040EE12600500008006E010E0156D1
:1049B0000150800F7F0F02E1000E005C03E3FF0E49
:1049C000006E016AD88001AED890D8B0006A00505D
:1049D000E56E810EE56EBDEC2DF0E652E652E4CFB9
:1049E00001F0E4CF00F0E4CFD9FF1200D9CFE5FF0A
:1049F000E1CFD9FF00C0E5FF01C0E5FF02C0E5FF40
:104A000003C0E5FF020EDBCF00F0E56A390EE56E6C
:104A1000ADEC29F0E652E6520050E56E7FEC2DF049
:104A2000E6521DEC31F0010EE56E390EE56EADEC8F
:104A300029F0E652E652AEEC2CF005018A6F1FEC2D
:104A40002DF0AEEC2CF005018B6F1DEC31F08BC519
:104A500000F0016A0050036E026A8AC500F000503F
:104A600002120150031203C0F3FF0250E4CF03F01F
:104A7000E4CF02F0E4CF01F0E4CF00F0E4CFD9FFBF
:104A80001200D9CFE5FFE1CFD9FF00C0E5FF01C09B
:104A9000E5FF02C0E5FF03C0E5FF04C0E5FF020E2D
:104AA000DBCF00F00038E8441F0B016E026A820E73
:104AB0000126050E022201C0E9FF02C0EAFFEFCF86
:104AC00003F0070E0016010E046E00500DE006E61E
:104AD000E86CD8900436010FFDE306D0D89004BEF0
:104AE000D8800432010FFBE3041C006E0350001653
:104AF00001C0E9FF02C0EAFF00C0EFFFE4CF04F00D
:104B0000E4CF03F0E4CF02F0E4CF01F0E4CF00F013
:104B1000E4CFD9FF1200D9CFE5FFE1CFD9FF00C024
:104B2000E5FF01C0E5FF02C0E5FF03C0E5FF04C0EB
:104B3000E5FF05C0E5FF020EDBCF00F00050010AE3
:104B400022E1016A0150020DF450036EF3CF02F02E
:104B5000B30E0224046E040E0320056E04C0E9FFA8
:104B600005C0EAFFEE687F0EEF6ED30E0226040E3C
:104B7000032202C0E9FF03C0EAFFEE6AEF6A012ADE
:104B8000100E015CDFE300C043F4E4CF05F0E4CF96
:104B900004F0E4CF03F0E4CF02F0E4CF01F0E4CF7F
:104BA00000F0E4CFD9FF120000C0E5FF01C0E5FF2F
:104BB00002C0E5FF03C0E5FF04C0E5FF006A840E04
:104BC0000024016E026A050E0222860E0024036E86
:104BD000046A050E042203C0E9FF04C0EAFF010EC7
:104BE000EF6E01C0E9FF02C0EAFFEF6E002A020E7D
:104BF000005CE5E3006A400E0024016E026A050EC7
:104C0000022201C0E9FF02C0EAFFEF68002A100E8D
:104C1000005CF1E3E4CF04F0E4CF03F0E4CF02F072
:104C2000E4CF01F0E4CF00F01200432073202564AC
:104C30002025640A0000D9CFE5FFE1CFD9FF00C0ED
:104C4000E5FF01C0E5FF02C0E5FF03C0E5FF04C0CA
:104C5000E5FF05C0E5FF020EDBCF00F0030EDBCF62
:104C600001F0040EDBCF02F0050EDBCF03F0060EE1
:104C7000DBCF04F0056A400E0026050E0522800EEB
:104C8000015E070E01160138F00B026E070E0416C6
:104C90000450022600C0E9FF05C0EAFF02C0EFFF92
:104CA000E4CF05F0E4CF04F0E4CF03F0E4CF02F06A
:104CB000E4CF01F0E4CF00F0E4CFD9FF1200D9CF68
:104CC000E5FFE1CFD9FF00C0E5FF01C0E5FF02C06D
:104CD000E5FF03C0E5FF020EDBCF00F0030EDBCFE4
:104CE00001F0040EDBCF02F0050EDBCF03F0005025
:104CF000E56EA40EE56EBDEC2DF0E652E6520150D5
:104D0000E56EA50EE56EBDEC2DF0E652E6520250C2
:104D1000E56EA70EE56EBDEC2DF0E652E6520350AF
:104D2000E56EA90EE56EBDEC2DF0E652E652E4CF3D
:104D300003F0E4CF02F0E4CF01F0E4CF00F0E4CFE1
:104D4000D9FF1200D8CFE5FFE0CFE5FFE56EF3CF46
:104D5000E5FFF4CFE5FFE9CFE5FFEACFE5FFFACFC6
:104D6000E5FFFBCFE5FFF6CFE5FFF6CFE5FFF7CF99
:104D7000E5FFF8CFE5FFF5CFE5FFE1CFE5FFE2CFB7
:104D8000E5FFD7EC0CF0E4CFE2FFE4CFE1FFE4CFA6
:104D9000F5FFE4CFF8FFE4CFF7FFE4CFF6FFE4CF71
:104DA000F6FFE4CFFBFFE4CFFAFFE4CFEAFFE4CF66
:104DB000E9FFE4CFF4FFE4CFF3FFE450E4CFE0FFFA
:104DC000E4CFD8FF1000D9CFE5FFE1CFD9FF00C075
:104DD000E5FF01C0E5FF02C0E5FF020ED924006E29
:104DE000000EDA20016E800E026E030E0026000E09
:104DF000012202220250E56E0150E56E0050E56E80
:104E0000040EDBCFE5FF030EDBCFE5FF020EDBCFA9
:104E1000E5FF05017351E56E7251E56E7151E56E66
:104E20000EEC00F0006EF3CF01F0090EE12601C098
:104E3000F3FF0050E4CF02F0E4CF01F0E4CF00F044
:104E4000E4CFD9FF1200D9CFE5FFE1CFD9FF00C0F1
:104E5000E5FF01C0E5FF02C0E5FF03C0E5FF020E6C
:104E6000DBCF00F0030EDBCF01F0040EDBCF02F04E
:104E7000040137510DE15EEC2FF0036E03C0E5FF36
:104E800000C0E9FF01C0F3FF0250CAEC30F00FD0C0
:104E900004013751010A0BE100C0E9FF01C0F3FF33
:104EA000025027EC30F0E56ED5EC2CF0E652E4CF62
:104EB00003F0E4CF02F0E4CF01F0E4CF00F0E4CF60
:104EC000D9FF1200D9CFE5FFE1CFD9FF00C0E5FF40
:104ED00001C0E5FF02C0E5FF03C0E5FF020EDBCF26
:104EE00000F0030EDBCF01F080C502F081C503F0B6
:104EF0000501803F01D0812B0150E56E0250E56E27
:104F0000FBEC2CF0E652E65280C502F081C503F0BE
:104F10000501803F01D0812B0050E56E0250E56E07
:104F2000FBEC2CF0E652E652E4CF03F0E4CF02F0C3
:104F3000E4CF01F0E4CF00F0E4CFD9FF120000C0CD
:104F4000E5FF01C0E5FF02C0E5FF92EC2BF0006E2B
:104F500092EC2BF0016ED00E00260A0E005C05E3E9
:104F60000050026EF90E0224006ED00E01260A0EC9
:104F7000015C05E30150026EF90E0224016E080E79
:104F8000005C12E2100E015CD8B00ED00038F00BBD
:104F90000124006E8EEC28F0016E015005E10050F6
:104FA000E56E00EC2FF0E652E4CF02F0E4CF01F022
:104FB000E4CF00F01200D9CFE5FFE1CFD9FF00C068
:104FC000E5FF01C0E5FF02C0E5FF03C0E5FF04C047
:104FD000E5FF020EDBCF00F03DC401F0026A014A9A
:104FE000022A3EC403F0046A0150031803E1025090
:104FF000041801E001D00ED0000E04013D25016E21
:10500000026A010E022201C0E9FF02C0EAFF00C0ED
:10501000EFFF3D2BE4CF04F0E4CF03F0E4CF02F048
:10502000E4CF01F0E4CF00F0E4CFD9FF1200D9CFF4
:10503000E5FFE1CFD9FF00C0E5FF01C0E5FF02C0F9
:10504000E5FF03C0E5FF04C0E5FF020EDBCF00F083
:10505000030EDBCF01F0040EDBCF02F0050EDBCF39
:1050600003F0060EDBCF04F000C0E9FF01C0F3FF40
:10507000025027EC30F0006E0450E56E0350E56EF0
:105080000050E56EE3EC2AF0030EE126E4CF04F0D5
:10509000E4CF03F0E4CF02F0E4CF01F0E4CF00F07E
:1050A000E4CFD9FF1200D9CFE5FFE1CFD9FF00C08F
:1050B000E5FF01C0E5FF02C0E5FF03C0E5FF020E0A
:1050C000DBCF00F0016AA1C502F0036A025000269E
:1050D00003500122E56A800EE56E0150E56E005036
:1050E000E56E93EC1EF0006EF3CF01F0040EE126A6
:1050F000600E0026000E012200C0E9FF01C0EAFF99
:10510000EFCF00F00050E4CF03F0E4CF02F0E4CFA3
:1051100001F0E4CF00F0E4CFD9FF120000C0E5FFBA
:1051200001C0E5FF02C0E5FF010E006E92EC2BF01E
:10513000016E01C002F0015023E00050E56E67EC03
:1051400030F0016EE652015010E10A0E005C0BE2F5
:105150000A0E006EE56E67EC30F0016EE65201500B
:1051600004E1E8680ED0E8680CD00150021802E0B3
:10517000E86807D0002A1B0E005CD8E3E86801D07D
:10518000E86AE4CF02F0E4CF01F0E4CF00F01200CF
:1051900000C0E5FF01C0E5FF02C0E5FF03C0E5FF79
:1051A00004C0E5FF05C0E5FFE80E006E030E016ECA
:1051B000FF0E002601220050011010E0C5CF02F0C2
:1051C000036A1F0E0216046AC7B4042A056A045053
:1051D00002120550031202500310EAE10401586B59
:1051E000005003E1015001E1582BE4CF05F0E4CF7A
:1051F00004F0E4CF03F0E4CF02F0E4CF01F0E4CF19
:1052000000F0120000C0E5FF01C0E5FF02C0E5FFAD
:1052100003C0E5FF68EC2BF0006EF3CF01F0F4CF94
:1052200002F0E9CF03F0E56AE56A030EE56EE80EE9
:10523000E56E0350E56E0250E56E0150E56E0050DC
:10524000E56EEEEC16F0006EF3CF01F0F4CF02F055
:10525000E9CF03F0080EE12603C0E9FF02C0F4FF26
:1052600001C0F3FF0050E4CF03F0E4CF02F0E4CF3D
:1052700001F0E4CF00F01200D9CFE5FFE1CFD9FF74
:1052800000C0E5FF020EDBCF00F000500AE105018F
:10529000AE91AE51E56EAB0EE56EBDEC2DF0E65273
:1052A000E6520050D880E866D890006A0036005078
:1052B000D880E866D890006A00360050010BE840BC
:1052C000E840F46E0501A651BF0BF410A66FE56E21
:1052D000800EE56EBDEC2DF0E652E652BFEC30F0EC
:1052E000E4CF00F0E4CFD9FF1200D9CFE5FFE1CF42
:1052F000D9FF00C0E5FF01C0E5FF020EDBCF00F0E3
:10530000030EDBCF01F0010E015C02E2010E016E23
:10531000410E015C02E3400E016E01060050030BDA
:10532000E840E840F46E0501A9513F0BF410A96F65
:1053300001503F0BF46EA951C00BF410A96FE56E3C
:105340008E0EE56EBDEC2DF0E652E652E4CF01F094
:10535000E4CF00F0E4CFD9FF1200D9CFE5FFE1CFD1
:10536000D9FF00C0E5FF01C0E5FF02C0E5FF020E66
:10537000DBCF00F0030EDBCF01F09EEC2DF004013B
:10538000585102E0E86816D00044FE0B026E01504E
:10539000D880E866D890016A01360150D880E86666
:1053A000D890016A0136015002120250E56E7FEC7E
:1053B0002DF0E652E4CF02F0E4CF01F0E4CF00F0AC
:1053C000E4CFD9FF1200D9CFE5FFE1CFD9FF00C06C
:1053D000E5FF01C0E5FF02C0E5FF03C0E5FF020EE7
:1053E000DBCF00F0E56E800EE56E050EE56E880EF3
:1053F000E56E0050E56EABEC20F0050EE12688C5A9
:1054000000F0016A0050036E026A89C500F0005086
:1054100002120150031203C0F3FF0250E4CF03F065
:10542000E4CF02F0E4CF01F0E4CF00F0E4CFD9FF05
:105430001200D9CFE5FFE1CFD9FF00C0E5FF01C0E1
:10544000E5FF020EDBCF00F0030EDBCF01F00150D1
:10545000030BE838F46E0501B351CF0BF410B36FB2
:10546000E56E900EE56EBDEC2DF0E652E652005072
:10547000030BE838F46E0501A851CF0BF410A86FA8
:10548000E56E8F0EE56EBDEC2DF0E652E652E4CFF0
:1054900001F0E4CF00F0E4CFD9FF120000C0E5FF37
:1054A00001C0E5FF02C0E5FF03C0E5FF80C500F0D5
:1054B00081C501F00501803F01D0812B0050E56ED0
:1054C00067EC30F0E652036E026A80C500F081C5D9
:1054D00001F00501803F01D0812B0050E56E67ECA3
:1054E00030F0E652016A02120150031203C0F3FFCA
:1054F0000250E4CF03F0E4CF02F0E4CF01F0E4CFB8
:1055000000F0120004013D6B04013E6B04013F6991
:1055100094808B909480B06A3F0EAF6EB886AC8A50
:10552000AC84AC8CAC90AB8CAB8E0501986B050158
:10553000926B0501956B0501966B0501976B000E4B
:10554000E56A67EC30F00401416FE6529F989F9A3C
:10555000010E0401406F0501716B726B2F0E736FAA
:1055600075EC30F0120000C0E5FF01C0E5FF02C09D
:10557000E5FF006E000E04014225016E026A0F0E67
:10558000022201C0E9FF02C0EAFF00C0EFFF220EC5
:10559000425DD8A0422B00500A0A0EE1040142519C
:1055A000E56E800EE56E0F0EE56E000EE56EC4EC46
:1055B0001BF0040EE126426BE4CF02F0E4CF01F0D1
:1055C000E4CF00F01200D9CFE5FFE1CFD9FF00C052
:1055D000E5FF01C0E5FF02C0E5FF020EDBCF00F0F2
:1055E000030EDBCF01F0040EDBCF02F0E56A0050C2
:1055F000E56EADEC29F0E652E6520150E56E7FEC27
:105600002DF0E6520250E56E7FEC2DF0E6521DECD7
:1056100031F0E4CF02F0E4CF01F0E4CF00F0E4CFCA
:10562000D9FF1200C3EC1CF00401396F39511BE0A3
:10563000010EE56EE6EC2BF0E652030EE56E91EC02
:105640002EF0E652E56A0A0EE56EA9EC24F0E65269
:10565000E652010EE56E3DEC2BF0E6520C0EE56EC7
:105660001AEC2EF0E652120043415044534F4B20A7
:1056700025640A00430025630000D9CFE5FFE1CF90
:10568000D9FF00C0E5FF020EDBCF00F00050D8804C
:10569000E866D890006A00360050D880E866D89056
:1056A000006A00360050010BE844E844F46E05013E
:1056B000A651FB0BF410A66FE56E800EE56EBDECF7
:1056C0002DF0E652E652E4CF00F0E4CFD9FF12000D
:1056D00004013B5104017C6F04013C5104017D6FC6
:1056E000D6507A6FD7507B6F7C5104013B1905E18E
:1056F00004017D5104013C190CE004013B510401FB
:105700007C6F04013C5104017D6FD6507A6FD750F5
:105710007B6F7DC4E9FF7CC4F4FF7BC4F3FF04010D
:105720007A51120000C0E5FF01C0E5FF0501965166
:1057300005019F1905E0050196510501951902E142
:10574000E86A15D096C500F00501962B016A600E37
:105750000026000E012200C0E9FF01C0EAFFEFCFE2
:1057600000F09651800A02E10501966B0050E4CFEB
:1057700001F0E4CF00F01200D9CFE5FFE1CFD9FF6F
:1057800000C0E5FF020EDBCF00F0E56A390EE56EE2
:10579000ADEC29F0E652E6520050E56E7FEC2DF0BC
:1057A000E6521DEC31F0010EE56E390EE56EADEC02
:1057B00029F0E652E652AEEC2CF0006E1DEC31F012
:1057C0000050E4CF00F0E4CFD9FF1200D9CFE5FFBD
:1057D000E1CFD9FF00C0E5FF020EDBCF00F00050A3
:1057E000D880E866D890006A00360050D880E86615
:1057F000D890006A00360050010BE844F46E0501B1
:10580000A651FD0BF410A66FE56E800EE56EBDECA3
:105810002DF0E652E652E4CF00F0E4CFD9FF1200BB
:10582000D9CFE5FFE1CFD9FF00C0E5FF020EDBCF06
:1058300000F00050D880E866D890006A003600502A
:10584000D880E866D890006A00360050010BF46EEC
:105850000501A651FE0BF410A66FE56E800EE56EF5
:10586000BDEC2DF0E652E652E4CF00F0E4CFD9FFD4
:10587000120000C0E5FF25EC31F00401896B806B5C
:105880008983006A89B3002A0050010BE844F46E52
:105890008051FD0BF410806FD58ED59CD59AD5889C
:1058A000D596D594D582D580F28AF184D08EF28EA9
:1058B000F28CBA80FF0EBB68BA84E4CF00F012000D
:1058C000D9CFE5FFE1CFD9FF00C0E5FF01C0E5FF7B
:1058D000020EDBCF00F00050020DF450016EF3CF4A
:1058E00000F0000E0026050E012200C0E9FF01C0F5
:1058F000EAFFEECF00F0EFCF01F001C0F3FF005060
:10590000E4CF01F0E4CF00F0E4CFD9FF1200D9CF0B
:10591000E5FFE1CFD9FF00C0E5FF01C0E5FF020EC2
:10592000DBCF00F00050020DF450016EF3CF00F019
:10593000E00E0026000E012200C0E9FF01C0EAFFD0
:10594000EECF00F0EFCF01F001C0F3FF0050E4CF45
:1059500001F0E4CF00F0E4CFD9FF120000C0E5FF72
:1059600001C0E5FF02C0E5FFC8EC28F0C586E80EDF
:10597000006E030E016EFF0E002601220050011082
:1059800005E00CEC31F0026E0250F5E00401586BBA
:10599000005003E1015001E1582BC950E4CF02F05F
:1059A000E4CF01F0E4CF00F01200D9CFE5FFE1CF62
:1059B000D9FF00C0E5FF01C0E5FF02C0E5FF020E10
:1059C000DBCF00F080C501F081C502F00501803F0A
:1059D00001D0812B0050E56E0150E56EFBEC2CF000
:1059E000E652E652E4CF02F0E4CF01F0E4CF00F05B
:1059F000E4CFD9FF1200D9CFE5FFE1CFD9FF00C036
:105A0000E5FF020EDBCF00F0030EDBCFA8FF00C0E6
:105A1000A9FFA69EA69CA684F29EF29C550EA76E98
:105A2000AA0EA76EA682A6A202D00000FCD7A6945A
:105A3000F28EF28CE4CF00F0E4CFD9FF120000C068
:105A4000E5FF01C0E5FFC8EC28F09E96C59AC58821
:105A5000E80E006E030E016EFF0E002601220050BC
:105A6000011002E09EA6F8D70401586B005003E134
:105A7000015001E1582BE4CF01F0E4CF00F0120017
:105A8000E8AE0AD0F3CFEAFFEE50EECFF3FFEECF51
:105A9000F4FFEECFE9FF1200E8BC3AEF31F0E9CFB6
:105AA000F6FFF3CFF7FFF86E0900F5500900F5CFC8
:105AB000F3FF0900F5CFF4FF0900F5CFE9FF12006D
:105AC00000C0E5FF01C0E5FF04013D5104013E199E
:105AD00002E1E86A0FD0000E04013E25006E016A63
